{
  "contractName": "Comments",
  "abi": [
    {
      "inputs": [
        {
          "internalType": "address[]",
          "name": "_interactors",
          "type": "address[]"
        },
        {
          "internalType": "address",
          "name": "_owner",
          "type": "address"
        }
      ],
      "name": "_alreadyReact",
      "outputs": [
        {
          "internalType": "uint256",
          "name": "_indexOfOwner",
          "type": "uint256"
        }
      ],
      "stateMutability": "pure",
      "type": "function",
      "constant": true
    },
    {
      "inputs": [],
      "name": "admin",
      "outputs": [
        {
          "internalType": "address",
          "name": "",
          "type": "address"
        }
      ],
      "stateMutability": "view",
      "type": "function",
      "constant": true
    },
    {
      "inputs": [
        {
          "internalType": "uint256",
          "name": "_videoId",
          "type": "uint256"
        }
      ],
      "name": "deleteVideo",
      "outputs": [],
      "stateMutability": "nonpayable",
      "type": "function"
    },
    {
      "inputs": [
        {
          "internalType": "uint256",
          "name": "_videoId",
          "type": "uint256"
        }
      ],
      "name": "dislikeVideo",
      "outputs": [],
      "stateMutability": "nonpayable",
      "type": "function"
    },
    {
      "inputs": [
        {
          "internalType": "string",
          "name": "_Hash",
          "type": "string"
        },
        {
          "internalType": "string",
          "name": "_Tayp",
          "type": "string"
        },
        {
          "internalType": "string",
          "name": "_title",
          "type": "string"
        }
      ],
      "name": "downloadVideo",
      "outputs": [],
      "stateMutability": "nonpayable",
      "type": "function"
    },
    {
      "inputs": [],
      "name": "functionPublic",
      "outputs": [
        {
          "internalType": "uint256[]",
          "name": "",
          "type": "uint256[]"
        }
      ],
      "stateMutability": "pure",
      "type": "function",
      "constant": true
    },
    {
      "inputs": [
        {
          "internalType": "string",
          "name": "_videoType",
          "type": "string"
        }
      ],
      "name": "getAllVideoByType",
      "outputs": [
        {
          "components": [
            {
              "internalType": "uint256",
              "name": "id",
              "type": "uint256"
            },
            {
              "internalType": "string",
              "name": "videoHash",
              "type": "string"
            },
            {
              "internalType": "string",
              "name": "videoTayp",
              "type": "string"
            },
            {
              "internalType": "string",
              "name": "videoTitle",
              "type": "string"
            },
            {
              "internalType": "uint256",
              "name": "timestamp",
              "type": "uint256"
            },
            {
              "internalType": "address",
              "name": "owner",
              "type": "address"
            },
            {
              "internalType": "address[]",
              "name": "likes",
              "type": "address[]"
            },
            {
              "internalType": "address[]",
              "name": "dislike",
              "type": "address[]"
            },
            {
              "internalType": "uint256[]",
              "name": "commentsIds",
              "type": "uint256[]"
            }
          ],
          "internalType": "struct YoutubeData.video[]",
          "name": "",
          "type": "tuple[]"
        }
      ],
      "stateMutability": "view",
      "type": "function",
      "constant": true
    },
    {
      "inputs": [],
      "name": "getAllVideos",
      "outputs": [
        {
          "components": [
            {
              "internalType": "uint256",
              "name": "id",
              "type": "uint256"
            },
            {
              "internalType": "string",
              "name": "videoHash",
              "type": "string"
            },
            {
              "internalType": "string",
              "name": "videoTayp",
              "type": "string"
            },
            {
              "internalType": "string",
              "name": "videoTitle",
              "type": "string"
            },
            {
              "internalType": "uint256",
              "name": "timestamp",
              "type": "uint256"
            },
            {
              "internalType": "address",
              "name": "owner",
              "type": "address"
            },
            {
              "internalType": "address[]",
              "name": "likes",
              "type": "address[]"
            },
            {
              "internalType": "address[]",
              "name": "dislike",
              "type": "address[]"
            },
            {
              "internalType": "uint256[]",
              "name": "commentsIds",
              "type": "uint256[]"
            }
          ],
          "internalType": "struct YoutubeData.video[]",
          "name": "",
          "type": "tuple[]"
        }
      ],
      "stateMutability": "view",
      "type": "function",
      "constant": true
    },
    {
      "inputs": [
        {
          "internalType": "address",
          "name": "_userAddress",
          "type": "address"
        }
      ],
      "name": "getUserByAddress",
      "outputs": [
        {
          "components": [
            {
              "internalType": "uint256",
              "name": "id",
              "type": "uint256"
            },
            {
              "internalType": "string",
              "name": "userName",
              "type": "string"
            },
            {
              "internalType": "address",
              "name": "userAddress",
              "type": "address"
            },
            {
              "internalType": "string",
              "name": "profileImag",
              "type": "string"
            },
            {
              "internalType": "uint256[]",
              "name": "userVideos",
              "type": "uint256[]"
            },
            {
              "internalType": "uint256[]",
              "name": "videoSaved",
              "type": "uint256[]"
            }
          ],
          "internalType": "struct YoutubeData.user",
          "name": "",
          "type": "tuple"
        }
      ],
      "stateMutability": "view",
      "type": "function",
      "constant": true
    },
    {
      "inputs": [
        {
          "internalType": "uint256",
          "name": "_userId",
          "type": "uint256"
        }
      ],
      "name": "getUserById",
      "outputs": [
        {
          "components": [
            {
              "internalType": "uint256",
              "name": "id",
              "type": "uint256"
            },
            {
              "internalType": "string",
              "name": "userName",
              "type": "string"
            },
            {
              "internalType": "address",
              "name": "userAddress",
              "type": "address"
            },
            {
              "internalType": "string",
              "name": "profileImag",
              "type": "string"
            },
            {
              "internalType": "uint256[]",
              "name": "userVideos",
              "type": "uint256[]"
            },
            {
              "internalType": "uint256[]",
              "name": "videoSaved",
              "type": "uint256[]"
            }
          ],
          "internalType": "struct YoutubeData.user",
          "name": "",
          "type": "tuple"
        }
      ],
      "stateMutability": "view",
      "type": "function",
      "constant": true
    },
    {
      "inputs": [
        {
          "internalType": "address",
          "name": "_userAddress",
          "type": "address"
        }
      ],
      "name": "getUserVideosByAddress",
      "outputs": [
        {
          "components": [
            {
              "internalType": "uint256",
              "name": "id",
              "type": "uint256"
            },
            {
              "internalType": "string",
              "name": "videoHash",
              "type": "string"
            },
            {
              "internalType": "string",
              "name": "videoTayp",
              "type": "string"
            },
            {
              "internalType": "string",
              "name": "videoTitle",
              "type": "string"
            },
            {
              "internalType": "uint256",
              "name": "timestamp",
              "type": "uint256"
            },
            {
              "internalType": "address",
              "name": "owner",
              "type": "address"
            },
            {
              "internalType": "address[]",
              "name": "likes",
              "type": "address[]"
            },
            {
              "internalType": "address[]",
              "name": "dislike",
              "type": "address[]"
            },
            {
              "internalType": "uint256[]",
              "name": "commentsIds",
              "type": "uint256[]"
            }
          ],
          "internalType": "struct YoutubeData.video[]",
          "name": "",
          "type": "tuple[]"
        }
      ],
      "stateMutability": "view",
      "type": "function",
      "constant": true
    },
    {
      "inputs": [
        {
          "internalType": "uint256",
          "name": "_userId",
          "type": "uint256"
        }
      ],
      "name": "getUserVideosById",
      "outputs": [
        {
          "components": [
            {
              "internalType": "uint256",
              "name": "id",
              "type": "uint256"
            },
            {
              "internalType": "string",
              "name": "videoHash",
              "type": "string"
            },
            {
              "internalType": "string",
              "name": "videoTayp",
              "type": "string"
            },
            {
              "internalType": "string",
              "name": "videoTitle",
              "type": "string"
            },
            {
              "internalType": "uint256",
              "name": "timestamp",
              "type": "uint256"
            },
            {
              "internalType": "address",
              "name": "owner",
              "type": "address"
            },
            {
              "internalType": "address[]",
              "name": "likes",
              "type": "address[]"
            },
            {
              "internalType": "address[]",
              "name": "dislike",
              "type": "address[]"
            },
            {
              "internalType": "uint256[]",
              "name": "commentsIds",
              "type": "uint256[]"
            }
          ],
          "internalType": "struct YoutubeData.video[]",
          "name": "",
          "type": "tuple[]"
        }
      ],
      "stateMutability": "view",
      "type": "function",
      "constant": true
    },
    {
      "inputs": [
        {
          "internalType": "uint256",
          "name": "_VideoId",
          "type": "uint256"
        }
      ],
      "name": "getVideo",
      "outputs": [
        {
          "components": [
            {
              "internalType": "uint256",
              "name": "id",
              "type": "uint256"
            },
            {
              "internalType": "string",
              "name": "videoHash",
              "type": "string"
            },
            {
              "internalType": "string",
              "name": "videoTayp",
              "type": "string"
            },
            {
              "internalType": "string",
              "name": "videoTitle",
              "type": "string"
            },
            {
              "internalType": "uint256",
              "name": "timestamp",
              "type": "uint256"
            },
            {
              "internalType": "address",
              "name": "owner",
              "type": "address"
            },
            {
              "internalType": "address[]",
              "name": "likes",
              "type": "address[]"
            },
            {
              "internalType": "address[]",
              "name": "dislike",
              "type": "address[]"
            },
            {
              "internalType": "uint256[]",
              "name": "commentsIds",
              "type": "uint256[]"
            }
          ],
          "internalType": "struct YoutubeData.video",
          "name": "",
          "type": "tuple"
        }
      ],
      "stateMutability": "view",
      "type": "function",
      "constant": true
    },
    {
      "inputs": [
        {
          "internalType": "uint256",
          "name": "_videoId",
          "type": "uint256"
        }
      ],
      "name": "likeVideo",
      "outputs": [],
      "stateMutability": "nonpayable",
      "type": "function"
    },
    {
      "inputs": [
        {
          "internalType": "string",
          "name": "_userName",
          "type": "string"
        },
        {
          "internalType": "string",
          "name": "_profileImag",
          "type": "string"
        }
      ],
      "name": "signUp",
      "outputs": [],
      "stateMutability": "nonpayable",
      "type": "function"
    },
    {
      "inputs": [
        {
          "internalType": "address",
          "name": "",
          "type": "address"
        }
      ],
      "name": "userId",
      "outputs": [
        {
          "internalType": "uint256",
          "name": "",
          "type": "uint256"
        }
      ],
      "stateMutability": "view",
      "type": "function",
      "constant": true
    },
    {
      "inputs": [
        {
          "internalType": "uint256",
          "name": "",
          "type": "uint256"
        }
      ],
      "name": "users",
      "outputs": [
        {
          "internalType": "uint256",
          "name": "id",
          "type": "uint256"
        },
        {
          "internalType": "string",
          "name": "userName",
          "type": "string"
        },
        {
          "internalType": "address",
          "name": "userAddress",
          "type": "address"
        },
        {
          "internalType": "string",
          "name": "profileImag",
          "type": "string"
        }
      ],
      "stateMutability": "view",
      "type": "function",
      "constant": true
    },
    {
      "inputs": [],
      "name": "usersCount",
      "outputs": [
        {
          "internalType": "uint256",
          "name": "",
          "type": "uint256"
        }
      ],
      "stateMutability": "view",
      "type": "function",
      "constant": true
    },
    {
      "inputs": [
        {
          "internalType": "uint256",
          "name": "",
          "type": "uint256"
        }
      ],
      "name": "videos",
      "outputs": [
        {
          "internalType": "uint256",
          "name": "id",
          "type": "uint256"
        },
        {
          "internalType": "string",
          "name": "videoHash",
          "type": "string"
        },
        {
          "internalType": "string",
          "name": "videoTayp",
          "type": "string"
        },
        {
          "internalType": "string",
          "name": "videoTitle",
          "type": "string"
        },
        {
          "internalType": "uint256",
          "name": "timestamp",
          "type": "uint256"
        },
        {
          "internalType": "address",
          "name": "owner",
          "type": "address"
        }
      ],
      "stateMutability": "view",
      "type": "function",
      "constant": true
    },
    {
      "inputs": [],
      "name": "videosCount",
      "outputs": [
        {
          "internalType": "uint256",
          "name": "",
          "type": "uint256"
        }
      ],
      "stateMutability": "view",
      "type": "function",
      "constant": true
    },
    {
      "inputs": [
        {
          "internalType": "uint256",
          "name": "_videoId",
          "type": "uint256"
        },
        {
          "internalType": "string",
          "name": "_commentMessag",
          "type": "string"
        }
      ],
      "name": "addComment",
      "outputs": [],
      "stateMutability": "nonpayable",
      "type": "function"
    },
    {
      "inputs": [
        {
          "internalType": "uint256",
          "name": "_videoId",
          "type": "uint256"
        },
        {
          "internalType": "uint256",
          "name": "_commentId",
          "type": "uint256"
        }
      ],
      "name": "getVideoComment",
      "outputs": [
        {
          "components": [
            {
              "internalType": "uint256",
              "name": "id",
              "type": "uint256"
            },
            {
              "internalType": "address",
              "name": "owner",
              "type": "address"
            },
            {
              "internalType": "string",
              "name": "comment",
              "type": "string"
            },
            {
              "internalType": "uint256",
              "name": "timestamp",
              "type": "uint256"
            },
            {
              "internalType": "address[]",
              "name": "likes",
              "type": "address[]"
            },
            {
              "internalType": "address[]",
              "name": "dislike",
              "type": "address[]"
            },
            {
              "internalType": "uint256[]",
              "name": "repliesIds",
              "type": "uint256[]"
            }
          ],
          "internalType": "struct YoutubeData.comment",
          "name": "",
          "type": "tuple"
        }
      ],
      "stateMutability": "view",
      "type": "function",
      "constant": true
    },
    {
      "inputs": [
        {
          "internalType": "uint256",
          "name": "_videoId",
          "type": "uint256"
        },
        {
          "internalType": "uint256",
          "name": "_commentId",
          "type": "uint256"
        }
      ],
      "name": "deletComment",
      "outputs": [],
      "stateMutability": "nonpayable",
      "type": "function"
    },
    {
      "inputs": [
        {
          "internalType": "uint256",
          "name": "_videoId",
          "type": "uint256"
        },
        {
          "internalType": "uint256",
          "name": "_commentId",
          "type": "uint256"
        }
      ],
      "name": "likeComment",
      "outputs": [],
      "stateMutability": "nonpayable",
      "type": "function"
    },
    {
      "inputs": [
        {
          "internalType": "uint256",
          "name": "_videoId",
          "type": "uint256"
        },
        {
          "internalType": "uint256",
          "name": "_commentId",
          "type": "uint256"
        }
      ],
      "name": "dislikeComment",
      "outputs": [],
      "stateMutability": "nonpayable",
      "type": "function"
    }
  ],
  "bytecode": "0x608060405234801561001057600080fd5b50336000806101000a81548173ffffffffffffffffffffffffffffffffffffffff021916908373ffffffffffffffffffffffffffffffffffffffff160217905550614358806100606000396000f3fe608060405234801561001057600080fd5b50600436106101735760003560e01c80638e8cde21116100de578063c38e343411610097578063e9c4cc9411610071578063e9c4cc9414610498578063ef08523b146104b6578063f851a440146104d4578063ffa36aca146104f257610173565b8063c38e343414610429578063d4ab873e14610447578063e6821bf51461046357610173565b80638e8cde2114610359578063a0e9182114610389578063a10aac41146103a5578063a469a332146103c1578063aa7e5683146103dd578063b2f46439146103f957610173565b8063365b98b211610130578063365b98b21461025c578063376fe1021461028f57806339229b93146102bf57806369c212f6146102db5780636ba13a821461030b5780636ed6da9e1461032957610173565b80630746bfe5146101785780630aeec1a114610194578063178166b0146101c457806327260d5c146101e05780632893eca2146101fc5780632e7ee11e1461022c575b600080fd5b610192600480360381019061018d9190613136565b610522565b005b6101ae60048036038101906101a99190613136565b6107c8565b6040516101bb9190613554565b60405180910390f35b6101de60048036038101906101d99190613576565b6108bf565b005b6101fa60048036038101906101f59190613136565b610b40565b005b61021660048036038101906102119190613136565b610e32565b604051610223919061369e565b60405180910390f35b610246600480360381019061024191906137f5565b6111f4565b6040516102539190613554565b60405180910390f35b61027660048036038101906102719190613136565b6112cd565b60405161028694939291906138a6565b60405180910390f35b6102a960048036038101906102a49190613925565b61142d565b6040516102b69190613952565b60405180910390f35b6102d960048036038101906102d4919061396d565b611445565b005b6102f560048036038101906102f09190613925565b6115d3565b6040516103029190613ab2565b60405180910390f35b610313611879565b6040516103209190613952565b60405180910390f35b610343600480360381019061033e9190613136565b61187f565b6040516103509190613ab2565b60405180910390f35b610373600480360381019061036e9190613576565b611ae0565b6040516103809190613b85565b60405180910390f35b6103a3600480360381019061039e9190613576565b611d8f565b005b6103bf60048036038101906103ba9190613576565b6120d7565b005b6103db60048036038101906103d69190613ba7565b61241f565b005b6103f760048036038101906103f29190613c1f565b612559565b005b610413600480360381019061040e9190613d43565b6126a1565b6040516104209190613952565b60405180910390f35b610431612730565b60405161043e9190613554565b60405180910390f35b610461600480360381019061045c9190613136565b6127f0565b005b61047d60048036038101906104789190613136565b612a73565b60405161048f96959493929190613d9f565b60405180910390f35b6104a0612c67565b6040516104ad9190613e84565b60405180910390f35b6104be612c71565b6040516104cb9190613952565b60405180910390f35b6104dc612c77565b6040516104e99190613ea6565b60405180910390f35b61050c60048036038101906105079190613925565b612c9b565b6040516105199190613554565b60405180910390f35b60006105c8600560008481526020019081526020016000206006018054806020026020016040519081016040528092919081815260200182805480156105bd57602002820191906000526020600020905b8160009054906101000a900473ffffffffffffffffffffffffffffffffffffffff1673ffffffffffffffffffffffffffffffffffffffff1681526020019060010190808311610573575b5050505050336126a1565b905060006106706005600085815260200190815260200160002060070180548060200260200160405190810160405280929190818152602001828054801561066557602002820191906000526020600020905b8160009054906101000a900473ffffffffffffffffffffffffffffffffffffffff1673ffffffffffffffffffffffffffffffffffffffff168152602001906001019080831161061b575b5050505050336126a1565b9050600081036107615760056000848152602001908152602001600020600701339080600181540180825580915050600190039060005260206000200160009091909190916101000a81548173ffffffffffffffffffffffffffffffffffffffff021916908373ffffffffffffffffffffffffffffffffffffffff160217905550600082111561075c576005600084815260200190815260200160002060060160018361071d9190613ef0565b8154811061072e5761072d613f24565b5b9060005260206000200160006101000a81549073ffffffffffffffffffffffffffffffffffffffff02191690555b6107c3565b600560008481526020019081526020016000206007016001826107849190613ef0565b8154811061079557610794613f24565b5b9060005260206000200160006101000a81549073ffffffffffffffffffffffffffffffffffffffff02191690555b505050565b606060006107d58361187f565b90506000816080015151116107e957600080fd5b600081608001515167ffffffffffffffff81111561080a576108096136ca565b5b60405190808252806020026020018201604052801561084357816020015b610830612f4c565b8152602001906001900390816108285790505b50905060005b8260800151518110156108b457600061087f8460800151838151811061087257610871613f24565b5b6020026020010151610e32565b90508083838151811061089557610894613f24565b5b60200260200101819052505080806108ac90613f53565b915050610849565b508092505050919050565b6000600360003373ffffffffffffffffffffffffffffffffffffffff1673ffffffffffffffffffffffffffffffffffffffff168152602001908152602001600020540361090b57600080fd5b3373ffffffffffffffffffffffffffffffffffffffff1660066000848152602001908152602001600020600083815260200190815260200160002060010160009054906101000a900473ffffffffffffffffffffffffffffffffffffffff1673ffffffffffffffffffffffffffffffffffffffff1614806109ed57503373ffffffffffffffffffffffffffffffffffffffff166005600084815260200190815260200160002060050160009054906101000a900473ffffffffffffffffffffffffffffffffffffffff1673ffffffffffffffffffffffffffffffffffffffff16145b6109f657600080fd5b6006600083815260200190815260200160002060008281526020019081526020016000206000808201600090556001820160006101000a81549073ffffffffffffffffffffffffffffffffffffffff0219169055600282016000610a5a9190612fae565b6003820160009055600482016000610a729190612fee565b600582016000610a829190612fee565b600682016000610a92919061300f565b505060005b6005600084815260200190815260200160002060080180549050811015610b3b5781600560008581526020019081526020016000206008018281548110610ae157610ae0613f24565b5b906000526020600020015403610b2857600560008481526020019081526020016000206008018181548110610b1957610b18613f24565b5b90600052602060002001600090555b8080610b3390613f53565b915050610a97565b505050565b6000600360003373ffffffffffffffffffffffffffffffffffffffff1673ffffffffffffffffffffffffffffffffffffffff1681526020019081526020016000205403610b8c57600080fd5b6000610c3260056000848152602001908152602001600020600601805480602002602001604051908101604052809291908181526020018280548015610c2757602002820191906000526020600020905b8160009054906101000a900473ffffffffffffffffffffffffffffffffffffffff1673ffffffffffffffffffffffffffffffffffffffff1681526020019060010190808311610bdd575b5050505050336126a1565b90506000610cda60056000858152602001908152602001600020600701805480602002602001604051908101604052809291908181526020018280548015610ccf57602002820191906000526020600020905b8160009054906101000a900473ffffffffffffffffffffffffffffffffffffffff1673ffffffffffffffffffffffffffffffffffffffff1681526020019060010190808311610c85575b5050505050336126a1565b905060008203610dcb5760056000848152602001908152602001600020600601339080600181540180825580915050600190039060005260206000200160009091909190916101000a81548173ffffffffffffffffffffffffffffffffffffffff021916908373ffffffffffffffffffffffffffffffffffffffff1602179055506000811115610dc65760056000848152602001908152602001600020600701600182610d879190613ef0565b81548110610d9857610d97613f24565b5b9060005260206000200160006101000a81549073ffffffffffffffffffffffffffffffffffffffff02191690555b610e2d565b60056000848152602001908152602001600020600601600183610dee9190613ef0565b81548110610dff57610dfe613f24565b5b9060005260206000200160006101000a81549073ffffffffffffffffffffffffffffffffffffffff02191690555b505050565b610e3a612f4c565b600560008381526020019081526020016000206040518061012001604052908160008201548152602001600182018054610e7390613fca565b80601f0160208091040260200160405190810160405280929190818152602001828054610e9f90613fca565b8015610eec5780601f10610ec157610100808354040283529160200191610eec565b820191906000526020600020905b815481529060010190602001808311610ecf57829003601f168201915b50505050508152602001600282018054610f0590613fca565b80601f0160208091040260200160405190810160405280929190818152602001828054610f3190613fca565b8015610f7e5780601f10610f5357610100808354040283529160200191610f7e565b820191906000526020600020905b815481529060010190602001808311610f6157829003601f168201915b50505050508152602001600382018054610f9790613fca565b80601f0160208091040260200160405190810160405280929190818152602001828054610fc390613fca565b80156110105780601f10610fe557610100808354040283529160200191611010565b820191906000526020600020905b815481529060010190602001808311610ff357829003601f168201915b50505050508152602001600482015481526020016005820160009054906101000a900473ffffffffffffffffffffffffffffffffffffffff1673ffffffffffffffffffffffffffffffffffffffff1673ffffffffffffffffffffffffffffffffffffffff168152602001600682018054806020026020016040519081016040528092919081815260200182805480156110fe57602002820191906000526020600020905b8160009054906101000a900473ffffffffffffffffffffffffffffffffffffffff1673ffffffffffffffffffffffffffffffffffffffff16815260200190600101908083116110b4575b505050505081526020016007820180548060200260200160405190810160405280929190818152602001828054801561118c57602002820191906000526020600020905b8160009054906101000a900473ffffffffffffffffffffffffffffffffffffffff1673ffffffffffffffffffffffffffffffffffffffff1681526020019060010190808311611142575b50505050508152602001600882018054806020026020016040519081016040528092919081815260200182805480156111e457602002820191906000526020600020905b8154815260200190600101908083116111d0575b5050505050815250509050919050565b6060600061120183612d92565b90506000815167ffffffffffffffff8111156112205761121f6136ca565b5b60405190808252806020026020018201604052801561125957816020015b611246612f4c565b81526020019060019003908161123e5790505b50905060005b82518110156112c257600061128d8483815181106112805761127f613f24565b5b6020026020010151610e32565b9050808383815181106112a3576112a2613f24565b5b60200260200101819052505080806112ba90613f53565b91505061125f565b508092505050919050565b60046020528060005260406000206000915090508060000154908060010180546112f690613fca565b80601f016020809104026020016040519081016040528092919081815260200182805461132290613fca565b801561136f5780601f106113445761010080835404028352916020019161136f565b820191906000526020600020905b81548152906001019060200180831161135257829003601f168201915b5050505050908060020160009054906101000a900473ffffffffffffffffffffffffffffffffffffffff16908060030180546113aa90613fca565b80601f01602080910402602001604051908101604052809291908181526020018280546113d690613fca565b80156114235780601f106113f857610100808354040283529160200191611423565b820191906000526020600020905b81548152906001019060200180831161140657829003601f168201915b5050505050905084565b60036020528060005260406000206000915090505481565b6000600360003373ffffffffffffffffffffffffffffffffffffffff1673ffffffffffffffffffffffffffffffffffffffff168152602001908152602001600020540361149157600080fd5b600260008154809291906114a490613f53565b9190505550600060056000600254815260200190815260200160002090506002548160000181905550838160010190816114de91906141a7565b50828160020190816114f091906141a7565b508181600301908161150291906141a7565b50428160040181905550338160050160006101000a81548173ffffffffffffffffffffffffffffffffffffffff021916908373ffffffffffffffffffffffffffffffffffffffff16021790555060046000600360003373ffffffffffffffffffffffffffffffffffffffff1673ffffffffffffffffffffffffffffffffffffffff168152602001908152602001600020548152602001908152602001600020600401600254908060018154018082558091505060019003906000526020600020016000909190919091505550505050565b6115db613030565b6000600360008473ffffffffffffffffffffffffffffffffffffffff1673ffffffffffffffffffffffffffffffffffffffff168152602001908152602001600020549050600460008281526020019081526020016000206040518060c00160405290816000820154815260200160018201805461165790613fca565b80601f016020809104026020016040519081016040528092919081815260200182805461168390613fca565b80156116d05780601f106116a5576101008083540402835291602001916116d0565b820191906000526020600020905b8154815290600101906020018083116116b357829003601f168201915b505050505081526020016002820160009054906101000a900473ffffffffffffffffffffffffffffffffffffffff1673ffffffffffffffffffffffffffffffffffffffff1673ffffffffffffffffffffffffffffffffffffffff16815260200160038201805461173f90613fca565b80601f016020809104026020016040519081016040528092919081815260200182805461176b90613fca565b80156117b85780601f1061178d576101008083540402835291602001916117b8565b820191906000526020600020905b81548152906001019060200180831161179b57829003601f168201915b505050505081526020016004820180548060200260200160405190810160405280929190818152602001828054801561181057602002820191906000526020600020905b8154815260200190600101908083116117fc575b505050505081526020016005820180548060200260200160405190810160405280929190818152602001828054801561186857602002820191906000526020600020905b815481526020019060010190808311611854575b505050505081525050915050919050565b60015481565b611887613030565b600460008381526020019081526020016000206040518060c0016040529081600082015481526020016001820180546118bf90613fca565b80601f01602080910402602001604051908101604052809291908181526020018280546118eb90613fca565b80156119385780601f1061190d57610100808354040283529160200191611938565b820191906000526020600020905b81548152906001019060200180831161191b57829003601f168201915b505050505081526020016002820160009054906101000a900473ffffffffffffffffffffffffffffffffffffffff1673ffffffffffffffffffffffffffffffffffffffff1673ffffffffffffffffffffffffffffffffffffffff1681526020016003820180546119a790613fca565b80601f01602080910402602001604051908101604052809291908181526020018280546119d390613fca565b8015611a205780601f106119f557610100808354040283529160200191611a20565b820191906000526020600020905b815481529060010190602001808311611a0357829003601f168201915b5050505050815260200160048201805480602002602001604051908101604052809291908181526020018280548015611a7857602002820191906000526020600020905b815481526020019060010190808311611a64575b5050505050815260200160058201805480602002602001604051908101604052809291908181526020018280548015611ad057602002820191906000526020600020905b815481526020019060010190808311611abc575b5050505050815250509050919050565b611ae861307c565b6006600084815260200190815260200160002060008381526020019081526020016000206040518060e0016040529081600082015481526020016001820160009054906101000a900473ffffffffffffffffffffffffffffffffffffffff1673ffffffffffffffffffffffffffffffffffffffff1673ffffffffffffffffffffffffffffffffffffffff168152602001600282018054611b8790613fca565b80601f0160208091040260200160405190810160405280929190818152602001828054611bb390613fca565b8015611c005780601f10611bd557610100808354040283529160200191611c00565b820191906000526020600020905b815481529060010190602001808311611be357829003601f168201915b505050505081526020016003820154815260200160048201805480602002602001604051908101604052809291908181526020018280548015611c9857602002820191906000526020600020905b8160009054906101000a900473ffffffffffffffffffffffffffffffffffffffff1673ffffffffffffffffffffffffffffffffffffffff1681526020019060010190808311611c4e575b5050505050815260200160058201805480602002602001604051908101604052809291908181526020018280548015611d2657602002820191906000526020600020905b8160009054906101000a900473ffffffffffffffffffffffffffffffffffffffff1673ffffffffffffffffffffffffffffffffffffffff1681526020019060010190808311611cdc575b5050505050815260200160068201805480602002602001604051908101604052809291908181526020018280548015611d7e57602002820191906000526020600020905b815481526020019060010190808311611d6a575b505050505081525050905092915050565b6000600360003373ffffffffffffffffffffffffffffffffffffffff1673ffffffffffffffffffffffffffffffffffffffff1681526020019081526020016000205403611ddb57600080fd5b6000611e92600660008581526020019081526020016000206000848152602001908152602001600020600401805480602002602001604051908101604052809291908181526020018280548015611e8757602002820191906000526020600020905b8160009054906101000a900473ffffffffffffffffffffffffffffffffffffffff1673ffffffffffffffffffffffffffffffffffffffff1681526020019060010190808311611e3d575b5050505050336126a1565b90506000611f4b600660008681526020019081526020016000206000858152602001908152602001600020600501805480602002602001604051908101604052809291908181526020018280548015611f4057602002820191906000526020600020905b8160009054906101000a900473ffffffffffffffffffffffffffffffffffffffff1673ffffffffffffffffffffffffffffffffffffffff1681526020019060010190808311611ef6575b5050505050336126a1565b90506000820361205e57600660008581526020019081526020016000206000848152602001908152602001600020600401339080600181540180825580915050600190039060005260206000200160009091909190916101000a81548173ffffffffffffffffffffffffffffffffffffffff021916908373ffffffffffffffffffffffffffffffffffffffff16021790555060008111156120595760066000858152602001908152602001600020600084815260200190815260200160002060050160018261201a9190613ef0565b8154811061202b5761202a613f24565b5b9060005260206000200160006101000a81549073ffffffffffffffffffffffffffffffffffffffff02191690555b6120d1565b6006600085815260200190815260200160002060008481526020019081526020016000206004016001836120929190613ef0565b815481106120a3576120a2613f24565b5b9060005260206000200160006101000a81549073ffffffffffffffffffffffffffffffffffffffff02191690555b50505050565b6000600360003373ffffffffffffffffffffffffffffffffffffffff1673ffffffffffffffffffffffffffffffffffffffff168152602001908152602001600020540361212357600080fd5b60006121da6006600085815260200190815260200160002060008481526020019081526020016000206004018054806020026020016040519081016040528092919081815260200182805480156121cf57602002820191906000526020600020905b8160009054906101000a900473ffffffffffffffffffffffffffffffffffffffff1673ffffffffffffffffffffffffffffffffffffffff1681526020019060010190808311612185575b5050505050336126a1565b9050600061229360066000868152602001908152602001600020600085815260200190815260200160002060050180548060200260200160405190810160405280929190818152602001828054801561228857602002820191906000526020600020905b8160009054906101000a900473ffffffffffffffffffffffffffffffffffffffff1673ffffffffffffffffffffffffffffffffffffffff168152602001906001019080831161223e575b5050505050336126a1565b9050600081036123a657600660008581526020019081526020016000206000848152602001908152602001600020600501339080600181540180825580915050600190039060005260206000200160009091909190916101000a81548173ffffffffffffffffffffffffffffffffffffffff021916908373ffffffffffffffffffffffffffffffffffffffff16021790555060008211156123a1576006600085815260200190815260200160002060008481526020019081526020016000206004016001836123629190613ef0565b8154811061237357612372613f24565b5b9060005260206000200160006101000a81549073ffffffffffffffffffffffffffffffffffffffff02191690555b612419565b6006600085815260200190815260200160002060008481526020019081526020016000206005016001826123da9190613ef0565b815481106123eb576123ea613f24565b5b9060005260206000200160006101000a81549073ffffffffffffffffffffffffffffffffffffffff02191690555b50505050565b6000600360003373ffffffffffffffffffffffffffffffffffffffff1673ffffffffffffffffffffffffffffffffffffffff168152602001908152602001600020541461246b57600080fd5b6001600081548092919061247e90613f53565b9190505550600060046000600154815260200190815260200160002090506001548160000181905550828160010190816124b891906141a7565b50338160020160006101000a81548173ffffffffffffffffffffffffffffffffffffffff021916908373ffffffffffffffffffffffffffffffffffffffff1602179055508181600301908161250d91906141a7565b50600154600360003373ffffffffffffffffffffffffffffffffffffffff1673ffffffffffffffffffffffffffffffffffffffff16815260200190815260200160002081905550505050565b6000600360003373ffffffffffffffffffffffffffffffffffffffff1673ffffffffffffffffffffffffffffffffffffffff16815260200190815260200160002054036125a557600080fd5b6000600160056000858152602001908152602001600020600801805490506125cd9190614279565b905060006006600085815260200190815260200160002060008381526020019081526020016000209050818160000181905550338160010160006101000a81548173ffffffffffffffffffffffffffffffffffffffff021916908373ffffffffffffffffffffffffffffffffffffffff1602179055508281600201908161265491906141a7565b504281600301819055506005600085815260200190815260200160002060080182908060018154018082558091505060019003906000526020600020016000909190919091505550505050565b6000808351111561272a5760005b8351811015612728578273ffffffffffffffffffffffffffffffffffffffff168482815181106126e2576126e1613f24565b5b602002602001015173ffffffffffffffffffffffffffffffffffffffff1603612715576001816127129190614279565b91505b808061272090613f53565b9150506126af565b505b92915050565b6060600060025467ffffffffffffffff8111156127505761274f6136ca565b5b60405190808252806020026020018201604052801561278957816020015b612776612f4c565b81526020019060019003908161276e5790505b5090506000600190505b60025481116127e85760006127a782610e32565b905080836001846127b89190613ef0565b815181106127c9576127c8613f24565b5b60200260200101819052505080806127e090613f53565b915050612793565b508091505090565b3373ffffffffffffffffffffffffffffffffffffffff166005600083815260200190815260200160002060050160009054906101000a900473ffffffffffffffffffffffffffffffffffffffff1673ffffffffffffffffffffffffffffffffffffffff161461285e57600080fd5b6005600082815260200190815260200160002060008082016000905560018201600061288a9190612fae565b60028201600061289a9190612fae565b6003820160006128aa9190612fae565b60048201600090556005820160006101000a81549073ffffffffffffffffffffffffffffffffffffffff02191690556006820160006128e99190612fee565b6007820160006128f99190612fee565b600882016000612909919061300f565b505060005b60046000600360003373ffffffffffffffffffffffffffffffffffffffff1673ffffffffffffffffffffffffffffffffffffffff16815260200190815260200160002054815260200190815260200160002060040180549050811015612a6f578160046000600360003373ffffffffffffffffffffffffffffffffffffffff1673ffffffffffffffffffffffffffffffffffffffff16815260200190815260200160002054815260200190815260200160002060040182815481106129d6576129d5613f24565b5b906000526020600020015403612a5c5760046000600360003373ffffffffffffffffffffffffffffffffffffffff1673ffffffffffffffffffffffffffffffffffffffff1681526020019081526020016000205481526020019081526020016000206004018181548110612a4d57612a4c613f24565b5b90600052602060002001600090555b8080612a6790613f53565b91505061290e565b5050565b6005602052806000526040600020600091509050806000015490806001018054612a9c90613fca565b80601f0160208091040260200160405190810160405280929190818152602001828054612ac890613fca565b8015612b155780601f10612aea57610100808354040283529160200191612b15565b820191906000526020600020905b815481529060010190602001808311612af857829003601f168201915b505050505090806002018054612b2a90613fca565b80601f0160208091040260200160405190810160405280929190818152602001828054612b5690613fca565b8015612ba35780601f10612b7857610100808354040283529160200191612ba3565b820191906000526020600020905b815481529060010190602001808311612b8657829003601f168201915b505050505090806003018054612bb890613fca565b80601f0160208091040260200160405190810160405280929190818152602001828054612be490613fca565b8015612c315780601f10612c0657610100808354040283529160200191612c31565b820191906000526020600020905b815481529060010190602001808311612c1457829003601f168201915b5050505050908060040154908060050160009054906101000a900473ffffffffffffffffffffffffffffffffffffffff16905086565b6060808091505090565b60025481565b60008054906101000a900473ffffffffffffffffffffffffffffffffffffffff1681565b60606000612ca8836115d3565b9050600081608001515111612cbc57600080fd5b600081608001515167ffffffffffffffff811115612cdd57612cdc6136ca565b5b604051908082528060200260200182016040528015612d1657816020015b612d03612f4c565b815260200190600190039081612cfb5790505b50905060005b826080015151811015612d87576000612d5284608001518381518110612d4557612d44613f24565b5b6020026020010151610e32565b905080838381518110612d6857612d67613f24565b5b6020026020010181905250508080612d7f90613f53565b915050612d1c565b508092505050919050565b6060600080600190505b6002548111612e2c576000612db082610e32565b905084604051602001612dc3919061430b565b604051602081830303815290604052805190602001208160400151604051602001612dee919061430b565b6040516020818303038152906040528051906020012003612e18578280612e1490613f53565b9350505b508080612e2490613f53565b915050612d9c565b5060008167ffffffffffffffff811115612e4957612e486136ca565b5b604051908082528060200260200182016040528015612e775781602001602082028036833780820191505090505b509050600080831115612f41576000600190505b6002548111612f3f576000612e9f82610e32565b905086604051602001612eb2919061430b565b604051602081830303815290604052805190602001208160400151604051602001612edd919061430b565b6040516020818303038152906040528051906020012003612f2b578060000151848481518110612f1057612f0f613f24565b5b6020026020010181815250508280612f2790613f53565b9350505b508080612f3790613f53565b915050612e8b565b505b819350505050919050565b6040518061012001604052806000815260200160608152602001606081526020016060815260200160008152602001600073ffffffffffffffffffffffffffffffffffffffff1681526020016060815260200160608152602001606081525090565b508054612fba90613fca565b6000825580601f10612fcc5750612feb565b601f016020900490600052602060002090810190612fea91906130cf565b5b50565b508054600082559060005260206000209081019061300c91906130cf565b50565b508054600082559060005260206000209081019061302d91906130cf565b50565b6040518060c001604052806000815260200160608152602001600073ffffffffffffffffffffffffffffffffffffffff1681526020016060815260200160608152602001606081525090565b6040518060e0016040528060008152602001600073ffffffffffffffffffffffffffffffffffffffff16815260200160608152602001600081526020016060815260200160608152602001606081525090565b5b808211156130e85760008160009055506001016130d0565b5090565b6000604051905090565b600080fd5b600080fd5b6000819050919050565b61311381613100565b811461311e57600080fd5b50565b6000813590506131308161310a565b92915050565b60006020828403121561314c5761314b6130f6565b5b600061315a84828501613121565b91505092915050565b600081519050919050565b600082825260208201905092915050565b6000819050602082019050919050565b61319881613100565b82525050565b600081519050919050565b600082825260208201905092915050565b60005b838110156131d85780820151818401526020810190506131bd565b838111156131e7576000848401525b50505050565b6000601f19601f8301169050919050565b60006132098261319e565b61321381856131a9565b93506132238185602086016131ba565b61322c816131ed565b840191505092915050565b600073ffffffffffffffffffffffffffffffffffffffff82169050919050565b600061326282613237565b9050919050565b61327281613257565b82525050565b600081519050919050565b600082825260208201905092915050565b6000819050602082019050919050565b60006132b08383613269565b60208301905092915050565b6000602082019050919050565b60006132d482613278565b6132de8185613283565b93506132e983613294565b8060005b8381101561331a57815161330188826132a4565b975061330c836132bc565b9250506001810190506132ed565b5085935050505092915050565b600081519050919050565b600082825260208201905092915050565b6000819050602082019050919050565b600061335f838361318f565b60208301905092915050565b6000602082019050919050565b600061338382613327565b61338d8185613332565b935061339883613343565b8060005b838110156133c95781516133b08882613353565b97506133bb8361336b565b92505060018101905061339c565b5085935050505092915050565b6000610120830160008301516133ef600086018261318f565b506020830151848203602086015261340782826131fe565b9150506040830151848203604086015261342182826131fe565b9150506060830151848203606086015261343b82826131fe565b9150506080830151613450608086018261318f565b5060a083015161346360a0860182613269565b5060c083015184820360c086015261347b82826132c9565b91505060e083015184820360e086015261349582826132c9565b9150506101008301518482036101008601526134b18282613378565b9150508091505092915050565b60006134ca83836133d6565b905092915050565b6000602082019050919050565b60006134ea82613163565b6134f4818561316e565b9350836020820285016135068561317f565b8060005b85811015613542578484038952815161352385826134be565b945061352e836134d2565b925060208a0199505060018101905061350a565b50829750879550505050505092915050565b6000602082019050818103600083015261356e81846134df565b905092915050565b6000806040838503121561358d5761358c6130f6565b5b600061359b85828601613121565b92505060206135ac85828601613121565b9150509250929050565b6000610120830160008301516135cf600086018261318f565b50602083015184820360208601526135e782826131fe565b9150506040830151848203604086015261360182826131fe565b9150506060830151848203606086015261361b82826131fe565b9150506080830151613630608086018261318f565b5060a083015161364360a0860182613269565b5060c083015184820360c086015261365b82826132c9565b91505060e083015184820360e086015261367582826132c9565b9150506101008301518482036101008601526136918282613378565b9150508091505092915050565b600060208201905081810360008301526136b881846135b6565b905092915050565b600080fd5b600080fd5b7f4e487b7100000000000000000000000000000000000000000000000000000000600052604160045260246000fd5b613702826131ed565b810181811067ffffffffffffffff82111715613721576137206136ca565b5b80604052505050565b60006137346130ec565b905061374082826136f9565b919050565b600067ffffffffffffffff8211156137605761375f6136ca565b5b613769826131ed565b9050602081019050919050565b82818337600083830152505050565b600061379861379384613745565b61372a565b9050828152602081018484840111156137b4576137b36136c5565b5b6137bf848285613776565b509392505050565b600082601f8301126137dc576137db6136c0565b5b81356137ec848260208601613785565b91505092915050565b60006020828403121561380b5761380a6130f6565b5b600082013567ffffffffffffffff811115613829576138286130fb565b5b613835848285016137c7565b91505092915050565b61384781613100565b82525050565b600082825260208201905092915050565b60006138698261319e565b613873818561384d565b93506138838185602086016131ba565b61388c816131ed565b840191505092915050565b6138a081613257565b82525050565b60006080820190506138bb600083018761383e565b81810360208301526138cd818661385e565b90506138dc6040830185613897565b81810360608301526138ee818461385e565b905095945050505050565b61390281613257565b811461390d57600080fd5b50565b60008135905061391f816138f9565b92915050565b60006020828403121561393b5761393a6130f6565b5b600061394984828501613910565b91505092915050565b6000602082019050613967600083018461383e565b92915050565b600080600060608486031215613986576139856130f6565b5b600084013567ffffffffffffffff8111156139a4576139a36130fb565b5b6139b0868287016137c7565b935050602084013567ffffffffffffffff8111156139d1576139d06130fb565b5b6139dd868287016137c7565b925050604084013567ffffffffffffffff8111156139fe576139fd6130fb565b5b613a0a868287016137c7565b9150509250925092565b600060c083016000830151613a2c600086018261318f565b5060208301518482036020860152613a4482826131fe565b9150506040830151613a596040860182613269565b5060608301518482036060860152613a7182826131fe565b91505060808301518482036080860152613a8b8282613378565b91505060a083015184820360a0860152613aa58282613378565b9150508091505092915050565b60006020820190508181036000830152613acc8184613a14565b905092915050565b600060e083016000830151613aec600086018261318f565b506020830151613aff6020860182613269565b5060408301518482036040860152613b1782826131fe565b9150506060830151613b2c606086018261318f565b5060808301518482036080860152613b4482826132c9565b91505060a083015184820360a0860152613b5e82826132c9565b91505060c083015184820360c0860152613b788282613378565b9150508091505092915050565b60006020820190508181036000830152613b9f8184613ad4565b905092915050565b60008060408385031215613bbe57613bbd6130f6565b5b600083013567ffffffffffffffff811115613bdc57613bdb6130fb565b5b613be8858286016137c7565b925050602083013567ffffffffffffffff811115613c0957613c086130fb565b5b613c15858286016137c7565b9150509250929050565b60008060408385031215613c3657613c356130f6565b5b6000613c4485828601613121565b925050602083013567ffffffffffffffff811115613c6557613c646130fb565b5b613c71858286016137c7565b9150509250929050565b600067ffffffffffffffff821115613c9657613c956136ca565b5b602082029050602081019050919050565b600080fd5b6000613cbf613cba84613c7b565b61372a565b90508083825260208201905060208402830185811115613ce257613ce1613ca7565b5b835b81811015613d0b5780613cf78882613910565b845260208401935050602081019050613ce4565b5050509392505050565b600082601f830112613d2a57613d296136c0565b5b8135613d3a848260208601613cac565b91505092915050565b60008060408385031215613d5a57613d596130f6565b5b600083013567ffffffffffffffff811115613d7857613d776130fb565b5b613d8485828601613d15565b9250506020613d9585828601613910565b9150509250929050565b600060c082019050613db4600083018961383e565b8181036020830152613dc6818861385e565b90508181036040830152613dda818761385e565b90508181036060830152613dee818661385e565b9050613dfd608083018561383e565b613e0a60a0830184613897565b979650505050505050565b600082825260208201905092915050565b6000613e3182613327565b613e3b8185613e15565b9350613e4683613343565b8060005b83811015613e77578151613e5e8882613353565b9750613e698361336b565b925050600181019050613e4a565b5085935050505092915050565b60006020820190508181036000830152613e9e8184613e26565b905092915050565b6000602082019050613ebb6000830184613897565b92915050565b7f4e487b7100000000000000000000000000000000000000000000000000000000600052601160045260246000fd5b6000613efb82613100565b9150613f0683613100565b925082821015613f1957613f18613ec1565b5b828203905092915050565b7f4e487b7100000000000000000000000000000000000000000000000000000000600052603260045260246000fd5b6000613f5e82613100565b91507fffffffffffffffffffffffffffffffffffffffffffffffffffffffffffffffff8203613f9057613f8f613ec1565b5b600182019050919050565b7f4e487b7100000000000000000000000000000000000000000000000000000000600052602260045260246000fd5b60006002820490506001821680613fe257607f821691505b602082108103613ff557613ff4613f9b565b5b50919050565b60008190508160005260206000209050919050565b60006020601f8301049050919050565b600082821b905092915050565b60006008830261405d7fffffffffffffffffffffffffffffffffffffffffffffffffffffffffffffffff82614020565b6140678683614020565b95508019841693508086168417925050509392505050565b6000819050919050565b60006140a461409f61409a84613100565b61407f565b613100565b9050919050565b6000819050919050565b6140be83614089565b6140d26140ca826140ab565b84845461402d565b825550505050565b600090565b6140e76140da565b6140f28184846140b5565b505050565b5b818110156141165761410b6000826140df565b6001810190506140f8565b5050565b601f82111561415b5761412c81613ffb565b61413584614010565b81016020851015614144578190505b61415861415085614010565b8301826140f7565b50505b505050565b600082821c905092915050565b600061417e60001984600802614160565b1980831691505092915050565b6000614197838361416d565b9150826002028217905092915050565b6141b08261319e565b67ffffffffffffffff8111156141c9576141c86136ca565b5b6141d38254613fca565b6141de82828561411a565b600060209050601f83116001811461421157600084156141ff578287015190505b614209858261418b565b865550614271565b601f19841661421f86613ffb565b60005b8281101561424757848901518255600182019150602085019450602081019050614222565b868310156142645784890151614260601f89168261416d565b8355505b6001600288020188555050505b505050505050565b600061428482613100565b915061428f83613100565b9250827fffffffffffffffffffffffffffffffffffffffffffffffffffffffffffffffff038211156142c4576142c3613ec1565b5b828201905092915050565b600081905092915050565b60006142e58261319e565b6142ef81856142cf565b93506142ff8185602086016131ba565b80840191505092915050565b600061431782846142da565b91508190509291505056fea2646970667358221220a5dc5a812ab1c5b00e3c6e2f864889991ee50fec0f602d6339f931481a95cb9964736f6c634300080f0033",
  "immutableReferences": {},
  "source": "// SPDX-License-Identifier: MIT\npragma solidity >=0.4.22 <0.9.0;\n\nimport \"./Videos.sol\";\n\ncontract Comments is Videos {\n    //  -------------------- Comment functions ---------------------:\n\n    function addComment(uint256 _videoId, string memory _commentMessag) public {\n        require(userId[msg.sender] != 0);\n        uint256 _commentId = videos[_videoId].commentsIds.length + 1;\n\n        comment storage _comment = videoComments[_videoId][_commentId];\n        _comment.id = _commentId;\n        _comment.owner = msg.sender;\n        _comment.comment = _commentMessag;\n        _comment.timestamp = block.timestamp;\n        videos[_videoId].commentsIds.push(_commentId);\n    }\n\n    function getVideoComment(uint256 _videoId, uint256 _commentId)\n        public\n        view\n        returns (comment memory)\n    {\n        return videoComments[_videoId][_commentId];\n    }\n\n    function deletComment(uint256 _videoId, uint256 _commentId) public {\n        require(userId[msg.sender] != 0);\n        require(\n            videoComments[_videoId][_commentId].owner == msg.sender ||\n                videos[_videoId].owner == msg.sender\n        );\n\n        delete (videoComments[_videoId][_commentId]);\n        for (uint256 i = 0; i < videos[_videoId].commentsIds.length; i++) {\n            if (videos[_videoId].commentsIds[i] == _commentId) {\n                delete (videos[_videoId].commentsIds[i]);\n            }\n        }\n    }\n\n    function likeComment(uint256 _videoId, uint256 _commentId) public {\n        require(userId[msg.sender] != 0);\n        uint256 _LikesIndex = _alreadyReact(\n            videoComments[_videoId][_commentId].likes,\n            msg.sender\n        );\n        uint256 _DislikeIndex = _alreadyReact(\n            videoComments[_videoId][_commentId].dislike,\n            msg.sender\n        );\n\n        if (_LikesIndex == 0) {\n            videoComments[_videoId][_commentId].likes.push(msg.sender);\n            if (_DislikeIndex > 0) {\n                delete (\n                    videoComments[_videoId][_commentId].dislike[\n                        _DislikeIndex - 1\n                    ]\n                );\n            }\n        } else {\n            delete (videoComments[_videoId][_commentId].likes[_LikesIndex - 1]);\n        }\n    }\n\n    function dislikeComment(uint256 _videoId, uint256 _commentId) public {\n       require(userId[msg.sender] != 0);\n        uint256 _LikesIndex = _alreadyReact(\n            videoComments[_videoId][_commentId].likes,\n            msg.sender\n        );\n        uint256 _DislikeIndex = _alreadyReact(\n            videoComments[_videoId][_commentId].dislike,\n            msg.sender\n        );\n\n        if (_DislikeIndex == 0) {\n            videoComments[_videoId][_commentId].dislike.push(msg.sender);\n            if (_LikesIndex > 0) {\n                delete (\n                    videoComments[_videoId][_commentId].likes[\n                        _LikesIndex - 1\n                    ]\n                );\n            }\n        } else {\n            delete (videoComments[_videoId][_commentId].dislike[_DislikeIndex - 1]);\n        }\n\n      \n    }\n}\n",
  "sourcePath": "C:\\Users\\hamza\\Desktop\\web3-tasks\\11_Youtube_web3\\contracts\\Comments.sol",
  "compiler": {
    "name": "solc",
    "version": "0.8.15+commit.e14f2714.Emscripten.clang"
  },
  "schemaVersion": "3.4.8",
  "updatedAt": "2022-08-21T19:51:59.335Z",
  "networkType": "ethereum",
  "devdoc": {
    "kind": "dev",
    "methods": {},
    "version": 1
  },
  "userdoc": {
    "kind": "user",
    "methods": {},
    "version": 1
  }
}