{
  "contractName": "Replys",
  "abi": [
    {
      "inputs": [
        {
          "internalType": "address[]",
          "name": "_interactors",
          "type": "address[]"
        },
        {
          "internalType": "address",
          "name": "_owner",
          "type": "address"
        }
      ],
      "name": "_alreadyReact",
      "outputs": [
        {
          "internalType": "uint256",
          "name": "_indexOfOwner",
          "type": "uint256"
        }
      ],
      "stateMutability": "pure",
      "type": "function",
      "constant": true
    },
    {
      "inputs": [
        {
          "internalType": "uint256",
          "name": "_videoId",
          "type": "uint256"
        },
        {
          "internalType": "string",
          "name": "_commentMessag",
          "type": "string"
        }
      ],
      "name": "addComment",
      "outputs": [],
      "stateMutability": "nonpayable",
      "type": "function"
    },
    {
      "inputs": [],
      "name": "admin",
      "outputs": [
        {
          "internalType": "address",
          "name": "",
          "type": "address"
        }
      ],
      "stateMutability": "view",
      "type": "function",
      "constant": true
    },
    {
      "inputs": [
        {
          "internalType": "uint256",
          "name": "_videoId",
          "type": "uint256"
        },
        {
          "internalType": "uint256",
          "name": "_commentId",
          "type": "uint256"
        }
      ],
      "name": "deletComment",
      "outputs": [],
      "stateMutability": "nonpayable",
      "type": "function"
    },
    {
      "inputs": [
        {
          "internalType": "uint256",
          "name": "_videoId",
          "type": "uint256"
        }
      ],
      "name": "deleteVideo",
      "outputs": [],
      "stateMutability": "nonpayable",
      "type": "function"
    },
    {
      "inputs": [
        {
          "internalType": "uint256",
          "name": "_videoId",
          "type": "uint256"
        },
        {
          "internalType": "uint256",
          "name": "_commentId",
          "type": "uint256"
        }
      ],
      "name": "dislikeComment",
      "outputs": [],
      "stateMutability": "nonpayable",
      "type": "function"
    },
    {
      "inputs": [
        {
          "internalType": "uint256",
          "name": "_videoId",
          "type": "uint256"
        }
      ],
      "name": "dislikeVideo",
      "outputs": [],
      "stateMutability": "nonpayable",
      "type": "function"
    },
    {
      "inputs": [
        {
          "internalType": "string",
          "name": "_Hash",
          "type": "string"
        },
        {
          "internalType": "string",
          "name": "_Tayp",
          "type": "string"
        },
        {
          "internalType": "string",
          "name": "_title",
          "type": "string"
        }
      ],
      "name": "downloadVideo",
      "outputs": [],
      "stateMutability": "nonpayable",
      "type": "function"
    },
    {
      "inputs": [],
      "name": "functionPublic",
      "outputs": [
        {
          "internalType": "uint256[]",
          "name": "",
          "type": "uint256[]"
        }
      ],
      "stateMutability": "pure",
      "type": "function",
      "constant": true
    },
    {
      "inputs": [
        {
          "internalType": "string",
          "name": "_videoType",
          "type": "string"
        }
      ],
      "name": "getAllVideoByType",
      "outputs": [
        {
          "components": [
            {
              "internalType": "uint256",
              "name": "id",
              "type": "uint256"
            },
            {
              "internalType": "string",
              "name": "videoHash",
              "type": "string"
            },
            {
              "internalType": "string",
              "name": "videoTayp",
              "type": "string"
            },
            {
              "internalType": "string",
              "name": "videoTitle",
              "type": "string"
            },
            {
              "internalType": "uint256",
              "name": "timestamp",
              "type": "uint256"
            },
            {
              "internalType": "address",
              "name": "owner",
              "type": "address"
            },
            {
              "internalType": "address[]",
              "name": "likes",
              "type": "address[]"
            },
            {
              "internalType": "address[]",
              "name": "dislike",
              "type": "address[]"
            },
            {
              "internalType": "uint256[]",
              "name": "commentsIds",
              "type": "uint256[]"
            }
          ],
          "internalType": "struct YoutubeData.video[]",
          "name": "",
          "type": "tuple[]"
        }
      ],
      "stateMutability": "view",
      "type": "function",
      "constant": true
    },
    {
      "inputs": [],
      "name": "getAllVideos",
      "outputs": [
        {
          "components": [
            {
              "internalType": "uint256",
              "name": "id",
              "type": "uint256"
            },
            {
              "internalType": "string",
              "name": "videoHash",
              "type": "string"
            },
            {
              "internalType": "string",
              "name": "videoTayp",
              "type": "string"
            },
            {
              "internalType": "string",
              "name": "videoTitle",
              "type": "string"
            },
            {
              "internalType": "uint256",
              "name": "timestamp",
              "type": "uint256"
            },
            {
              "internalType": "address",
              "name": "owner",
              "type": "address"
            },
            {
              "internalType": "address[]",
              "name": "likes",
              "type": "address[]"
            },
            {
              "internalType": "address[]",
              "name": "dislike",
              "type": "address[]"
            },
            {
              "internalType": "uint256[]",
              "name": "commentsIds",
              "type": "uint256[]"
            }
          ],
          "internalType": "struct YoutubeData.video[]",
          "name": "",
          "type": "tuple[]"
        }
      ],
      "stateMutability": "view",
      "type": "function",
      "constant": true
    },
    {
      "inputs": [
        {
          "internalType": "address",
          "name": "_userAddress",
          "type": "address"
        }
      ],
      "name": "getUserByAddress",
      "outputs": [
        {
          "components": [
            {
              "internalType": "uint256",
              "name": "id",
              "type": "uint256"
            },
            {
              "internalType": "string",
              "name": "userName",
              "type": "string"
            },
            {
              "internalType": "address",
              "name": "userAddress",
              "type": "address"
            },
            {
              "internalType": "string",
              "name": "profileImag",
              "type": "string"
            },
            {
              "internalType": "uint256[]",
              "name": "userVideos",
              "type": "uint256[]"
            },
            {
              "internalType": "uint256[]",
              "name": "videoSaved",
              "type": "uint256[]"
            }
          ],
          "internalType": "struct YoutubeData.user",
          "name": "",
          "type": "tuple"
        }
      ],
      "stateMutability": "view",
      "type": "function",
      "constant": true
    },
    {
      "inputs": [
        {
          "internalType": "uint256",
          "name": "_userId",
          "type": "uint256"
        }
      ],
      "name": "getUserById",
      "outputs": [
        {
          "components": [
            {
              "internalType": "uint256",
              "name": "id",
              "type": "uint256"
            },
            {
              "internalType": "string",
              "name": "userName",
              "type": "string"
            },
            {
              "internalType": "address",
              "name": "userAddress",
              "type": "address"
            },
            {
              "internalType": "string",
              "name": "profileImag",
              "type": "string"
            },
            {
              "internalType": "uint256[]",
              "name": "userVideos",
              "type": "uint256[]"
            },
            {
              "internalType": "uint256[]",
              "name": "videoSaved",
              "type": "uint256[]"
            }
          ],
          "internalType": "struct YoutubeData.user",
          "name": "",
          "type": "tuple"
        }
      ],
      "stateMutability": "view",
      "type": "function",
      "constant": true
    },
    {
      "inputs": [
        {
          "internalType": "address",
          "name": "_userAddress",
          "type": "address"
        }
      ],
      "name": "getUserVideosByAddress",
      "outputs": [
        {
          "components": [
            {
              "internalType": "uint256",
              "name": "id",
              "type": "uint256"
            },
            {
              "internalType": "string",
              "name": "videoHash",
              "type": "string"
            },
            {
              "internalType": "string",
              "name": "videoTayp",
              "type": "string"
            },
            {
              "internalType": "string",
              "name": "videoTitle",
              "type": "string"
            },
            {
              "internalType": "uint256",
              "name": "timestamp",
              "type": "uint256"
            },
            {
              "internalType": "address",
              "name": "owner",
              "type": "address"
            },
            {
              "internalType": "address[]",
              "name": "likes",
              "type": "address[]"
            },
            {
              "internalType": "address[]",
              "name": "dislike",
              "type": "address[]"
            },
            {
              "internalType": "uint256[]",
              "name": "commentsIds",
              "type": "uint256[]"
            }
          ],
          "internalType": "struct YoutubeData.video[]",
          "name": "",
          "type": "tuple[]"
        }
      ],
      "stateMutability": "view",
      "type": "function",
      "constant": true
    },
    {
      "inputs": [
        {
          "internalType": "uint256",
          "name": "_userId",
          "type": "uint256"
        }
      ],
      "name": "getUserVideosById",
      "outputs": [
        {
          "components": [
            {
              "internalType": "uint256",
              "name": "id",
              "type": "uint256"
            },
            {
              "internalType": "string",
              "name": "videoHash",
              "type": "string"
            },
            {
              "internalType": "string",
              "name": "videoTayp",
              "type": "string"
            },
            {
              "internalType": "string",
              "name": "videoTitle",
              "type": "string"
            },
            {
              "internalType": "uint256",
              "name": "timestamp",
              "type": "uint256"
            },
            {
              "internalType": "address",
              "name": "owner",
              "type": "address"
            },
            {
              "internalType": "address[]",
              "name": "likes",
              "type": "address[]"
            },
            {
              "internalType": "address[]",
              "name": "dislike",
              "type": "address[]"
            },
            {
              "internalType": "uint256[]",
              "name": "commentsIds",
              "type": "uint256[]"
            }
          ],
          "internalType": "struct YoutubeData.video[]",
          "name": "",
          "type": "tuple[]"
        }
      ],
      "stateMutability": "view",
      "type": "function",
      "constant": true
    },
    {
      "inputs": [
        {
          "internalType": "uint256",
          "name": "_VideoId",
          "type": "uint256"
        }
      ],
      "name": "getVideo",
      "outputs": [
        {
          "components": [
            {
              "internalType": "uint256",
              "name": "id",
              "type": "uint256"
            },
            {
              "internalType": "string",
              "name": "videoHash",
              "type": "string"
            },
            {
              "internalType": "string",
              "name": "videoTayp",
              "type": "string"
            },
            {
              "internalType": "string",
              "name": "videoTitle",
              "type": "string"
            },
            {
              "internalType": "uint256",
              "name": "timestamp",
              "type": "uint256"
            },
            {
              "internalType": "address",
              "name": "owner",
              "type": "address"
            },
            {
              "internalType": "address[]",
              "name": "likes",
              "type": "address[]"
            },
            {
              "internalType": "address[]",
              "name": "dislike",
              "type": "address[]"
            },
            {
              "internalType": "uint256[]",
              "name": "commentsIds",
              "type": "uint256[]"
            }
          ],
          "internalType": "struct YoutubeData.video",
          "name": "",
          "type": "tuple"
        }
      ],
      "stateMutability": "view",
      "type": "function",
      "constant": true
    },
    {
      "inputs": [
        {
          "internalType": "uint256",
          "name": "_videoId",
          "type": "uint256"
        },
        {
          "internalType": "uint256",
          "name": "_commentId",
          "type": "uint256"
        }
      ],
      "name": "getVideoComment",
      "outputs": [
        {
          "components": [
            {
              "internalType": "uint256",
              "name": "id",
              "type": "uint256"
            },
            {
              "internalType": "address",
              "name": "owner",
              "type": "address"
            },
            {
              "internalType": "string",
              "name": "comment",
              "type": "string"
            },
            {
              "internalType": "uint256",
              "name": "timestamp",
              "type": "uint256"
            },
            {
              "internalType": "address[]",
              "name": "likes",
              "type": "address[]"
            },
            {
              "internalType": "address[]",
              "name": "dislike",
              "type": "address[]"
            },
            {
              "internalType": "uint256[]",
              "name": "repliesIds",
              "type": "uint256[]"
            }
          ],
          "internalType": "struct YoutubeData.comment",
          "name": "",
          "type": "tuple"
        }
      ],
      "stateMutability": "view",
      "type": "function",
      "constant": true
    },
    {
      "inputs": [
        {
          "internalType": "uint256",
          "name": "_videoId",
          "type": "uint256"
        },
        {
          "internalType": "uint256",
          "name": "_commentId",
          "type": "uint256"
        }
      ],
      "name": "likeComment",
      "outputs": [],
      "stateMutability": "nonpayable",
      "type": "function"
    },
    {
      "inputs": [
        {
          "internalType": "uint256",
          "name": "_videoId",
          "type": "uint256"
        }
      ],
      "name": "likeVideo",
      "outputs": [],
      "stateMutability": "nonpayable",
      "type": "function"
    },
    {
      "inputs": [
        {
          "internalType": "string",
          "name": "_userName",
          "type": "string"
        },
        {
          "internalType": "string",
          "name": "_profileImag",
          "type": "string"
        }
      ],
      "name": "signUp",
      "outputs": [],
      "stateMutability": "nonpayable",
      "type": "function"
    },
    {
      "inputs": [
        {
          "internalType": "address",
          "name": "",
          "type": "address"
        }
      ],
      "name": "userId",
      "outputs": [
        {
          "internalType": "uint256",
          "name": "",
          "type": "uint256"
        }
      ],
      "stateMutability": "view",
      "type": "function",
      "constant": true
    },
    {
      "inputs": [
        {
          "internalType": "uint256",
          "name": "",
          "type": "uint256"
        }
      ],
      "name": "users",
      "outputs": [
        {
          "internalType": "uint256",
          "name": "id",
          "type": "uint256"
        },
        {
          "internalType": "string",
          "name": "userName",
          "type": "string"
        },
        {
          "internalType": "address",
          "name": "userAddress",
          "type": "address"
        },
        {
          "internalType": "string",
          "name": "profileImag",
          "type": "string"
        }
      ],
      "stateMutability": "view",
      "type": "function",
      "constant": true
    },
    {
      "inputs": [],
      "name": "usersCount",
      "outputs": [
        {
          "internalType": "uint256",
          "name": "",
          "type": "uint256"
        }
      ],
      "stateMutability": "view",
      "type": "function",
      "constant": true
    },
    {
      "inputs": [
        {
          "internalType": "uint256",
          "name": "",
          "type": "uint256"
        }
      ],
      "name": "videos",
      "outputs": [
        {
          "internalType": "uint256",
          "name": "id",
          "type": "uint256"
        },
        {
          "internalType": "string",
          "name": "videoHash",
          "type": "string"
        },
        {
          "internalType": "string",
          "name": "videoTayp",
          "type": "string"
        },
        {
          "internalType": "string",
          "name": "videoTitle",
          "type": "string"
        },
        {
          "internalType": "uint256",
          "name": "timestamp",
          "type": "uint256"
        },
        {
          "internalType": "address",
          "name": "owner",
          "type": "address"
        }
      ],
      "stateMutability": "view",
      "type": "function",
      "constant": true
    },
    {
      "inputs": [],
      "name": "videosCount",
      "outputs": [
        {
          "internalType": "uint256",
          "name": "",
          "type": "uint256"
        }
      ],
      "stateMutability": "view",
      "type": "function",
      "constant": true
    },
    {
      "inputs": [
        {
          "internalType": "uint256",
          "name": "_videoId",
          "type": "uint256"
        },
        {
          "internalType": "uint256",
          "name": "_commentId",
          "type": "uint256"
        },
        {
          "internalType": "string",
          "name": "_replyComent",
          "type": "string"
        }
      ],
      "name": "addReply",
      "outputs": [],
      "stateMutability": "nonpayable",
      "type": "function"
    },
    {
      "inputs": [
        {
          "internalType": "uint256",
          "name": "_videoId",
          "type": "uint256"
        },
        {
          "internalType": "uint256",
          "name": "_commentId",
          "type": "uint256"
        },
        {
          "internalType": "uint256",
          "name": "_replyId",
          "type": "uint256"
        }
      ],
      "name": "getCommentReply",
      "outputs": [
        {
          "components": [
            {
              "internalType": "uint256",
              "name": "id",
              "type": "uint256"
            },
            {
              "internalType": "address",
              "name": "owner",
              "type": "address"
            },
            {
              "internalType": "string",
              "name": "reply",
              "type": "string"
            },
            {
              "internalType": "uint256",
              "name": "timestamp",
              "type": "uint256"
            },
            {
              "internalType": "address[]",
              "name": "likes",
              "type": "address[]"
            },
            {
              "internalType": "address[]",
              "name": "dislike",
              "type": "address[]"
            }
          ],
          "internalType": "struct YoutubeData.reply",
          "name": "",
          "type": "tuple"
        }
      ],
      "stateMutability": "view",
      "type": "function",
      "constant": true
    },
    {
      "inputs": [
        {
          "internalType": "uint256",
          "name": "_videoId",
          "type": "uint256"
        },
        {
          "internalType": "uint256",
          "name": "_commentId",
          "type": "uint256"
        },
        {
          "internalType": "uint256",
          "name": "_replyId",
          "type": "uint256"
        }
      ],
      "name": "deletReply",
      "outputs": [],
      "stateMutability": "nonpayable",
      "type": "function"
    },
    {
      "inputs": [
        {
          "internalType": "uint256",
          "name": "_videoId",
          "type": "uint256"
        },
        {
          "internalType": "uint256",
          "name": "_commentId",
          "type": "uint256"
        },
        {
          "internalType": "uint256",
          "name": "_replyId",
          "type": "uint256"
        }
      ],
      "name": "likeReply",
      "outputs": [],
      "stateMutability": "nonpayable",
      "type": "function"
    },
    {
      "inputs": [
        {
          "internalType": "uint256",
          "name": "_videoId",
          "type": "uint256"
        },
        {
          "internalType": "uint256",
          "name": "_commentId",
          "type": "uint256"
        },
        {
          "internalType": "uint256",
          "name": "_replyId",
          "type": "uint256"
        }
      ],
      "name": "dislikeReply",
      "outputs": [],
      "stateMutability": "nonpayable",
      "type": "function"
    }
  ],
  "bytecode": "0x608060405234801561001057600080fd5b50336000806101000a81548173ffffffffffffffffffffffffffffffffffffffff021916908373ffffffffffffffffffffffffffffffffffffffff160217905550615433806100606000396000f3fe608060405234801561001057600080fd5b50600436106101da5760003560e01c8063a0e9182111610104578063d4ab873e116100a2578063e9c4cc9411610071578063e9c4cc941461059f578063ef08523b146105bd578063f851a440146105db578063ffa36aca146105f9576101da565b8063d4ab873e14610516578063d7b551fb14610532578063e6821bf51461054e578063e90cb63514610583576101da565b8063aa7e5683116100de578063aa7e568314610490578063b2f46439146104ac578063c38e3434146104dc578063d2170f5a146104fa576101da565b8063a0e918211461043c578063a10aac4114610458578063a469a33214610474576101da565b8063365b98b21161017c57806369c212f61161014b57806369c212f61461038e5780636ba13a82146103be5780636ed6da9e146103dc5780638e8cde211461040c576101da565b8063365b98b2146102f3578063376fe1021461032657806337f4405b1461035657806339229b9314610372576101da565b8063232cfae1116101b8578063232cfae11461024757806327260d5c146102775780632893eca2146102935780632e7ee11e146102c3576101da565b80630746bfe5146101df5780630aeec1a1146101fb578063178166b01461022b575b600080fd5b6101f960048036038101906101f49190614096565b610629565b005b61021560048036038101906102109190614096565b6108cf565b60405161022291906144b4565b60405180910390f35b610245600480360381019061024091906144d6565b6109c6565b005b610261600480360381019061025c9190614516565b610c47565b60405161026e9190614600565b60405180910390f35b610291600480360381019061028c9190614096565b610eb0565b005b6102ad60048036038101906102a89190614096565b6111a2565b6040516102ba919061470a565b60405180910390f35b6102dd60048036038101906102d89190614861565b611564565b6040516102ea91906144b4565b60405180910390f35b61030d60048036038101906103089190614096565b61163d565b60405161031d9493929190614912565b60405180910390f35b610340600480360381019061033b9190614991565b61179d565b60405161034d91906149be565b60405180910390f35b610370600480360381019061036b91906149d9565b6117b5565b005b61038c60048036038101906103879190614a48565b611931565b005b6103a860048036038101906103a39190614991565b611abf565b6040516103b59190614b8d565b60405180910390f35b6103c6611d65565b6040516103d391906149be565b60405180910390f35b6103f660048036038101906103f19190614096565b611d6b565b6040516104039190614b8d565b60405180910390f35b610426600480360381019061042191906144d6565b611fcc565b6040516104339190614c60565b60405180910390f35b610456600480360381019061045191906144d6565b61227b565b005b610472600480360381019061046d91906144d6565b6125c3565b005b61048e60048036038101906104899190614c82565b61290b565b005b6104aa60048036038101906104a59190614cfa565b612a45565b005b6104c660048036038101906104c19190614e1e565b612b8d565b6040516104d391906149be565b60405180910390f35b6104e4612c1c565b6040516104f191906144b4565b60405180910390f35b610514600480360381019061050f9190614516565b612cdc565b005b610530600480360381019061052b9190614096565b612fc8565b005b61054c60048036038101906105479190614516565b61324b565b005b61056860048036038101906105639190614096565b6135e9565b60405161057a96959493929190614e7a565b60405180910390f35b61059d60048036038101906105989190614516565b6137dd565b005b6105a7613b7b565b6040516105b49190614f5f565b60405180910390f35b6105c5613b85565b6040516105d291906149be565b60405180910390f35b6105e3613b8b565b6040516105f09190614f81565b60405180910390f35b610613600480360381019061060e9190614991565b613baf565b60405161062091906144b4565b60405180910390f35b60006106cf600560008481526020019081526020016000206006018054806020026020016040519081016040528092919081815260200182805480156106c457602002820191906000526020600020905b8160009054906101000a900473ffffffffffffffffffffffffffffffffffffffff1673ffffffffffffffffffffffffffffffffffffffff168152602001906001019080831161067a575b505050505033612b8d565b905060006107776005600085815260200190815260200160002060070180548060200260200160405190810160405280929190818152602001828054801561076c57602002820191906000526020600020905b8160009054906101000a900473ffffffffffffffffffffffffffffffffffffffff1673ffffffffffffffffffffffffffffffffffffffff1681526020019060010190808311610722575b505050505033612b8d565b9050600081036108685760056000848152602001908152602001600020600701339080600181540180825580915050600190039060005260206000200160009091909190916101000a81548173ffffffffffffffffffffffffffffffffffffffff021916908373ffffffffffffffffffffffffffffffffffffffff160217905550600082111561086357600560008481526020019081526020016000206006016001836108249190614fcb565b8154811061083557610834614fff565b5b9060005260206000200160006101000a81549073ffffffffffffffffffffffffffffffffffffffff02191690555b6108ca565b6005600084815260200190815260200160002060070160018261088b9190614fcb565b8154811061089c5761089b614fff565b5b9060005260206000200160006101000a81549073ffffffffffffffffffffffffffffffffffffffff02191690555b505050565b606060006108dc83611d6b565b90506000816080015151116108f057600080fd5b600081608001515167ffffffffffffffff81111561091157610910614736565b5b60405190808252806020026020018201604052801561094a57816020015b610937613e60565b81526020019060019003908161092f5790505b50905060005b8260800151518110156109bb5760006109868460800151838151811061097957610978614fff565b5b60200260200101516111a2565b90508083838151811061099c5761099b614fff565b5b60200260200101819052505080806109b39061502e565b915050610950565b508092505050919050565b6000600360003373ffffffffffffffffffffffffffffffffffffffff1673ffffffffffffffffffffffffffffffffffffffff1681526020019081526020016000205403610a1257600080fd5b3373ffffffffffffffffffffffffffffffffffffffff1660066000848152602001908152602001600020600083815260200190815260200160002060010160009054906101000a900473ffffffffffffffffffffffffffffffffffffffff1673ffffffffffffffffffffffffffffffffffffffff161480610af457503373ffffffffffffffffffffffffffffffffffffffff166005600084815260200190815260200160002060050160009054906101000a900473ffffffffffffffffffffffffffffffffffffffff1673ffffffffffffffffffffffffffffffffffffffff16145b610afd57600080fd5b6006600083815260200190815260200160002060008281526020019081526020016000206000808201600090556001820160006101000a81549073ffffffffffffffffffffffffffffffffffffffff0219169055600282016000610b619190613ec2565b6003820160009055600482016000610b799190613f02565b600582016000610b899190613f02565b600682016000610b999190613f23565b505060005b6005600084815260200190815260200160002060080180549050811015610c425781600560008581526020019081526020016000206008018281548110610be857610be7614fff565b5b906000526020600020015403610c2f57600560008481526020019081526020016000206008018181548110610c2057610c1f614fff565b5b90600052602060002001600090555b8080610c3a9061502e565b915050610b9e565b505050565b610c4f613f44565b60076000858152602001908152602001600020600084815260200190815260200160002060008381526020019081526020016000206040518060c0016040529081600082015481526020016001820160009054906101000a900473ffffffffffffffffffffffffffffffffffffffff1673ffffffffffffffffffffffffffffffffffffffff1673ffffffffffffffffffffffffffffffffffffffff168152602001600282018054610cff906150a5565b80601f0160208091040260200160405190810160405280929190818152602001828054610d2b906150a5565b8015610d785780601f10610d4d57610100808354040283529160200191610d78565b820191906000526020600020905b815481529060010190602001808311610d5b57829003601f168201915b505050505081526020016003820154815260200160048201805480602002602001604051908101604052809291908181526020018280548015610e1057602002820191906000526020600020905b8160009054906101000a900473ffffffffffffffffffffffffffffffffffffffff1673ffffffffffffffffffffffffffffffffffffffff1681526020019060010190808311610dc6575b5050505050815260200160058201805480602002602001604051908101604052809291908181526020018280548015610e9e57602002820191906000526020600020905b8160009054906101000a900473ffffffffffffffffffffffffffffffffffffffff1673ffffffffffffffffffffffffffffffffffffffff1681526020019060010190808311610e54575b50505050508152505090509392505050565b6000600360003373ffffffffffffffffffffffffffffffffffffffff1673ffffffffffffffffffffffffffffffffffffffff1681526020019081526020016000205403610efc57600080fd5b6000610fa260056000848152602001908152602001600020600601805480602002602001604051908101604052809291908181526020018280548015610f9757602002820191906000526020600020905b8160009054906101000a900473ffffffffffffffffffffffffffffffffffffffff1673ffffffffffffffffffffffffffffffffffffffff1681526020019060010190808311610f4d575b505050505033612b8d565b9050600061104a6005600085815260200190815260200160002060070180548060200260200160405190810160405280929190818152602001828054801561103f57602002820191906000526020600020905b8160009054906101000a900473ffffffffffffffffffffffffffffffffffffffff1673ffffffffffffffffffffffffffffffffffffffff1681526020019060010190808311610ff5575b505050505033612b8d565b90506000820361113b5760056000848152602001908152602001600020600601339080600181540180825580915050600190039060005260206000200160009091909190916101000a81548173ffffffffffffffffffffffffffffffffffffffff021916908373ffffffffffffffffffffffffffffffffffffffff160217905550600081111561113657600560008481526020019081526020016000206007016001826110f79190614fcb565b8154811061110857611107614fff565b5b9060005260206000200160006101000a81549073ffffffffffffffffffffffffffffffffffffffff02191690555b61119d565b6005600084815260200190815260200160002060060160018361115e9190614fcb565b8154811061116f5761116e614fff565b5b9060005260206000200160006101000a81549073ffffffffffffffffffffffffffffffffffffffff02191690555b505050565b6111aa613e60565b6005600083815260200190815260200160002060405180610120016040529081600082015481526020016001820180546111e3906150a5565b80601f016020809104026020016040519081016040528092919081815260200182805461120f906150a5565b801561125c5780601f106112315761010080835404028352916020019161125c565b820191906000526020600020905b81548152906001019060200180831161123f57829003601f168201915b50505050508152602001600282018054611275906150a5565b80601f01602080910402602001604051908101604052809291908181526020018280546112a1906150a5565b80156112ee5780601f106112c3576101008083540402835291602001916112ee565b820191906000526020600020905b8154815290600101906020018083116112d157829003601f168201915b50505050508152602001600382018054611307906150a5565b80601f0160208091040260200160405190810160405280929190818152602001828054611333906150a5565b80156113805780601f1061135557610100808354040283529160200191611380565b820191906000526020600020905b81548152906001019060200180831161136357829003601f168201915b50505050508152602001600482015481526020016005820160009054906101000a900473ffffffffffffffffffffffffffffffffffffffff1673ffffffffffffffffffffffffffffffffffffffff1673ffffffffffffffffffffffffffffffffffffffff1681526020016006820180548060200260200160405190810160405280929190818152602001828054801561146e57602002820191906000526020600020905b8160009054906101000a900473ffffffffffffffffffffffffffffffffffffffff1673ffffffffffffffffffffffffffffffffffffffff1681526020019060010190808311611424575b50505050508152602001600782018054806020026020016040519081016040528092919081815260200182805480156114fc57602002820191906000526020600020905b8160009054906101000a900473ffffffffffffffffffffffffffffffffffffffff1673ffffffffffffffffffffffffffffffffffffffff16815260200190600101908083116114b2575b505050505081526020016008820180548060200260200160405190810160405280929190818152602001828054801561155457602002820191906000526020600020905b815481526020019060010190808311611540575b5050505050815250509050919050565b6060600061157183613ca6565b90506000815167ffffffffffffffff8111156115905761158f614736565b5b6040519080825280602002602001820160405280156115c957816020015b6115b6613e60565b8152602001906001900390816115ae5790505b50905060005b82518110156116325760006115fd8483815181106115f0576115ef614fff565b5b60200260200101516111a2565b90508083838151811061161357611612614fff565b5b602002602001018190525050808061162a9061502e565b9150506115cf565b508092505050919050565b6004602052806000526040600020600091509050806000015490806001018054611666906150a5565b80601f0160208091040260200160405190810160405280929190818152602001828054611692906150a5565b80156116df5780601f106116b4576101008083540402835291602001916116df565b820191906000526020600020905b8154815290600101906020018083116116c257829003601f168201915b5050505050908060020160009054906101000a900473ffffffffffffffffffffffffffffffffffffffff169080600301805461171a906150a5565b80601f0160208091040260200160405190810160405280929190818152602001828054611746906150a5565b80156117935780601f1061176857610100808354040283529160200191611793565b820191906000526020600020905b81548152906001019060200180831161177657829003601f168201915b5050505050905084565b60036020528060005260406000206000915090505481565b6000600360003373ffffffffffffffffffffffffffffffffffffffff1673ffffffffffffffffffffffffffffffffffffffff168152602001908152602001600020540361180157600080fd5b600060016006600086815260200190815260200160002060008581526020019081526020016000206006018054905061183a91906150d6565b9050600060076000868152602001908152602001600020600085815260200190815260200160002060008381526020019081526020016000209050818160000181905550338160010160006101000a81548173ffffffffffffffffffffffffffffffffffffffff021916908373ffffffffffffffffffffffffffffffffffffffff160217905550828160020190816118d291906152d8565b504281600301819055506006600086815260200190815260200160002060008581526020019081526020016000206006018290806001815401808255809150506001900390600052602060002001600090919091909150555050505050565b6000600360003373ffffffffffffffffffffffffffffffffffffffff1673ffffffffffffffffffffffffffffffffffffffff168152602001908152602001600020540361197d57600080fd5b600260008154809291906119909061502e565b9190505550600060056000600254815260200190815260200160002090506002548160000181905550838160010190816119ca91906152d8565b50828160020190816119dc91906152d8565b50818160030190816119ee91906152d8565b50428160040181905550338160050160006101000a81548173ffffffffffffffffffffffffffffffffffffffff021916908373ffffffffffffffffffffffffffffffffffffffff16021790555060046000600360003373ffffffffffffffffffffffffffffffffffffffff1673ffffffffffffffffffffffffffffffffffffffff168152602001908152602001600020548152602001908152602001600020600401600254908060018154018082558091505060019003906000526020600020016000909190919091505550505050565b611ac7613f90565b6000600360008473ffffffffffffffffffffffffffffffffffffffff1673ffffffffffffffffffffffffffffffffffffffff168152602001908152602001600020549050600460008281526020019081526020016000206040518060c001604052908160008201548152602001600182018054611b43906150a5565b80601f0160208091040260200160405190810160405280929190818152602001828054611b6f906150a5565b8015611bbc5780601f10611b9157610100808354040283529160200191611bbc565b820191906000526020600020905b815481529060010190602001808311611b9f57829003601f168201915b505050505081526020016002820160009054906101000a900473ffffffffffffffffffffffffffffffffffffffff1673ffffffffffffffffffffffffffffffffffffffff1673ffffffffffffffffffffffffffffffffffffffff168152602001600382018054611c2b906150a5565b80601f0160208091040260200160405190810160405280929190818152602001828054611c57906150a5565b8015611ca45780601f10611c7957610100808354040283529160200191611ca4565b820191906000526020600020905b815481529060010190602001808311611c8757829003601f168201915b5050505050815260200160048201805480602002602001604051908101604052809291908181526020018280548015611cfc57602002820191906000526020600020905b815481526020019060010190808311611ce8575b5050505050815260200160058201805480602002602001604051908101604052809291908181526020018280548015611d5457602002820191906000526020600020905b815481526020019060010190808311611d40575b505050505081525050915050919050565b60015481565b611d73613f90565b600460008381526020019081526020016000206040518060c001604052908160008201548152602001600182018054611dab906150a5565b80601f0160208091040260200160405190810160405280929190818152602001828054611dd7906150a5565b8015611e245780601f10611df957610100808354040283529160200191611e24565b820191906000526020600020905b815481529060010190602001808311611e0757829003601f168201915b505050505081526020016002820160009054906101000a900473ffffffffffffffffffffffffffffffffffffffff1673ffffffffffffffffffffffffffffffffffffffff1673ffffffffffffffffffffffffffffffffffffffff168152602001600382018054611e93906150a5565b80601f0160208091040260200160405190810160405280929190818152602001828054611ebf906150a5565b8015611f0c5780601f10611ee157610100808354040283529160200191611f0c565b820191906000526020600020905b815481529060010190602001808311611eef57829003601f168201915b5050505050815260200160048201805480602002602001604051908101604052809291908181526020018280548015611f6457602002820191906000526020600020905b815481526020019060010190808311611f50575b5050505050815260200160058201805480602002602001604051908101604052809291908181526020018280548015611fbc57602002820191906000526020600020905b815481526020019060010190808311611fa8575b5050505050815250509050919050565b611fd4613fdc565b6006600084815260200190815260200160002060008381526020019081526020016000206040518060e0016040529081600082015481526020016001820160009054906101000a900473ffffffffffffffffffffffffffffffffffffffff1673ffffffffffffffffffffffffffffffffffffffff1673ffffffffffffffffffffffffffffffffffffffff168152602001600282018054612073906150a5565b80601f016020809104026020016040519081016040528092919081815260200182805461209f906150a5565b80156120ec5780601f106120c1576101008083540402835291602001916120ec565b820191906000526020600020905b8154815290600101906020018083116120cf57829003601f168201915b50505050508152602001600382015481526020016004820180548060200260200160405190810160405280929190818152602001828054801561218457602002820191906000526020600020905b8160009054906101000a900473ffffffffffffffffffffffffffffffffffffffff1673ffffffffffffffffffffffffffffffffffffffff168152602001906001019080831161213a575b505050505081526020016005820180548060200260200160405190810160405280929190818152602001828054801561221257602002820191906000526020600020905b8160009054906101000a900473ffffffffffffffffffffffffffffffffffffffff1673ffffffffffffffffffffffffffffffffffffffff16815260200190600101908083116121c8575b505050505081526020016006820180548060200260200160405190810160405280929190818152602001828054801561226a57602002820191906000526020600020905b815481526020019060010190808311612256575b505050505081525050905092915050565b6000600360003373ffffffffffffffffffffffffffffffffffffffff1673ffffffffffffffffffffffffffffffffffffffff16815260200190815260200160002054036122c757600080fd5b600061237e60066000858152602001908152602001600020600084815260200190815260200160002060040180548060200260200160405190810160405280929190818152602001828054801561237357602002820191906000526020600020905b8160009054906101000a900473ffffffffffffffffffffffffffffffffffffffff1673ffffffffffffffffffffffffffffffffffffffff1681526020019060010190808311612329575b505050505033612b8d565b9050600061243760066000868152602001908152602001600020600085815260200190815260200160002060050180548060200260200160405190810160405280929190818152602001828054801561242c57602002820191906000526020600020905b8160009054906101000a900473ffffffffffffffffffffffffffffffffffffffff1673ffffffffffffffffffffffffffffffffffffffff16815260200190600101908083116123e2575b505050505033612b8d565b90506000820361254a57600660008581526020019081526020016000206000848152602001908152602001600020600401339080600181540180825580915050600190039060005260206000200160009091909190916101000a81548173ffffffffffffffffffffffffffffffffffffffff021916908373ffffffffffffffffffffffffffffffffffffffff1602179055506000811115612545576006600085815260200190815260200160002060008481526020019081526020016000206005016001826125069190614fcb565b8154811061251757612516614fff565b5b9060005260206000200160006101000a81549073ffffffffffffffffffffffffffffffffffffffff02191690555b6125bd565b60066000858152602001908152602001600020600084815260200190815260200160002060040160018361257e9190614fcb565b8154811061258f5761258e614fff565b5b9060005260206000200160006101000a81549073ffffffffffffffffffffffffffffffffffffffff02191690555b50505050565b6000600360003373ffffffffffffffffffffffffffffffffffffffff1673ffffffffffffffffffffffffffffffffffffffff168152602001908152602001600020540361260f57600080fd5b60006126c66006600085815260200190815260200160002060008481526020019081526020016000206004018054806020026020016040519081016040528092919081815260200182805480156126bb57602002820191906000526020600020905b8160009054906101000a900473ffffffffffffffffffffffffffffffffffffffff1673ffffffffffffffffffffffffffffffffffffffff1681526020019060010190808311612671575b505050505033612b8d565b9050600061277f60066000868152602001908152602001600020600085815260200190815260200160002060050180548060200260200160405190810160405280929190818152602001828054801561277457602002820191906000526020600020905b8160009054906101000a900473ffffffffffffffffffffffffffffffffffffffff1673ffffffffffffffffffffffffffffffffffffffff168152602001906001019080831161272a575b505050505033612b8d565b90506000810361289257600660008581526020019081526020016000206000848152602001908152602001600020600501339080600181540180825580915050600190039060005260206000200160009091909190916101000a81548173ffffffffffffffffffffffffffffffffffffffff021916908373ffffffffffffffffffffffffffffffffffffffff160217905550600082111561288d5760066000858152602001908152602001600020600084815260200190815260200160002060040160018361284e9190614fcb565b8154811061285f5761285e614fff565b5b9060005260206000200160006101000a81549073ffffffffffffffffffffffffffffffffffffffff02191690555b612905565b6006600085815260200190815260200160002060008481526020019081526020016000206005016001826128c69190614fcb565b815481106128d7576128d6614fff565b5b9060005260206000200160006101000a81549073ffffffffffffffffffffffffffffffffffffffff02191690555b50505050565b6000600360003373ffffffffffffffffffffffffffffffffffffffff1673ffffffffffffffffffffffffffffffffffffffff168152602001908152602001600020541461295757600080fd5b6001600081548092919061296a9061502e565b9190505550600060046000600154815260200190815260200160002090506001548160000181905550828160010190816129a491906152d8565b50338160020160006101000a81548173ffffffffffffffffffffffffffffffffffffffff021916908373ffffffffffffffffffffffffffffffffffffffff160217905550818160030190816129f991906152d8565b50600154600360003373ffffffffffffffffffffffffffffffffffffffff1673ffffffffffffffffffffffffffffffffffffffff16815260200190815260200160002081905550505050565b6000600360003373ffffffffffffffffffffffffffffffffffffffff1673ffffffffffffffffffffffffffffffffffffffff1681526020019081526020016000205403612a9157600080fd5b600060016005600085815260200190815260200160002060080180549050612ab991906150d6565b905060006006600085815260200190815260200160002060008381526020019081526020016000209050818160000181905550338160010160006101000a81548173ffffffffffffffffffffffffffffffffffffffff021916908373ffffffffffffffffffffffffffffffffffffffff16021790555082816002019081612b4091906152d8565b504281600301819055506005600085815260200190815260200160002060080182908060018154018082558091505060019003906000526020600020016000909190919091505550505050565b60008083511115612c165760005b8351811015612c14578273ffffffffffffffffffffffffffffffffffffffff16848281518110612bce57612bcd614fff565b5b602002602001015173ffffffffffffffffffffffffffffffffffffffff1603612c0157600181612bfe91906150d6565b91505b8080612c0c9061502e565b915050612b9b565b505b92915050565b6060600060025467ffffffffffffffff811115612c3c57612c3b614736565b5b604051908082528060200260200182016040528015612c7557816020015b612c62613e60565b815260200190600190039081612c5a5790505b5090506000600190505b6002548111612cd4576000612c93826111a2565b90508083600184612ca49190614fcb565b81518110612cb557612cb4614fff565b5b6020026020010181905250508080612ccc9061502e565b915050612c7f565b508091505090565b6000600360003373ffffffffffffffffffffffffffffffffffffffff1673ffffffffffffffffffffffffffffffffffffffff1681526020019081526020016000205403612d2857600080fd5b3373ffffffffffffffffffffffffffffffffffffffff16600760008581526020019081526020016000206000848152602001908152602001600020600083815260200190815260200160002060010160009054906101000a900473ffffffffffffffffffffffffffffffffffffffff1673ffffffffffffffffffffffffffffffffffffffff161480612e1b57503373ffffffffffffffffffffffffffffffffffffffff166005600085815260200190815260200160002060050160009054906101000a900473ffffffffffffffffffffffffffffffffffffffff1673ffffffffffffffffffffffffffffffffffffffff16145b612e2457600080fd5b600082118015612e345750600083115b8015612e405750600081115b612e4957600080fd5b60076000848152602001908152602001600020600083815260200190815260200160002060008281526020019081526020016000206000808201600090556001820160006101000a81549073ffffffffffffffffffffffffffffffffffffffff0219169055600282016000612ebe9190613ec2565b6003820160009055600482016000612ed69190613f02565b600582016000612ee69190613f02565b505060005b60066000858152602001908152602001600020600084815260200190815260200160002060060180549050811015612fc257816006600086815260200190815260200160002060008581526020019081526020016000206006018281548110612f5757612f56614fff565b5b906000526020600020015403612faf576006600085815260200190815260200160002060008481526020019081526020016000206006018181548110612fa057612f9f614fff565b5b90600052602060002001600090555b8080612fba9061502e565b915050612eeb565b50505050565b3373ffffffffffffffffffffffffffffffffffffffff166005600083815260200190815260200160002060050160009054906101000a900473ffffffffffffffffffffffffffffffffffffffff1673ffffffffffffffffffffffffffffffffffffffff161461303657600080fd5b600560008281526020019081526020016000206000808201600090556001820160006130629190613ec2565b6002820160006130729190613ec2565b6003820160006130829190613ec2565b60048201600090556005820160006101000a81549073ffffffffffffffffffffffffffffffffffffffff02191690556006820160006130c19190613f02565b6007820160006130d19190613f02565b6008820160006130e19190613f23565b505060005b60046000600360003373ffffffffffffffffffffffffffffffffffffffff1673ffffffffffffffffffffffffffffffffffffffff16815260200190815260200160002054815260200190815260200160002060040180549050811015613247578160046000600360003373ffffffffffffffffffffffffffffffffffffffff1673ffffffffffffffffffffffffffffffffffffffff16815260200190815260200160002054815260200190815260200160002060040182815481106131ae576131ad614fff565b5b9060005260206000200154036132345760046000600360003373ffffffffffffffffffffffffffffffffffffffff1673ffffffffffffffffffffffffffffffffffffffff168152602001908152602001600020548152602001908152602001600020600401818154811061322557613224614fff565b5b90600052602060002001600090555b808061323f9061502e565b9150506130e6565b5050565b6000600360003373ffffffffffffffffffffffffffffffffffffffff1673ffffffffffffffffffffffffffffffffffffffff168152602001908152602001600020540361329757600080fd5b600061335f600760008681526020019081526020016000206000858152602001908152602001600020600084815260200190815260200160002060040180548060200260200160405190810160405280929190818152602001828054801561335457602002820191906000526020600020905b8160009054906101000a900473ffffffffffffffffffffffffffffffffffffffff1673ffffffffffffffffffffffffffffffffffffffff168152602001906001019080831161330a575b505050505033612b8d565b90506000613429600760008781526020019081526020016000206000868152602001908152602001600020600085815260200190815260200160002060050180548060200260200160405190810160405280929190818152602001828054801561341e57602002820191906000526020600020905b8160009054906101000a900473ffffffffffffffffffffffffffffffffffffffff1673ffffffffffffffffffffffffffffffffffffffff16815260200190600101908083116133d4575b505050505033612b8d565b90506000820361355e576007600086815260200190815260200160002060008581526020019081526020016000206000848152602001908152602001600020600401339080600181540180825580915050600190039060005260206000200160009091909190916101000a81548173ffffffffffffffffffffffffffffffffffffffff021916908373ffffffffffffffffffffffffffffffffffffffff160217905550600081111561355957600760008681526020019081526020016000206000858152602001908152602001600020600084815260200190815260200160002060050160018261351a9190614fcb565b8154811061352b5761352a614fff565b5b9060005260206000200160006101000a81549073ffffffffffffffffffffffffffffffffffffffff02191690555b6135e2565b60076000868152602001908152602001600020600085815260200190815260200160002060008481526020019081526020016000206004016001836135a39190614fcb565b815481106135b4576135b3614fff565b5b9060005260206000200160006101000a81549073ffffffffffffffffffffffffffffffffffffffff02191690555b5050505050565b6005602052806000526040600020600091509050806000015490806001018054613612906150a5565b80601f016020809104026020016040519081016040528092919081815260200182805461363e906150a5565b801561368b5780601f106136605761010080835404028352916020019161368b565b820191906000526020600020905b81548152906001019060200180831161366e57829003601f168201915b5050505050908060020180546136a0906150a5565b80601f01602080910402602001604051908101604052809291908181526020018280546136cc906150a5565b80156137195780601f106136ee57610100808354040283529160200191613719565b820191906000526020600020905b8154815290600101906020018083116136fc57829003601f168201915b50505050509080600301805461372e906150a5565b80601f016020809104026020016040519081016040528092919081815260200182805461375a906150a5565b80156137a75780601f1061377c576101008083540402835291602001916137a7565b820191906000526020600020905b81548152906001019060200180831161378a57829003601f168201915b5050505050908060040154908060050160009054906101000a900473ffffffffffffffffffffffffffffffffffffffff16905086565b6000600360003373ffffffffffffffffffffffffffffffffffffffff1673ffffffffffffffffffffffffffffffffffffffff168152602001908152602001600020540361382957600080fd5b60006138f160076000868152602001908152602001600020600085815260200190815260200160002060008481526020019081526020016000206004018054806020026020016040519081016040528092919081815260200182805480156138e657602002820191906000526020600020905b8160009054906101000a900473ffffffffffffffffffffffffffffffffffffffff1673ffffffffffffffffffffffffffffffffffffffff168152602001906001019080831161389c575b505050505033612b8d565b905060006139bb60076000878152602001908152602001600020600086815260200190815260200160002060008581526020019081526020016000206005018054806020026020016040519081016040528092919081815260200182805480156139b057602002820191906000526020600020905b8160009054906101000a900473ffffffffffffffffffffffffffffffffffffffff1673ffffffffffffffffffffffffffffffffffffffff1681526020019060010190808311613966575b505050505033612b8d565b905060008103613af0576007600086815260200190815260200160002060008581526020019081526020016000206000848152602001908152602001600020600501339080600181540180825580915050600190039060005260206000200160009091909190916101000a81548173ffffffffffffffffffffffffffffffffffffffff021916908373ffffffffffffffffffffffffffffffffffffffff1602179055506000821115613aeb576007600086815260200190815260200160002060008581526020019081526020016000206000848152602001908152602001600020600401600183613aac9190614fcb565b81548110613abd57613abc614fff565b5b9060005260206000200160006101000a81549073ffffffffffffffffffffffffffffffffffffffff02191690555b613b74565b6007600086815260200190815260200160002060008581526020019081526020016000206000848152602001908152602001600020600501600182613b359190614fcb565b81548110613b4657613b45614fff565b5b9060005260206000200160006101000a81549073ffffffffffffffffffffffffffffffffffffffff02191690555b5050505050565b6060808091505090565b60025481565b60008054906101000a900473ffffffffffffffffffffffffffffffffffffffff1681565b60606000613bbc83611abf565b9050600081608001515111613bd057600080fd5b600081608001515167ffffffffffffffff811115613bf157613bf0614736565b5b604051908082528060200260200182016040528015613c2a57816020015b613c17613e60565b815260200190600190039081613c0f5790505b50905060005b826080015151811015613c9b576000613c6684608001518381518110613c5957613c58614fff565b5b60200260200101516111a2565b905080838381518110613c7c57613c7b614fff565b5b6020026020010181905250508080613c939061502e565b915050613c30565b508092505050919050565b6060600080600190505b6002548111613d40576000613cc4826111a2565b905084604051602001613cd791906153e6565b604051602081830303815290604052805190602001208160400151604051602001613d0291906153e6565b6040516020818303038152906040528051906020012003613d2c578280613d289061502e565b9350505b508080613d389061502e565b915050613cb0565b5060008167ffffffffffffffff811115613d5d57613d5c614736565b5b604051908082528060200260200182016040528015613d8b5781602001602082028036833780820191505090505b509050600080831115613e55576000600190505b6002548111613e53576000613db3826111a2565b905086604051602001613dc691906153e6565b604051602081830303815290604052805190602001208160400151604051602001613df191906153e6565b6040516020818303038152906040528051906020012003613e3f578060000151848481518110613e2457613e23614fff565b5b6020026020010181815250508280613e3b9061502e565b9350505b508080613e4b9061502e565b915050613d9f565b505b819350505050919050565b6040518061012001604052806000815260200160608152602001606081526020016060815260200160008152602001600073ffffffffffffffffffffffffffffffffffffffff1681526020016060815260200160608152602001606081525090565b508054613ece906150a5565b6000825580601f10613ee05750613eff565b601f016020900490600052602060002090810190613efe919061402f565b5b50565b5080546000825590600052602060002090810190613f20919061402f565b50565b5080546000825590600052602060002090810190613f41919061402f565b50565b6040518060c0016040528060008152602001600073ffffffffffffffffffffffffffffffffffffffff168152602001606081526020016000815260200160608152602001606081525090565b6040518060c001604052806000815260200160608152602001600073ffffffffffffffffffffffffffffffffffffffff1681526020016060815260200160608152602001606081525090565b6040518060e0016040528060008152602001600073ffffffffffffffffffffffffffffffffffffffff16815260200160608152602001600081526020016060815260200160608152602001606081525090565b5b80821115614048576000816000905550600101614030565b5090565b6000604051905090565b600080fd5b600080fd5b6000819050919050565b61407381614060565b811461407e57600080fd5b50565b6000813590506140908161406a565b92915050565b6000602082840312156140ac576140ab614056565b5b60006140ba84828501614081565b91505092915050565b600081519050919050565b600082825260208201905092915050565b6000819050602082019050919050565b6140f881614060565b82525050565b600081519050919050565b600082825260208201905092915050565b60005b8381101561413857808201518184015260208101905061411d565b83811115614147576000848401525b50505050565b6000601f19601f8301169050919050565b6000614169826140fe565b6141738185614109565b935061418381856020860161411a565b61418c8161414d565b840191505092915050565b600073ffffffffffffffffffffffffffffffffffffffff82169050919050565b60006141c282614197565b9050919050565b6141d2816141b7565b82525050565b600081519050919050565b600082825260208201905092915050565b6000819050602082019050919050565b600061421083836141c9565b60208301905092915050565b6000602082019050919050565b6000614234826141d8565b61423e81856141e3565b9350614249836141f4565b8060005b8381101561427a5781516142618882614204565b975061426c8361421c565b92505060018101905061424d565b5085935050505092915050565b600081519050919050565b600082825260208201905092915050565b6000819050602082019050919050565b60006142bf83836140ef565b60208301905092915050565b6000602082019050919050565b60006142e382614287565b6142ed8185614292565b93506142f8836142a3565b8060005b8381101561432957815161431088826142b3565b975061431b836142cb565b9250506001810190506142fc565b5085935050505092915050565b60006101208301600083015161434f60008601826140ef565b5060208301518482036020860152614367828261415e565b91505060408301518482036040860152614381828261415e565b9150506060830151848203606086015261439b828261415e565b91505060808301516143b060808601826140ef565b5060a08301516143c360a08601826141c9565b5060c083015184820360c08601526143db8282614229565b91505060e083015184820360e08601526143f58282614229565b91505061010083015184820361010086015261441182826142d8565b9150508091505092915050565b600061442a8383614336565b905092915050565b6000602082019050919050565b600061444a826140c3565b61445481856140ce565b935083602082028501614466856140df565b8060005b858110156144a25784840389528151614483858261441e565b945061448e83614432565b925060208a0199505060018101905061446a565b50829750879550505050505092915050565b600060208201905081810360008301526144ce818461443f565b905092915050565b600080604083850312156144ed576144ec614056565b5b60006144fb85828601614081565b925050602061450c85828601614081565b9150509250929050565b60008060006060848603121561452f5761452e614056565b5b600061453d86828701614081565b935050602061454e86828701614081565b925050604061455f86828701614081565b9150509250925092565b600060c08301600083015161458160008601826140ef565b50602083015161459460208601826141c9565b50604083015184820360408601526145ac828261415e565b91505060608301516145c160608601826140ef565b50608083015184820360808601526145d98282614229565b91505060a083015184820360a08601526145f38282614229565b9150508091505092915050565b6000602082019050818103600083015261461a8184614569565b905092915050565b60006101208301600083015161463b60008601826140ef565b5060208301518482036020860152614653828261415e565b9150506040830151848203604086015261466d828261415e565b91505060608301518482036060860152614687828261415e565b915050608083015161469c60808601826140ef565b5060a08301516146af60a08601826141c9565b5060c083015184820360c08601526146c78282614229565b91505060e083015184820360e08601526146e18282614229565b9150506101008301518482036101008601526146fd82826142d8565b9150508091505092915050565b600060208201905081810360008301526147248184614622565b905092915050565b600080fd5b600080fd5b7f4e487b7100000000000000000000000000000000000000000000000000000000600052604160045260246000fd5b61476e8261414d565b810181811067ffffffffffffffff8211171561478d5761478c614736565b5b80604052505050565b60006147a061404c565b90506147ac8282614765565b919050565b600067ffffffffffffffff8211156147cc576147cb614736565b5b6147d58261414d565b9050602081019050919050565b82818337600083830152505050565b60006148046147ff846147b1565b614796565b9050828152602081018484840111156148205761481f614731565b5b61482b8482856147e2565b509392505050565b600082601f8301126148485761484761472c565b5b81356148588482602086016147f1565b91505092915050565b60006020828403121561487757614876614056565b5b600082013567ffffffffffffffff8111156148955761489461405b565b5b6148a184828501614833565b91505092915050565b6148b381614060565b82525050565b600082825260208201905092915050565b60006148d5826140fe565b6148df81856148b9565b93506148ef81856020860161411a565b6148f88161414d565b840191505092915050565b61490c816141b7565b82525050565b600060808201905061492760008301876148aa565b818103602083015261493981866148ca565b90506149486040830185614903565b818103606083015261495a81846148ca565b905095945050505050565b61496e816141b7565b811461497957600080fd5b50565b60008135905061498b81614965565b92915050565b6000602082840312156149a7576149a6614056565b5b60006149b58482850161497c565b91505092915050565b60006020820190506149d360008301846148aa565b92915050565b6000806000606084860312156149f2576149f1614056565b5b6000614a0086828701614081565b9350506020614a1186828701614081565b925050604084013567ffffffffffffffff811115614a3257614a3161405b565b5b614a3e86828701614833565b9150509250925092565b600080600060608486031215614a6157614a60614056565b5b600084013567ffffffffffffffff811115614a7f57614a7e61405b565b5b614a8b86828701614833565b935050602084013567ffffffffffffffff811115614aac57614aab61405b565b5b614ab886828701614833565b925050604084013567ffffffffffffffff811115614ad957614ad861405b565b5b614ae586828701614833565b9150509250925092565b600060c083016000830151614b0760008601826140ef565b5060208301518482036020860152614b1f828261415e565b9150506040830151614b3460408601826141c9565b5060608301518482036060860152614b4c828261415e565b91505060808301518482036080860152614b6682826142d8565b91505060a083015184820360a0860152614b8082826142d8565b9150508091505092915050565b60006020820190508181036000830152614ba78184614aef565b905092915050565b600060e083016000830151614bc760008601826140ef565b506020830151614bda60208601826141c9565b5060408301518482036040860152614bf2828261415e565b9150506060830151614c0760608601826140ef565b5060808301518482036080860152614c1f8282614229565b91505060a083015184820360a0860152614c398282614229565b91505060c083015184820360c0860152614c5382826142d8565b9150508091505092915050565b60006020820190508181036000830152614c7a8184614baf565b905092915050565b60008060408385031215614c9957614c98614056565b5b600083013567ffffffffffffffff811115614cb757614cb661405b565b5b614cc385828601614833565b925050602083013567ffffffffffffffff811115614ce457614ce361405b565b5b614cf085828601614833565b9150509250929050565b60008060408385031215614d1157614d10614056565b5b6000614d1f85828601614081565b925050602083013567ffffffffffffffff811115614d4057614d3f61405b565b5b614d4c85828601614833565b9150509250929050565b600067ffffffffffffffff821115614d7157614d70614736565b5b602082029050602081019050919050565b600080fd5b6000614d9a614d9584614d56565b614796565b90508083825260208201905060208402830185811115614dbd57614dbc614d82565b5b835b81811015614de65780614dd2888261497c565b845260208401935050602081019050614dbf565b5050509392505050565b600082601f830112614e0557614e0461472c565b5b8135614e15848260208601614d87565b91505092915050565b60008060408385031215614e3557614e34614056565b5b600083013567ffffffffffffffff811115614e5357614e5261405b565b5b614e5f85828601614df0565b9250506020614e708582860161497c565b9150509250929050565b600060c082019050614e8f60008301896148aa565b8181036020830152614ea181886148ca565b90508181036040830152614eb581876148ca565b90508181036060830152614ec981866148ca565b9050614ed860808301856148aa565b614ee560a0830184614903565b979650505050505050565b600082825260208201905092915050565b6000614f0c82614287565b614f168185614ef0565b9350614f21836142a3565b8060005b83811015614f52578151614f3988826142b3565b9750614f44836142cb565b925050600181019050614f25565b5085935050505092915050565b60006020820190508181036000830152614f798184614f01565b905092915050565b6000602082019050614f966000830184614903565b92915050565b7f4e487b7100000000000000000000000000000000000000000000000000000000600052601160045260246000fd5b6000614fd682614060565b9150614fe183614060565b925082821015614ff457614ff3614f9c565b5b828203905092915050565b7f4e487b7100000000000000000000000000000000000000000000000000000000600052603260045260246000fd5b600061503982614060565b91507fffffffffffffffffffffffffffffffffffffffffffffffffffffffffffffffff820361506b5761506a614f9c565b5b600182019050919050565b7f4e487b7100000000000000000000000000000000000000000000000000000000600052602260045260246000fd5b600060028204905060018216806150bd57607f821691505b6020821081036150d0576150cf615076565b5b50919050565b60006150e182614060565b91506150ec83614060565b9250827fffffffffffffffffffffffffffffffffffffffffffffffffffffffffffffffff0382111561512157615120614f9c565b5b828201905092915050565b60008190508160005260206000209050919050565b60006020601f8301049050919050565b600082821b905092915050565b60006008830261518e7fffffffffffffffffffffffffffffffffffffffffffffffffffffffffffffffff82615151565b6151988683615151565b95508019841693508086168417925050509392505050565b6000819050919050565b60006151d56151d06151cb84614060565b6151b0565b614060565b9050919050565b6000819050919050565b6151ef836151ba565b6152036151fb826151dc565b84845461515e565b825550505050565b600090565b61521861520b565b6152238184846151e6565b505050565b5b818110156152475761523c600082615210565b600181019050615229565b5050565b601f82111561528c5761525d8161512c565b61526684615141565b81016020851015615275578190505b61528961528185615141565b830182615228565b50505b505050565b600082821c905092915050565b60006152af60001984600802615291565b1980831691505092915050565b60006152c8838361529e565b9150826002028217905092915050565b6152e1826140fe565b67ffffffffffffffff8111156152fa576152f9614736565b5b61530482546150a5565b61530f82828561524b565b600060209050601f8311600181146153425760008415615330578287015190505b61533a85826152bc565b8655506153a2565b601f1984166153508661512c565b60005b8281101561537857848901518255600182019150602085019450602081019050615353565b868310156153955784890151615391601f89168261529e565b8355505b6001600288020188555050505b505050505050565b600081905092915050565b60006153c0826140fe565b6153ca81856153aa565b93506153da81856020860161411a565b80840191505092915050565b60006153f282846153b5565b91508190509291505056fea2646970667358221220b544e3aa01c0e6c22b64518fd4e67d1a4f842674251f478bed3486fb1533477964736f6c634300080f0033",
  "immutableReferences": {},
  "source": "// SPDX-License-Identifier: MIT\npragma solidity >=0.4.22 <0.9.0;\n\nimport \"./Comments.sol\";\n\ncontract Replys is Comments {\n    //  -------------------- Reply functions ---------------------:\n    function addReply(\n        uint256 _videoId,\n        uint256 _commentId,\n        string memory _replyComent\n    ) public {\n        require(userId[msg.sender] != 0);\n\n        uint256 _replyId = videoComments[_videoId][_commentId]\n            .repliesIds\n            .length + 1;\n\n        reply storage _reply = commentReplies[_videoId][_commentId][_replyId];\n\n        _reply.id = _replyId;\n        _reply.owner = msg.sender;\n        _reply.reply = _replyComent;\n        _reply.timestamp = block.timestamp;\n\n        videoComments[_videoId][_commentId].repliesIds.push(_replyId);\n    }\n\n    function getCommentReply(\n        uint256 _videoId,\n        uint256 _commentId,\n        uint256 _replyId\n    ) public view returns (reply memory) {\n        return commentReplies[_videoId][_commentId][_replyId];\n    }\n\n    function deletReply(\n        uint256 _videoId,\n        uint256 _commentId,\n        uint256 _replyId\n    ) public {\n        require(userId[msg.sender] != 0);\n        require(\n            commentReplies[_videoId][_commentId][_replyId].owner ==\n                msg.sender ||\n                videos[_videoId].owner == msg.sender\n        );\n        require(_commentId > 0 && _videoId > 0 && _replyId > 0);\n\n        delete (commentReplies[_videoId][_commentId][_replyId]);\n\n        for (\n            uint256 i = 0;\n            i < videoComments[_videoId][_commentId].repliesIds.length;\n            i++\n        ) {\n            if (videoComments[_videoId][_commentId].repliesIds[i] == _replyId) {\n                delete (videoComments[_videoId][_commentId].repliesIds[i]);\n            }\n        }\n    }\n\n    function likeReply(\n        uint256 _videoId,\n        uint256 _commentId,\n        uint256 _replyId\n    ) public {\n        require(userId[msg.sender] != 0);\n\n        uint256 _LikesIndex = _alreadyReact(\n            commentReplies[_videoId][_commentId][_replyId].likes,\n            msg.sender\n        );\n        uint256 _DislikeIndex = _alreadyReact(\n            commentReplies[_videoId][_commentId][_replyId].dislike,\n            msg.sender\n        );\n\n        if (_LikesIndex == 0) {\n            commentReplies[_videoId][_commentId][_replyId].likes.push(\n                msg.sender\n            );\n\n            if (_DislikeIndex > 0) {\n                delete (\n                    commentReplies[_videoId][_commentId][_replyId].dislike[\n                        _DislikeIndex - 1\n                    ]\n                );\n            }\n        } else {\n            delete (\n                commentReplies[_videoId][_commentId][_replyId].likes[\n                    _LikesIndex - 1\n                ]\n            );\n        }\n    }\n\n    function dislikeReply(\n        uint256 _videoId,\n        uint256 _commentId,\n        uint256 _replyId\n    ) public {\n        require(userId[msg.sender] != 0);\n\n        uint256 _LikesIndex = _alreadyReact(\n            commentReplies[_videoId][_commentId][_replyId].likes,\n            msg.sender\n        );\n        uint256 _DislikeIndex = _alreadyReact(\n            commentReplies[_videoId][_commentId][_replyId].dislike,\n            msg.sender\n        );\n\n        if (_DislikeIndex == 0) {\n            commentReplies[_videoId][_commentId][_replyId].dislike.push(\n                msg.sender\n            );\n\n            if (_LikesIndex > 0) {\n                delete (\n                    commentReplies[_videoId][_commentId][_replyId].likes[\n                        _LikesIndex - 1\n                    ]\n                );\n            }\n        } else {\n            delete (\n                commentReplies[_videoId][_commentId][_replyId].dislike[\n                    _DislikeIndex - 1\n                ]\n            );\n        }\n    }\n}\n",
  "sourcePath": "C:\\Users\\hamza\\Desktop\\web3-tasks\\11_Youtube_web3\\contracts\\Replys.sol",
  "compiler": {
    "name": "solc",
    "version": "0.8.15+commit.e14f2714.Emscripten.clang"
  },
  "schemaVersion": "3.4.8",
  "updatedAt": "2022-08-21T19:52:22.687Z",
  "networkType": "ethereum",
  "devdoc": {
    "kind": "dev",
    "methods": {},
    "version": 1
  },
  "userdoc": {
    "kind": "user",
    "methods": {},
    "version": 1
  }
}