{
  "contractName": "Videos",
  "abi": [
    {
      "inputs": [
        {
          "internalType": "address[]",
          "name": "_interactors",
          "type": "address[]"
        },
        {
          "internalType": "address",
          "name": "_owner",
          "type": "address"
        }
      ],
      "name": "_alreadyReact",
      "outputs": [
        {
          "internalType": "uint256",
          "name": "_indexOfOwner",
          "type": "uint256"
        }
      ],
      "stateMutability": "pure",
      "type": "function",
      "constant": true
    },
    {
      "inputs": [],
      "name": "admin",
      "outputs": [
        {
          "internalType": "address",
          "name": "",
          "type": "address"
        }
      ],
      "stateMutability": "view",
      "type": "function",
      "constant": true
    },
    {
      "inputs": [
        {
          "internalType": "address",
          "name": "_userAddress",
          "type": "address"
        }
      ],
      "name": "getUserByAddress",
      "outputs": [
        {
          "components": [
            {
              "internalType": "uint256",
              "name": "id",
              "type": "uint256"
            },
            {
              "internalType": "string",
              "name": "userName",
              "type": "string"
            },
            {
              "internalType": "address",
              "name": "userAddress",
              "type": "address"
            },
            {
              "internalType": "string",
              "name": "profileImag",
              "type": "string"
            },
            {
              "internalType": "uint256[]",
              "name": "userVideos",
              "type": "uint256[]"
            },
            {
              "internalType": "uint256[]",
              "name": "videoSaved",
              "type": "uint256[]"
            }
          ],
          "internalType": "struct YoutubeData.user",
          "name": "",
          "type": "tuple"
        }
      ],
      "stateMutability": "view",
      "type": "function",
      "constant": true
    },
    {
      "inputs": [
        {
          "internalType": "uint256",
          "name": "_userId",
          "type": "uint256"
        }
      ],
      "name": "getUserById",
      "outputs": [
        {
          "components": [
            {
              "internalType": "uint256",
              "name": "id",
              "type": "uint256"
            },
            {
              "internalType": "string",
              "name": "userName",
              "type": "string"
            },
            {
              "internalType": "address",
              "name": "userAddress",
              "type": "address"
            },
            {
              "internalType": "string",
              "name": "profileImag",
              "type": "string"
            },
            {
              "internalType": "uint256[]",
              "name": "userVideos",
              "type": "uint256[]"
            },
            {
              "internalType": "uint256[]",
              "name": "videoSaved",
              "type": "uint256[]"
            }
          ],
          "internalType": "struct YoutubeData.user",
          "name": "",
          "type": "tuple"
        }
      ],
      "stateMutability": "view",
      "type": "function",
      "constant": true
    },
    {
      "inputs": [
        {
          "internalType": "string",
          "name": "_userName",
          "type": "string"
        },
        {
          "internalType": "string",
          "name": "_profileImag",
          "type": "string"
        }
      ],
      "name": "signUp",
      "outputs": [],
      "stateMutability": "nonpayable",
      "type": "function"
    },
    {
      "inputs": [
        {
          "internalType": "address",
          "name": "",
          "type": "address"
        }
      ],
      "name": "userId",
      "outputs": [
        {
          "internalType": "uint256",
          "name": "",
          "type": "uint256"
        }
      ],
      "stateMutability": "view",
      "type": "function",
      "constant": true
    },
    {
      "inputs": [
        {
          "internalType": "uint256",
          "name": "",
          "type": "uint256"
        }
      ],
      "name": "users",
      "outputs": [
        {
          "internalType": "uint256",
          "name": "id",
          "type": "uint256"
        },
        {
          "internalType": "string",
          "name": "userName",
          "type": "string"
        },
        {
          "internalType": "address",
          "name": "userAddress",
          "type": "address"
        },
        {
          "internalType": "string",
          "name": "profileImag",
          "type": "string"
        }
      ],
      "stateMutability": "view",
      "type": "function",
      "constant": true
    },
    {
      "inputs": [],
      "name": "usersCount",
      "outputs": [
        {
          "internalType": "uint256",
          "name": "",
          "type": "uint256"
        }
      ],
      "stateMutability": "view",
      "type": "function",
      "constant": true
    },
    {
      "inputs": [
        {
          "internalType": "uint256",
          "name": "",
          "type": "uint256"
        }
      ],
      "name": "videos",
      "outputs": [
        {
          "internalType": "uint256",
          "name": "id",
          "type": "uint256"
        },
        {
          "internalType": "string",
          "name": "videoHash",
          "type": "string"
        },
        {
          "internalType": "string",
          "name": "videoTayp",
          "type": "string"
        },
        {
          "internalType": "string",
          "name": "videoTitle",
          "type": "string"
        },
        {
          "internalType": "uint256",
          "name": "timestamp",
          "type": "uint256"
        },
        {
          "internalType": "address",
          "name": "owner",
          "type": "address"
        }
      ],
      "stateMutability": "view",
      "type": "function",
      "constant": true
    },
    {
      "inputs": [],
      "name": "videosCount",
      "outputs": [
        {
          "internalType": "uint256",
          "name": "",
          "type": "uint256"
        }
      ],
      "stateMutability": "view",
      "type": "function",
      "constant": true
    },
    {
      "inputs": [
        {
          "internalType": "string",
          "name": "_Hash",
          "type": "string"
        },
        {
          "internalType": "string",
          "name": "_Tayp",
          "type": "string"
        },
        {
          "internalType": "string",
          "name": "_title",
          "type": "string"
        }
      ],
      "name": "downloadVideo",
      "outputs": [],
      "stateMutability": "nonpayable",
      "type": "function"
    },
    {
      "inputs": [
        {
          "internalType": "uint256",
          "name": "_videoId",
          "type": "uint256"
        }
      ],
      "name": "deleteVideo",
      "outputs": [],
      "stateMutability": "nonpayable",
      "type": "function"
    },
    {
      "inputs": [
        {
          "internalType": "uint256",
          "name": "_videoId",
          "type": "uint256"
        }
      ],
      "name": "likeVideo",
      "outputs": [],
      "stateMutability": "nonpayable",
      "type": "function"
    },
    {
      "inputs": [
        {
          "internalType": "uint256",
          "name": "_videoId",
          "type": "uint256"
        }
      ],
      "name": "dislikeVideo",
      "outputs": [],
      "stateMutability": "nonpayable",
      "type": "function"
    },
    {
      "inputs": [
        {
          "internalType": "uint256",
          "name": "_VideoId",
          "type": "uint256"
        }
      ],
      "name": "getVideo",
      "outputs": [
        {
          "components": [
            {
              "internalType": "uint256",
              "name": "id",
              "type": "uint256"
            },
            {
              "internalType": "string",
              "name": "videoHash",
              "type": "string"
            },
            {
              "internalType": "string",
              "name": "videoTayp",
              "type": "string"
            },
            {
              "internalType": "string",
              "name": "videoTitle",
              "type": "string"
            },
            {
              "internalType": "uint256",
              "name": "timestamp",
              "type": "uint256"
            },
            {
              "internalType": "address",
              "name": "owner",
              "type": "address"
            },
            {
              "internalType": "address[]",
              "name": "likes",
              "type": "address[]"
            },
            {
              "internalType": "address[]",
              "name": "dislike",
              "type": "address[]"
            },
            {
              "internalType": "uint256[]",
              "name": "commentsIds",
              "type": "uint256[]"
            }
          ],
          "internalType": "struct YoutubeData.video",
          "name": "",
          "type": "tuple"
        }
      ],
      "stateMutability": "view",
      "type": "function",
      "constant": true
    },
    {
      "inputs": [],
      "name": "functionPublic",
      "outputs": [
        {
          "internalType": "uint256[]",
          "name": "",
          "type": "uint256[]"
        }
      ],
      "stateMutability": "pure",
      "type": "function",
      "constant": true
    },
    {
      "inputs": [],
      "name": "getAllVideos",
      "outputs": [
        {
          "components": [
            {
              "internalType": "uint256",
              "name": "id",
              "type": "uint256"
            },
            {
              "internalType": "string",
              "name": "videoHash",
              "type": "string"
            },
            {
              "internalType": "string",
              "name": "videoTayp",
              "type": "string"
            },
            {
              "internalType": "string",
              "name": "videoTitle",
              "type": "string"
            },
            {
              "internalType": "uint256",
              "name": "timestamp",
              "type": "uint256"
            },
            {
              "internalType": "address",
              "name": "owner",
              "type": "address"
            },
            {
              "internalType": "address[]",
              "name": "likes",
              "type": "address[]"
            },
            {
              "internalType": "address[]",
              "name": "dislike",
              "type": "address[]"
            },
            {
              "internalType": "uint256[]",
              "name": "commentsIds",
              "type": "uint256[]"
            }
          ],
          "internalType": "struct YoutubeData.video[]",
          "name": "",
          "type": "tuple[]"
        }
      ],
      "stateMutability": "view",
      "type": "function",
      "constant": true
    },
    {
      "inputs": [
        {
          "internalType": "string",
          "name": "_videoType",
          "type": "string"
        }
      ],
      "name": "getAllVideoByType",
      "outputs": [
        {
          "components": [
            {
              "internalType": "uint256",
              "name": "id",
              "type": "uint256"
            },
            {
              "internalType": "string",
              "name": "videoHash",
              "type": "string"
            },
            {
              "internalType": "string",
              "name": "videoTayp",
              "type": "string"
            },
            {
              "internalType": "string",
              "name": "videoTitle",
              "type": "string"
            },
            {
              "internalType": "uint256",
              "name": "timestamp",
              "type": "uint256"
            },
            {
              "internalType": "address",
              "name": "owner",
              "type": "address"
            },
            {
              "internalType": "address[]",
              "name": "likes",
              "type": "address[]"
            },
            {
              "internalType": "address[]",
              "name": "dislike",
              "type": "address[]"
            },
            {
              "internalType": "uint256[]",
              "name": "commentsIds",
              "type": "uint256[]"
            }
          ],
          "internalType": "struct YoutubeData.video[]",
          "name": "",
          "type": "tuple[]"
        }
      ],
      "stateMutability": "view",
      "type": "function",
      "constant": true
    },
    {
      "inputs": [
        {
          "internalType": "uint256",
          "name": "_userId",
          "type": "uint256"
        }
      ],
      "name": "getUserVideosById",
      "outputs": [
        {
          "components": [
            {
              "internalType": "uint256",
              "name": "id",
              "type": "uint256"
            },
            {
              "internalType": "string",
              "name": "videoHash",
              "type": "string"
            },
            {
              "internalType": "string",
              "name": "videoTayp",
              "type": "string"
            },
            {
              "internalType": "string",
              "name": "videoTitle",
              "type": "string"
            },
            {
              "internalType": "uint256",
              "name": "timestamp",
              "type": "uint256"
            },
            {
              "internalType": "address",
              "name": "owner",
              "type": "address"
            },
            {
              "internalType": "address[]",
              "name": "likes",
              "type": "address[]"
            },
            {
              "internalType": "address[]",
              "name": "dislike",
              "type": "address[]"
            },
            {
              "internalType": "uint256[]",
              "name": "commentsIds",
              "type": "uint256[]"
            }
          ],
          "internalType": "struct YoutubeData.video[]",
          "name": "",
          "type": "tuple[]"
        }
      ],
      "stateMutability": "view",
      "type": "function",
      "constant": true
    },
    {
      "inputs": [
        {
          "internalType": "address",
          "name": "_userAddress",
          "type": "address"
        }
      ],
      "name": "getUserVideosByAddress",
      "outputs": [
        {
          "components": [
            {
              "internalType": "uint256",
              "name": "id",
              "type": "uint256"
            },
            {
              "internalType": "string",
              "name": "videoHash",
              "type": "string"
            },
            {
              "internalType": "string",
              "name": "videoTayp",
              "type": "string"
            },
            {
              "internalType": "string",
              "name": "videoTitle",
              "type": "string"
            },
            {
              "internalType": "uint256",
              "name": "timestamp",
              "type": "uint256"
            },
            {
              "internalType": "address",
              "name": "owner",
              "type": "address"
            },
            {
              "internalType": "address[]",
              "name": "likes",
              "type": "address[]"
            },
            {
              "internalType": "address[]",
              "name": "dislike",
              "type": "address[]"
            },
            {
              "internalType": "uint256[]",
              "name": "commentsIds",
              "type": "uint256[]"
            }
          ],
          "internalType": "struct YoutubeData.video[]",
          "name": "",
          "type": "tuple[]"
        }
      ],
      "stateMutability": "view",
      "type": "function",
      "constant": true
    }
  ],
  "bytecode": "0x608060405234801561001057600080fd5b50336000806101000a81548173ffffffffffffffffffffffffffffffffffffffff021916908373ffffffffffffffffffffffffffffffffffffffff1602179055506133a7806100606000396000f3fe608060405234801561001057600080fd5b506004361061012c5760003560e01c80636ed6da9e116100ad578063e6821bf511610071578063e6821bf51461037c578063e9c4cc94146103b1578063ef08523b146103cf578063f851a440146103ed578063ffa36aca1461040b5761012c565b80636ed6da9e146102c6578063a469a332146102f6578063b2f4643914610312578063c38e343414610342578063d4ab873e146103605761012c565b8063365b98b2116100f4578063365b98b2146101f9578063376fe1021461022c57806339229b931461025c57806369c212f6146102785780636ba13a82146102a85761012c565b80630746bfe5146101315780630aeec1a11461014d57806327260d5c1461017d5780632893eca2146101995780632e7ee11e146101c9575b600080fd5b61014b600480360381019061014691906122f4565b61043b565b005b610167600480360381019061016291906122f4565b6106e1565b6040516101749190612712565b60405180910390f35b610197600480360381019061019291906122f4565b6107d8565b005b6101b360048036038101906101ae91906122f4565b610aca565b6040516101c0919061281c565b60405180910390f35b6101e360048036038101906101de9190612973565b610e8c565b6040516101f09190612712565b60405180910390f35b610213600480360381019061020e91906122f4565b610f65565b6040516102239493929190612a24565b60405180910390f35b61024660048036038101906102419190612aa3565b6110c5565b6040516102539190612ad0565b60405180910390f35b61027660048036038101906102719190612aeb565b6110dd565b005b610292600480360381019061028d9190612aa3565b61126b565b60405161029f9190612c30565b60405180910390f35b6102b0611511565b6040516102bd9190612ad0565b60405180910390f35b6102e060048036038101906102db91906122f4565b611517565b6040516102ed9190612c30565b60405180910390f35b610310600480360381019061030b9190612c52565b611778565b005b61032c60048036038101906103279190612d92565b6118b2565b6040516103399190612ad0565b60405180910390f35b61034a611941565b6040516103579190612712565b60405180910390f35b61037a600480360381019061037591906122f4565b611a01565b005b610396600480360381019061039191906122f4565b611c84565b6040516103a896959493929190612dee565b60405180910390f35b6103b9611e78565b6040516103c69190612ed3565b60405180910390f35b6103d7611e82565b6040516103e49190612ad0565b60405180910390f35b6103f5611e88565b6040516104029190612ef5565b60405180910390f35b61042560048036038101906104209190612aa3565b611eac565b6040516104329190612712565b60405180910390f35b60006104e1600560008481526020019081526020016000206006018054806020026020016040519081016040528092919081815260200182805480156104d657602002820191906000526020600020905b8160009054906101000a900473ffffffffffffffffffffffffffffffffffffffff1673ffffffffffffffffffffffffffffffffffffffff168152602001906001019080831161048c575b5050505050336118b2565b905060006105896005600085815260200190815260200160002060070180548060200260200160405190810160405280929190818152602001828054801561057e57602002820191906000526020600020905b8160009054906101000a900473ffffffffffffffffffffffffffffffffffffffff1673ffffffffffffffffffffffffffffffffffffffff1681526020019060010190808311610534575b5050505050336118b2565b90506000810361067a5760056000848152602001908152602001600020600701339080600181540180825580915050600190039060005260206000200160009091909190916101000a81548173ffffffffffffffffffffffffffffffffffffffff021916908373ffffffffffffffffffffffffffffffffffffffff160217905550600082111561067557600560008481526020019081526020016000206006016001836106369190612f3f565b8154811061064757610646612f73565b5b9060005260206000200160006101000a81549073ffffffffffffffffffffffffffffffffffffffff02191690555b6106dc565b6005600084815260200190815260200160002060070160018261069d9190612f3f565b815481106106ae576106ad612f73565b5b9060005260206000200160006101000a81549073ffffffffffffffffffffffffffffffffffffffff02191690555b505050565b606060006106ee83611517565b905060008160800151511161070257600080fd5b600081608001515167ffffffffffffffff81111561072357610722612848565b5b60405190808252806020026020018201604052801561075c57816020015b61074961215d565b8152602001906001900390816107415790505b50905060005b8260800151518110156107cd5760006107988460800151838151811061078b5761078a612f73565b5b6020026020010151610aca565b9050808383815181106107ae576107ad612f73565b5b60200260200101819052505080806107c590612fa2565b915050610762565b508092505050919050565b6000600360003373ffffffffffffffffffffffffffffffffffffffff1673ffffffffffffffffffffffffffffffffffffffff168152602001908152602001600020540361082457600080fd5b60006108ca600560008481526020019081526020016000206006018054806020026020016040519081016040528092919081815260200182805480156108bf57602002820191906000526020600020905b8160009054906101000a900473ffffffffffffffffffffffffffffffffffffffff1673ffffffffffffffffffffffffffffffffffffffff1681526020019060010190808311610875575b5050505050336118b2565b905060006109726005600085815260200190815260200160002060070180548060200260200160405190810160405280929190818152602001828054801561096757602002820191906000526020600020905b8160009054906101000a900473ffffffffffffffffffffffffffffffffffffffff1673ffffffffffffffffffffffffffffffffffffffff168152602001906001019080831161091d575b5050505050336118b2565b905060008203610a635760056000848152602001908152602001600020600601339080600181540180825580915050600190039060005260206000200160009091909190916101000a81548173ffffffffffffffffffffffffffffffffffffffff021916908373ffffffffffffffffffffffffffffffffffffffff1602179055506000811115610a5e5760056000848152602001908152602001600020600701600182610a1f9190612f3f565b81548110610a3057610a2f612f73565b5b9060005260206000200160006101000a81549073ffffffffffffffffffffffffffffffffffffffff02191690555b610ac5565b60056000848152602001908152602001600020600601600183610a869190612f3f565b81548110610a9757610a96612f73565b5b9060005260206000200160006101000a81549073ffffffffffffffffffffffffffffffffffffffff02191690555b505050565b610ad261215d565b600560008381526020019081526020016000206040518061012001604052908160008201548152602001600182018054610b0b90613019565b80601f0160208091040260200160405190810160405280929190818152602001828054610b3790613019565b8015610b845780601f10610b5957610100808354040283529160200191610b84565b820191906000526020600020905b815481529060010190602001808311610b6757829003601f168201915b50505050508152602001600282018054610b9d90613019565b80601f0160208091040260200160405190810160405280929190818152602001828054610bc990613019565b8015610c165780601f10610beb57610100808354040283529160200191610c16565b820191906000526020600020905b815481529060010190602001808311610bf957829003601f168201915b50505050508152602001600382018054610c2f90613019565b80601f0160208091040260200160405190810160405280929190818152602001828054610c5b90613019565b8015610ca85780601f10610c7d57610100808354040283529160200191610ca8565b820191906000526020600020905b815481529060010190602001808311610c8b57829003601f168201915b50505050508152602001600482015481526020016005820160009054906101000a900473ffffffffffffffffffffffffffffffffffffffff1673ffffffffffffffffffffffffffffffffffffffff1673ffffffffffffffffffffffffffffffffffffffff16815260200160068201805480602002602001604051908101604052809291908181526020018280548015610d9657602002820191906000526020600020905b8160009054906101000a900473ffffffffffffffffffffffffffffffffffffffff1673ffffffffffffffffffffffffffffffffffffffff1681526020019060010190808311610d4c575b5050505050815260200160078201805480602002602001604051908101604052809291908181526020018280548015610e2457602002820191906000526020600020905b8160009054906101000a900473ffffffffffffffffffffffffffffffffffffffff1673ffffffffffffffffffffffffffffffffffffffff1681526020019060010190808311610dda575b5050505050815260200160088201805480602002602001604051908101604052809291908181526020018280548015610e7c57602002820191906000526020600020905b815481526020019060010190808311610e68575b5050505050815250509050919050565b60606000610e9983611fa3565b90506000815167ffffffffffffffff811115610eb857610eb7612848565b5b604051908082528060200260200182016040528015610ef157816020015b610ede61215d565b815260200190600190039081610ed65790505b50905060005b8251811015610f5a576000610f25848381518110610f1857610f17612f73565b5b6020026020010151610aca565b905080838381518110610f3b57610f3a612f73565b5b6020026020010181905250508080610f5290612fa2565b915050610ef7565b508092505050919050565b6004602052806000526040600020600091509050806000015490806001018054610f8e90613019565b80601f0160208091040260200160405190810160405280929190818152602001828054610fba90613019565b80156110075780601f10610fdc57610100808354040283529160200191611007565b820191906000526020600020905b815481529060010190602001808311610fea57829003601f168201915b5050505050908060020160009054906101000a900473ffffffffffffffffffffffffffffffffffffffff169080600301805461104290613019565b80601f016020809104026020016040519081016040528092919081815260200182805461106e90613019565b80156110bb5780601f10611090576101008083540402835291602001916110bb565b820191906000526020600020905b81548152906001019060200180831161109e57829003601f168201915b5050505050905084565b60036020528060005260406000206000915090505481565b6000600360003373ffffffffffffffffffffffffffffffffffffffff1673ffffffffffffffffffffffffffffffffffffffff168152602001908152602001600020540361112957600080fd5b6002600081548092919061113c90612fa2565b91905055506000600560006002548152602001908152602001600020905060025481600001819055508381600101908161117691906131f6565b508281600201908161118891906131f6565b508181600301908161119a91906131f6565b50428160040181905550338160050160006101000a81548173ffffffffffffffffffffffffffffffffffffffff021916908373ffffffffffffffffffffffffffffffffffffffff16021790555060046000600360003373ffffffffffffffffffffffffffffffffffffffff1673ffffffffffffffffffffffffffffffffffffffff168152602001908152602001600020548152602001908152602001600020600401600254908060018154018082558091505060019003906000526020600020016000909190919091505550505050565b6112736121bf565b6000600360008473ffffffffffffffffffffffffffffffffffffffff1673ffffffffffffffffffffffffffffffffffffffff168152602001908152602001600020549050600460008281526020019081526020016000206040518060c0016040529081600082015481526020016001820180546112ef90613019565b80601f016020809104026020016040519081016040528092919081815260200182805461131b90613019565b80156113685780601f1061133d57610100808354040283529160200191611368565b820191906000526020600020905b81548152906001019060200180831161134b57829003601f168201915b505050505081526020016002820160009054906101000a900473ffffffffffffffffffffffffffffffffffffffff1673ffffffffffffffffffffffffffffffffffffffff1673ffffffffffffffffffffffffffffffffffffffff1681526020016003820180546113d790613019565b80601f016020809104026020016040519081016040528092919081815260200182805461140390613019565b80156114505780601f1061142557610100808354040283529160200191611450565b820191906000526020600020905b81548152906001019060200180831161143357829003601f168201915b50505050508152602001600482018054806020026020016040519081016040528092919081815260200182805480156114a857602002820191906000526020600020905b815481526020019060010190808311611494575b505050505081526020016005820180548060200260200160405190810160405280929190818152602001828054801561150057602002820191906000526020600020905b8154815260200190600101908083116114ec575b505050505081525050915050919050565b60015481565b61151f6121bf565b600460008381526020019081526020016000206040518060c00160405290816000820154815260200160018201805461155790613019565b80601f016020809104026020016040519081016040528092919081815260200182805461158390613019565b80156115d05780601f106115a5576101008083540402835291602001916115d0565b820191906000526020600020905b8154815290600101906020018083116115b357829003601f168201915b505050505081526020016002820160009054906101000a900473ffffffffffffffffffffffffffffffffffffffff1673ffffffffffffffffffffffffffffffffffffffff1673ffffffffffffffffffffffffffffffffffffffff16815260200160038201805461163f90613019565b80601f016020809104026020016040519081016040528092919081815260200182805461166b90613019565b80156116b85780601f1061168d576101008083540402835291602001916116b8565b820191906000526020600020905b81548152906001019060200180831161169b57829003601f168201915b505050505081526020016004820180548060200260200160405190810160405280929190818152602001828054801561171057602002820191906000526020600020905b8154815260200190600101908083116116fc575b505050505081526020016005820180548060200260200160405190810160405280929190818152602001828054801561176857602002820191906000526020600020905b815481526020019060010190808311611754575b5050505050815250509050919050565b6000600360003373ffffffffffffffffffffffffffffffffffffffff1673ffffffffffffffffffffffffffffffffffffffff16815260200190815260200160002054146117c457600080fd5b600160008154809291906117d790612fa2565b91905055506000600460006001548152602001908152602001600020905060015481600001819055508281600101908161181191906131f6565b50338160020160006101000a81548173ffffffffffffffffffffffffffffffffffffffff021916908373ffffffffffffffffffffffffffffffffffffffff1602179055508181600301908161186691906131f6565b50600154600360003373ffffffffffffffffffffffffffffffffffffffff1673ffffffffffffffffffffffffffffffffffffffff16815260200190815260200160002081905550505050565b6000808351111561193b5760005b8351811015611939578273ffffffffffffffffffffffffffffffffffffffff168482815181106118f3576118f2612f73565b5b602002602001015173ffffffffffffffffffffffffffffffffffffffff16036119265760018161192391906132c8565b91505b808061193190612fa2565b9150506118c0565b505b92915050565b6060600060025467ffffffffffffffff81111561196157611960612848565b5b60405190808252806020026020018201604052801561199a57816020015b61198761215d565b81526020019060019003908161197f5790505b5090506000600190505b60025481116119f95760006119b882610aca565b905080836001846119c99190612f3f565b815181106119da576119d9612f73565b5b60200260200101819052505080806119f190612fa2565b9150506119a4565b508091505090565b3373ffffffffffffffffffffffffffffffffffffffff166005600083815260200190815260200160002060050160009054906101000a900473ffffffffffffffffffffffffffffffffffffffff1673ffffffffffffffffffffffffffffffffffffffff1614611a6f57600080fd5b60056000828152602001908152602001600020600080820160009055600182016000611a9b919061220b565b600282016000611aab919061220b565b600382016000611abb919061220b565b60048201600090556005820160006101000a81549073ffffffffffffffffffffffffffffffffffffffff0219169055600682016000611afa919061224b565b600782016000611b0a919061224b565b600882016000611b1a919061226c565b505060005b60046000600360003373ffffffffffffffffffffffffffffffffffffffff1673ffffffffffffffffffffffffffffffffffffffff16815260200190815260200160002054815260200190815260200160002060040180549050811015611c80578160046000600360003373ffffffffffffffffffffffffffffffffffffffff1673ffffffffffffffffffffffffffffffffffffffff1681526020019081526020016000205481526020019081526020016000206004018281548110611be757611be6612f73565b5b906000526020600020015403611c6d5760046000600360003373ffffffffffffffffffffffffffffffffffffffff1673ffffffffffffffffffffffffffffffffffffffff1681526020019081526020016000205481526020019081526020016000206004018181548110611c5e57611c5d612f73565b5b90600052602060002001600090555b8080611c7890612fa2565b915050611b1f565b5050565b6005602052806000526040600020600091509050806000015490806001018054611cad90613019565b80601f0160208091040260200160405190810160405280929190818152602001828054611cd990613019565b8015611d265780601f10611cfb57610100808354040283529160200191611d26565b820191906000526020600020905b815481529060010190602001808311611d0957829003601f168201915b505050505090806002018054611d3b90613019565b80601f0160208091040260200160405190810160405280929190818152602001828054611d6790613019565b8015611db45780601f10611d8957610100808354040283529160200191611db4565b820191906000526020600020905b815481529060010190602001808311611d9757829003601f168201915b505050505090806003018054611dc990613019565b80601f0160208091040260200160405190810160405280929190818152602001828054611df590613019565b8015611e425780601f10611e1757610100808354040283529160200191611e42565b820191906000526020600020905b815481529060010190602001808311611e2557829003601f168201915b5050505050908060040154908060050160009054906101000a900473ffffffffffffffffffffffffffffffffffffffff16905086565b6060808091505090565b60025481565b60008054906101000a900473ffffffffffffffffffffffffffffffffffffffff1681565b60606000611eb98361126b565b9050600081608001515111611ecd57600080fd5b600081608001515167ffffffffffffffff811115611eee57611eed612848565b5b604051908082528060200260200182016040528015611f2757816020015b611f1461215d565b815260200190600190039081611f0c5790505b50905060005b826080015151811015611f98576000611f6384608001518381518110611f5657611f55612f73565b5b6020026020010151610aca565b905080838381518110611f7957611f78612f73565b5b6020026020010181905250508080611f9090612fa2565b915050611f2d565b508092505050919050565b6060600080600190505b600254811161203d576000611fc182610aca565b905084604051602001611fd4919061335a565b604051602081830303815290604052805190602001208160400151604051602001611fff919061335a565b604051602081830303815290604052805190602001200361202957828061202590612fa2565b9350505b50808061203590612fa2565b915050611fad565b5060008167ffffffffffffffff81111561205a57612059612848565b5b6040519080825280602002602001820160405280156120885781602001602082028036833780820191505090505b509050600080831115612152576000600190505b60025481116121505760006120b082610aca565b9050866040516020016120c3919061335a565b6040516020818303038152906040528051906020012081604001516040516020016120ee919061335a565b604051602081830303815290604052805190602001200361213c57806000015184848151811061212157612120612f73565b5b602002602001018181525050828061213890612fa2565b9350505b50808061214890612fa2565b91505061209c565b505b819350505050919050565b6040518061012001604052806000815260200160608152602001606081526020016060815260200160008152602001600073ffffffffffffffffffffffffffffffffffffffff1681526020016060815260200160608152602001606081525090565b6040518060c001604052806000815260200160608152602001600073ffffffffffffffffffffffffffffffffffffffff1681526020016060815260200160608152602001606081525090565b50805461221790613019565b6000825580601f106122295750612248565b601f016020900490600052602060002090810190612247919061228d565b5b50565b5080546000825590600052602060002090810190612269919061228d565b50565b508054600082559060005260206000209081019061228a919061228d565b50565b5b808211156122a657600081600090555060010161228e565b5090565b6000604051905090565b600080fd5b600080fd5b6000819050919050565b6122d1816122be565b81146122dc57600080fd5b50565b6000813590506122ee816122c8565b92915050565b60006020828403121561230a576123096122b4565b5b6000612318848285016122df565b91505092915050565b600081519050919050565b600082825260208201905092915050565b6000819050602082019050919050565b612356816122be565b82525050565b600081519050919050565b600082825260208201905092915050565b60005b8381101561239657808201518184015260208101905061237b565b838111156123a5576000848401525b50505050565b6000601f19601f8301169050919050565b60006123c78261235c565b6123d18185612367565b93506123e1818560208601612378565b6123ea816123ab565b840191505092915050565b600073ffffffffffffffffffffffffffffffffffffffff82169050919050565b6000612420826123f5565b9050919050565b61243081612415565b82525050565b600081519050919050565b600082825260208201905092915050565b6000819050602082019050919050565b600061246e8383612427565b60208301905092915050565b6000602082019050919050565b600061249282612436565b61249c8185612441565b93506124a783612452565b8060005b838110156124d85781516124bf8882612462565b97506124ca8361247a565b9250506001810190506124ab565b5085935050505092915050565b600081519050919050565b600082825260208201905092915050565b6000819050602082019050919050565b600061251d838361234d565b60208301905092915050565b6000602082019050919050565b6000612541826124e5565b61254b81856124f0565b935061255683612501565b8060005b8381101561258757815161256e8882612511565b975061257983612529565b92505060018101905061255a565b5085935050505092915050565b6000610120830160008301516125ad600086018261234d565b50602083015184820360208601526125c582826123bc565b915050604083015184820360408601526125df82826123bc565b915050606083015184820360608601526125f982826123bc565b915050608083015161260e608086018261234d565b5060a083015161262160a0860182612427565b5060c083015184820360c08601526126398282612487565b91505060e083015184820360e08601526126538282612487565b91505061010083015184820361010086015261266f8282612536565b9150508091505092915050565b60006126888383612594565b905092915050565b6000602082019050919050565b60006126a882612321565b6126b2818561232c565b9350836020820285016126c48561233d565b8060005b8581101561270057848403895281516126e1858261267c565b94506126ec83612690565b925060208a019950506001810190506126c8565b50829750879550505050505092915050565b6000602082019050818103600083015261272c818461269d565b905092915050565b60006101208301600083015161274d600086018261234d565b506020830151848203602086015261276582826123bc565b9150506040830151848203604086015261277f82826123bc565b9150506060830151848203606086015261279982826123bc565b91505060808301516127ae608086018261234d565b5060a08301516127c160a0860182612427565b5060c083015184820360c08601526127d98282612487565b91505060e083015184820360e08601526127f38282612487565b91505061010083015184820361010086015261280f8282612536565b9150508091505092915050565b600060208201905081810360008301526128368184612734565b905092915050565b600080fd5b600080fd5b7f4e487b7100000000000000000000000000000000000000000000000000000000600052604160045260246000fd5b612880826123ab565b810181811067ffffffffffffffff8211171561289f5761289e612848565b5b80604052505050565b60006128b26122aa565b90506128be8282612877565b919050565b600067ffffffffffffffff8211156128de576128dd612848565b5b6128e7826123ab565b9050602081019050919050565b82818337600083830152505050565b6000612916612911846128c3565b6128a8565b90508281526020810184848401111561293257612931612843565b5b61293d8482856128f4565b509392505050565b600082601f83011261295a5761295961283e565b5b813561296a848260208601612903565b91505092915050565b600060208284031215612989576129886122b4565b5b600082013567ffffffffffffffff8111156129a7576129a66122b9565b5b6129b384828501612945565b91505092915050565b6129c5816122be565b82525050565b600082825260208201905092915050565b60006129e78261235c565b6129f181856129cb565b9350612a01818560208601612378565b612a0a816123ab565b840191505092915050565b612a1e81612415565b82525050565b6000608082019050612a3960008301876129bc565b8181036020830152612a4b81866129dc565b9050612a5a6040830185612a15565b8181036060830152612a6c81846129dc565b905095945050505050565b612a8081612415565b8114612a8b57600080fd5b50565b600081359050612a9d81612a77565b92915050565b600060208284031215612ab957612ab86122b4565b5b6000612ac784828501612a8e565b91505092915050565b6000602082019050612ae560008301846129bc565b92915050565b600080600060608486031215612b0457612b036122b4565b5b600084013567ffffffffffffffff811115612b2257612b216122b9565b5b612b2e86828701612945565b935050602084013567ffffffffffffffff811115612b4f57612b4e6122b9565b5b612b5b86828701612945565b925050604084013567ffffffffffffffff811115612b7c57612b7b6122b9565b5b612b8886828701612945565b9150509250925092565b600060c083016000830151612baa600086018261234d565b5060208301518482036020860152612bc282826123bc565b9150506040830151612bd76040860182612427565b5060608301518482036060860152612bef82826123bc565b91505060808301518482036080860152612c098282612536565b91505060a083015184820360a0860152612c238282612536565b9150508091505092915050565b60006020820190508181036000830152612c4a8184612b92565b905092915050565b60008060408385031215612c6957612c686122b4565b5b600083013567ffffffffffffffff811115612c8757612c866122b9565b5b612c9385828601612945565b925050602083013567ffffffffffffffff811115612cb457612cb36122b9565b5b612cc085828601612945565b9150509250929050565b600067ffffffffffffffff821115612ce557612ce4612848565b5b602082029050602081019050919050565b600080fd5b6000612d0e612d0984612cca565b6128a8565b90508083825260208201905060208402830185811115612d3157612d30612cf6565b5b835b81811015612d5a5780612d468882612a8e565b845260208401935050602081019050612d33565b5050509392505050565b600082601f830112612d7957612d7861283e565b5b8135612d89848260208601612cfb565b91505092915050565b60008060408385031215612da957612da86122b4565b5b600083013567ffffffffffffffff811115612dc757612dc66122b9565b5b612dd385828601612d64565b9250506020612de485828601612a8e565b9150509250929050565b600060c082019050612e0360008301896129bc565b8181036020830152612e1581886129dc565b90508181036040830152612e2981876129dc565b90508181036060830152612e3d81866129dc565b9050612e4c60808301856129bc565b612e5960a0830184612a15565b979650505050505050565b600082825260208201905092915050565b6000612e80826124e5565b612e8a8185612e64565b9350612e9583612501565b8060005b83811015612ec6578151612ead8882612511565b9750612eb883612529565b925050600181019050612e99565b5085935050505092915050565b60006020820190508181036000830152612eed8184612e75565b905092915050565b6000602082019050612f0a6000830184612a15565b92915050565b7f4e487b7100000000000000000000000000000000000000000000000000000000600052601160045260246000fd5b6000612f4a826122be565b9150612f55836122be565b925082821015612f6857612f67612f10565b5b828203905092915050565b7f4e487b7100000000000000000000000000000000000000000000000000000000600052603260045260246000fd5b6000612fad826122be565b91507fffffffffffffffffffffffffffffffffffffffffffffffffffffffffffffffff8203612fdf57612fde612f10565b5b600182019050919050565b7f4e487b7100000000000000000000000000000000000000000000000000000000600052602260045260246000fd5b6000600282049050600182168061303157607f821691505b60208210810361304457613043612fea565b5b50919050565b60008190508160005260206000209050919050565b60006020601f8301049050919050565b600082821b905092915050565b6000600883026130ac7fffffffffffffffffffffffffffffffffffffffffffffffffffffffffffffffff8261306f565b6130b6868361306f565b95508019841693508086168417925050509392505050565b6000819050919050565b60006130f36130ee6130e9846122be565b6130ce565b6122be565b9050919050565b6000819050919050565b61310d836130d8565b613121613119826130fa565b84845461307c565b825550505050565b600090565b613136613129565b613141818484613104565b505050565b5b818110156131655761315a60008261312e565b600181019050613147565b5050565b601f8211156131aa5761317b8161304a565b6131848461305f565b81016020851015613193578190505b6131a761319f8561305f565b830182613146565b50505b505050565b600082821c905092915050565b60006131cd600019846008026131af565b1980831691505092915050565b60006131e683836131bc565b9150826002028217905092915050565b6131ff8261235c565b67ffffffffffffffff81111561321857613217612848565b5b6132228254613019565b61322d828285613169565b600060209050601f831160018114613260576000841561324e578287015190505b61325885826131da565b8655506132c0565b601f19841661326e8661304a565b60005b8281101561329657848901518255600182019150602085019450602081019050613271565b868310156132b357848901516132af601f8916826131bc565b8355505b6001600288020188555050505b505050505050565b60006132d3826122be565b91506132de836122be565b9250827fffffffffffffffffffffffffffffffffffffffffffffffffffffffffffffffff0382111561331357613312612f10565b5b828201905092915050565b600081905092915050565b60006133348261235c565b61333e818561331e565b935061334e818560208601612378565b80840191505092915050565b60006133668284613329565b91508190509291505056fea2646970667358221220df88d563d14fb11dd87245b7a6a216feafa2fc8721cdc98bef9a0cdfe681f80164736f6c634300080f0033",
  "immutableReferences": {},
  "source": "// SPDX-License-Identifier: MIT\npragma solidity >=0.4.22 <0.9.0;\n\nimport \"./YoutubeData.sol\";\n\ncontract Videos is YoutubeData {\n    //  -------------------- Video functions ---------------------:\n\n    function downloadVideo(string memory _Hash, string memory _Tayp, string memory _title) public {\n        require(userId[msg.sender] != 0);\n        videosCount++;\n        video storage _video = videos[videosCount];\n        _video.id = videosCount;\n        _video.videoHash = _Hash;\n        _video.videoTayp = _Tayp;\n        _video.videoTitle = _title;\n        _video.timestamp = block.timestamp;\n        _video.owner = msg.sender;\n\n        users[userId[msg.sender]].userVideos.push(videosCount);\n    }\n\n    function deleteVideo(uint256 _videoId) public {\n        require(videos[_videoId].owner == msg.sender);\n        delete (videos[_videoId]);\n        for (\n            uint256 i = 0;\n            i < users[userId[msg.sender]].userVideos.length;\n            i++\n        ) {\n            if (users[userId[msg.sender]].userVideos[i] == _videoId) {\n                delete (users[userId[msg.sender]].userVideos[i]);\n            }\n        }\n    }\n\n    function likeVideo(uint256 _videoId) public {\n        require(userId[msg.sender] != 0);\n        uint256 _LikesIndex = _alreadyReact(videos[_videoId].likes, msg.sender);\n        uint256 _DislikeIndex = _alreadyReact(\n            videos[_videoId].dislike,\n            msg.sender\n        );\n        if (_LikesIndex == 0) {\n            videos[_videoId].likes.push(msg.sender);\n\n            if (_DislikeIndex > 0) {\n                delete (videos[_videoId].dislike[_DislikeIndex - 1]);\n            }\n        } else {\n            delete (videos[_videoId].likes[_LikesIndex - 1]);\n        }\n    }\n\n    function dislikeVideo(uint256 _videoId) public {\n        uint256 _LikesIndex = _alreadyReact(videos[_videoId].likes, msg.sender);\n        uint256 _DislikeIndex = _alreadyReact(\n            videos[_videoId].dislike,\n            msg.sender\n        );\n\n        if (_DislikeIndex == 0) {\n            videos[_videoId].dislike.push(msg.sender);\n            if (_LikesIndex > 0) {\n                delete (videos[_videoId].likes[_LikesIndex - 1]);\n            }\n        } else {\n            delete (videos[_videoId].dislike[_DislikeIndex - 1]);\n        }\n    }\n\n    function getVideo(uint256 _VideoId) public view returns (video memory) {\n        return videos[_VideoId];\n    }\n\n    function functionPublic() public pure returns (uint256[] memory) {\n        uint256[] memory newArray;\n\n        return newArray;\n    }\n\n    function getAllVideos() public view returns (video[] memory) {\n        video[] memory _AllVideos = new video[](videosCount);\n\n        for (uint256 i = 1; i <= videosCount; i++) {\n            video memory _video = getVideo(i);\n            _AllVideos[i - 1] = _video;\n        }\n\n        return _AllVideos;\n    }\n\n    function _getAllIdsVideosByType(string memory _videoType)\n        private\n        view\n        returns (uint256[] memory)\n    {\n        // ...........get length first :\n        uint256 _length;\n        for (uint256 i = 1; i <= videosCount; i++) {\n            video memory _video = getVideo(i);\n            if (\n                keccak256(abi.encodePacked(_video.videoTayp)) ==\n                keccak256(abi.encodePacked(_videoType))\n            ) {\n                _length++;\n            }\n        }\n        uint256[] memory _videosId = new uint256[](_length);\n        uint256 _index;\n        if (_length > 0) {\n            for (uint256 i = 1; i <= videosCount; i++) {\n                video memory _video = getVideo(i);\n                if (\n                    keccak256(abi.encodePacked(_video.videoTayp)) ==\n                    keccak256(abi.encodePacked(_videoType))\n                ) {\n                    _videosId[_index] = _video.id;\n                    _index++;\n                }\n            }\n        }\n        return _videosId;\n    }\n\n    function getAllVideoByType(string memory _videoType)\n        public\n        view\n        returns (video[] memory)\n    {\n        uint256[] memory _videosId = _getAllIdsVideosByType(_videoType);\n\n        video[] memory _AllVideos = new video[](_videosId.length);\n\n        for (uint256 i = 0; i < _videosId.length; i++) {\n            video memory _video = getVideo(_videosId[i]);\n            _AllVideos[i] = _video;\n        }\n        return _AllVideos;\n    }\n\n    function getUserVideosById(uint256 _userId)\n        public\n        view\n        returns (video[] memory)\n    {\n        user memory _user = getUserById(_userId);\n        require(_user.userVideos.length > 0);\n        video[] memory _AllVideos = new video[](_user.userVideos.length);\n        for (uint256 i = 0; i < _user.userVideos.length; i++) {\n            video memory _video = getVideo(_user.userVideos[i]);\n\n            _AllVideos[i] = _video;\n        }\n\n        return _AllVideos;\n    }\n\n    function getUserVideosByAddress(address _userAddress)\n        public\n        view\n        returns (video[] memory)\n    {\n        user memory _user = getUserByAddress(_userAddress);\n        require(_user.userVideos.length > 0);\n        video[] memory _AllVideos = new video[](_user.userVideos.length);\n        for (uint256 i = 0; i < _user.userVideos.length; i++) {\n            video memory _video = getVideo(_user.userVideos[i]);\n\n            _AllVideos[i] = _video;\n        }\n\n        return _AllVideos;\n    }\n}\n",
  "sourcePath": "C:\\Users\\hamza\\Desktop\\web3-tasks\\11_Youtube_web3\\contracts\\Videos.sol",
  "compiler": {
    "name": "solc",
    "version": "0.8.15+commit.e14f2714.Emscripten.clang"
  },
  "schemaVersion": "3.4.8",
  "updatedAt": "2022-08-21T19:51:34.664Z",
  "networkType": "ethereum",
  "devdoc": {
    "kind": "dev",
    "methods": {},
    "version": 1
  },
  "userdoc": {
    "kind": "user",
    "methods": {},
    "version": 1
  }
}