{
  "contractName": "YoutubeData",
  "abi": [
    {
      "inputs": [],
      "stateMutability": "nonpayable",
      "type": "constructor"
    },
    {
      "inputs": [],
      "name": "admin",
      "outputs": [
        {
          "internalType": "address",
          "name": "",
          "type": "address"
        }
      ],
      "stateMutability": "view",
      "type": "function",
      "constant": true
    },
    {
      "inputs": [
        {
          "internalType": "address",
          "name": "",
          "type": "address"
        }
      ],
      "name": "userId",
      "outputs": [
        {
          "internalType": "uint256",
          "name": "",
          "type": "uint256"
        }
      ],
      "stateMutability": "view",
      "type": "function",
      "constant": true
    },
    {
      "inputs": [
        {
          "internalType": "uint256",
          "name": "",
          "type": "uint256"
        }
      ],
      "name": "users",
      "outputs": [
        {
          "internalType": "uint256",
          "name": "id",
          "type": "uint256"
        },
        {
          "internalType": "string",
          "name": "userName",
          "type": "string"
        },
        {
          "internalType": "address",
          "name": "userAddress",
          "type": "address"
        },
        {
          "internalType": "string",
          "name": "profileImag",
          "type": "string"
        }
      ],
      "stateMutability": "view",
      "type": "function",
      "constant": true
    },
    {
      "inputs": [],
      "name": "usersCount",
      "outputs": [
        {
          "internalType": "uint256",
          "name": "",
          "type": "uint256"
        }
      ],
      "stateMutability": "view",
      "type": "function",
      "constant": true
    },
    {
      "inputs": [
        {
          "internalType": "uint256",
          "name": "",
          "type": "uint256"
        }
      ],
      "name": "videos",
      "outputs": [
        {
          "internalType": "uint256",
          "name": "id",
          "type": "uint256"
        },
        {
          "internalType": "string",
          "name": "videoHash",
          "type": "string"
        },
        {
          "internalType": "string",
          "name": "videoTayp",
          "type": "string"
        },
        {
          "internalType": "string",
          "name": "videoTitle",
          "type": "string"
        },
        {
          "internalType": "uint256",
          "name": "timestamp",
          "type": "uint256"
        },
        {
          "internalType": "address",
          "name": "owner",
          "type": "address"
        }
      ],
      "stateMutability": "view",
      "type": "function",
      "constant": true
    },
    {
      "inputs": [],
      "name": "videosCount",
      "outputs": [
        {
          "internalType": "uint256",
          "name": "",
          "type": "uint256"
        }
      ],
      "stateMutability": "view",
      "type": "function",
      "constant": true
    },
    {
      "inputs": [
        {
          "internalType": "string",
          "name": "_userName",
          "type": "string"
        },
        {
          "internalType": "string",
          "name": "_profileImag",
          "type": "string"
        }
      ],
      "name": "signUp",
      "outputs": [],
      "stateMutability": "nonpayable",
      "type": "function"
    },
    {
      "inputs": [
        {
          "internalType": "address[]",
          "name": "_interactors",
          "type": "address[]"
        },
        {
          "internalType": "address",
          "name": "_owner",
          "type": "address"
        }
      ],
      "name": "_alreadyReact",
      "outputs": [
        {
          "internalType": "uint256",
          "name": "_indexOfOwner",
          "type": "uint256"
        }
      ],
      "stateMutability": "pure",
      "type": "function",
      "constant": true
    },
    {
      "inputs": [
        {
          "internalType": "uint256",
          "name": "_userId",
          "type": "uint256"
        }
      ],
      "name": "getUserById",
      "outputs": [
        {
          "components": [
            {
              "internalType": "uint256",
              "name": "id",
              "type": "uint256"
            },
            {
              "internalType": "string",
              "name": "userName",
              "type": "string"
            },
            {
              "internalType": "address",
              "name": "userAddress",
              "type": "address"
            },
            {
              "internalType": "string",
              "name": "profileImag",
              "type": "string"
            },
            {
              "internalType": "uint256[]",
              "name": "userVideos",
              "type": "uint256[]"
            },
            {
              "internalType": "uint256[]",
              "name": "videoSaved",
              "type": "uint256[]"
            }
          ],
          "internalType": "struct YoutubeData.user",
          "name": "",
          "type": "tuple"
        }
      ],
      "stateMutability": "view",
      "type": "function",
      "constant": true
    },
    {
      "inputs": [
        {
          "internalType": "address",
          "name": "_userAddress",
          "type": "address"
        }
      ],
      "name": "getUserByAddress",
      "outputs": [
        {
          "components": [
            {
              "internalType": "uint256",
              "name": "id",
              "type": "uint256"
            },
            {
              "internalType": "string",
              "name": "userName",
              "type": "string"
            },
            {
              "internalType": "address",
              "name": "userAddress",
              "type": "address"
            },
            {
              "internalType": "string",
              "name": "profileImag",
              "type": "string"
            },
            {
              "internalType": "uint256[]",
              "name": "userVideos",
              "type": "uint256[]"
            },
            {
              "internalType": "uint256[]",
              "name": "videoSaved",
              "type": "uint256[]"
            }
          ],
          "internalType": "struct YoutubeData.user",
          "name": "",
          "type": "tuple"
        }
      ],
      "stateMutability": "view",
      "type": "function",
      "constant": true
    }
  ],
  "bytecode": "0x608060405234801561001057600080fd5b50336000806101000a81548173ffffffffffffffffffffffffffffffffffffffff021916908373ffffffffffffffffffffffffffffffffffffffff160217905550611869806100606000396000f3fe608060405234801561001057600080fd5b506004361061009e5760003560e01c8063a469a33211610066578063a469a33214610184578063b2f46439146101a0578063e6821bf5146101d0578063ef08523b14610205578063f851a440146102235761009e565b8063365b98b2146100a3578063376fe102146100d657806369c212f6146101065780636ba13a82146101365780636ed6da9e14610154575b600080fd5b6100bd60048036038101906100b89190610d43565b610241565b6040516100cd9493929190610e59565b60405180910390f35b6100f060048036038101906100eb9190610ed8565b6103a1565b6040516100fd9190610f05565b60405180910390f35b610120600480360381019061011b9190610ed8565b6103b9565b60405161012d91906110d5565b60405180910390f35b61013e61065f565b60405161014b9190610f05565b60405180910390f35b61016e60048036038101906101699190610d43565b610665565b60405161017b91906110d5565b60405180910390f35b61019e6004803603810190610199919061122c565b6108c6565b005b6101ba60048036038101906101b5919061136c565b610a00565b6040516101c79190610f05565b60405180910390f35b6101ea60048036038101906101e59190610d43565b610a8f565b6040516101fc969594939291906113c8565b60405180910390f35b61020d610c83565b60405161021a9190610f05565b60405180910390f35b61022b610c89565b604051610238919061143e565b60405180910390f35b600460205280600052604060002060009150905080600001549080600101805461026a90611488565b80601f016020809104026020016040519081016040528092919081815260200182805461029690611488565b80156102e35780601f106102b8576101008083540402835291602001916102e3565b820191906000526020600020905b8154815290600101906020018083116102c657829003601f168201915b5050505050908060020160009054906101000a900473ffffffffffffffffffffffffffffffffffffffff169080600301805461031e90611488565b80601f016020809104026020016040519081016040528092919081815260200182805461034a90611488565b80156103975780601f1061036c57610100808354040283529160200191610397565b820191906000526020600020905b81548152906001019060200180831161037a57829003601f168201915b5050505050905084565b60036020528060005260406000206000915090505481565b6103c1610cad565b6000600360008473ffffffffffffffffffffffffffffffffffffffff1673ffffffffffffffffffffffffffffffffffffffff168152602001908152602001600020549050600460008281526020019081526020016000206040518060c00160405290816000820154815260200160018201805461043d90611488565b80601f016020809104026020016040519081016040528092919081815260200182805461046990611488565b80156104b65780601f1061048b576101008083540402835291602001916104b6565b820191906000526020600020905b81548152906001019060200180831161049957829003601f168201915b505050505081526020016002820160009054906101000a900473ffffffffffffffffffffffffffffffffffffffff1673ffffffffffffffffffffffffffffffffffffffff1673ffffffffffffffffffffffffffffffffffffffff16815260200160038201805461052590611488565b80601f016020809104026020016040519081016040528092919081815260200182805461055190611488565b801561059e5780601f106105735761010080835404028352916020019161059e565b820191906000526020600020905b81548152906001019060200180831161058157829003601f168201915b50505050508152602001600482018054806020026020016040519081016040528092919081815260200182805480156105f657602002820191906000526020600020905b8154815260200190600101908083116105e2575b505050505081526020016005820180548060200260200160405190810160405280929190818152602001828054801561064e57602002820191906000526020600020905b81548152602001906001019080831161063a575b505050505081525050915050919050565b60015481565b61066d610cad565b600460008381526020019081526020016000206040518060c0016040529081600082015481526020016001820180546106a590611488565b80601f01602080910402602001604051908101604052809291908181526020018280546106d190611488565b801561071e5780601f106106f35761010080835404028352916020019161071e565b820191906000526020600020905b81548152906001019060200180831161070157829003601f168201915b505050505081526020016002820160009054906101000a900473ffffffffffffffffffffffffffffffffffffffff1673ffffffffffffffffffffffffffffffffffffffff1673ffffffffffffffffffffffffffffffffffffffff16815260200160038201805461078d90611488565b80601f01602080910402602001604051908101604052809291908181526020018280546107b990611488565b80156108065780601f106107db57610100808354040283529160200191610806565b820191906000526020600020905b8154815290600101906020018083116107e957829003601f168201915b505050505081526020016004820180548060200260200160405190810160405280929190818152602001828054801561085e57602002820191906000526020600020905b81548152602001906001019080831161084a575b50505050508152602001600582018054806020026020016040519081016040528092919081815260200182805480156108b657602002820191906000526020600020905b8154815260200190600101908083116108a2575b5050505050815250509050919050565b6000600360003373ffffffffffffffffffffffffffffffffffffffff1673ffffffffffffffffffffffffffffffffffffffff168152602001908152602001600020541461091257600080fd5b60016000815480929190610925906114e8565b91905055506000600460006001548152602001908152602001600020905060015481600001819055508281600101908161095f91906116dc565b50338160020160006101000a81548173ffffffffffffffffffffffffffffffffffffffff021916908373ffffffffffffffffffffffffffffffffffffffff160217905550818160030190816109b491906116dc565b50600154600360003373ffffffffffffffffffffffffffffffffffffffff1673ffffffffffffffffffffffffffffffffffffffff16815260200190815260200160002081905550505050565b60008083511115610a895760005b8351811015610a87578273ffffffffffffffffffffffffffffffffffffffff16848281518110610a4157610a406117ae565b5b602002602001015173ffffffffffffffffffffffffffffffffffffffff1603610a7457600181610a7191906117dd565b91505b8080610a7f906114e8565b915050610a0e565b505b92915050565b6005602052806000526040600020600091509050806000015490806001018054610ab890611488565b80601f0160208091040260200160405190810160405280929190818152602001828054610ae490611488565b8015610b315780601f10610b0657610100808354040283529160200191610b31565b820191906000526020600020905b815481529060010190602001808311610b1457829003601f168201915b505050505090806002018054610b4690611488565b80601f0160208091040260200160405190810160405280929190818152602001828054610b7290611488565b8015610bbf5780601f10610b9457610100808354040283529160200191610bbf565b820191906000526020600020905b815481529060010190602001808311610ba257829003601f168201915b505050505090806003018054610bd490611488565b80601f0160208091040260200160405190810160405280929190818152602001828054610c0090611488565b8015610c4d5780601f10610c2257610100808354040283529160200191610c4d565b820191906000526020600020905b815481529060010190602001808311610c3057829003601f168201915b5050505050908060040154908060050160009054906101000a900473ffffffffffffffffffffffffffffffffffffffff16905086565b60025481565b60008054906101000a900473ffffffffffffffffffffffffffffffffffffffff1681565b6040518060c001604052806000815260200160608152602001600073ffffffffffffffffffffffffffffffffffffffff1681526020016060815260200160608152602001606081525090565b6000604051905090565b600080fd5b600080fd5b6000819050919050565b610d2081610d0d565b8114610d2b57600080fd5b50565b600081359050610d3d81610d17565b92915050565b600060208284031215610d5957610d58610d03565b5b6000610d6784828501610d2e565b91505092915050565b610d7981610d0d565b82525050565b600081519050919050565b600082825260208201905092915050565b60005b83811015610db9578082015181840152602081019050610d9e565b83811115610dc8576000848401525b50505050565b6000601f19601f8301169050919050565b6000610dea82610d7f565b610df48185610d8a565b9350610e04818560208601610d9b565b610e0d81610dce565b840191505092915050565b600073ffffffffffffffffffffffffffffffffffffffff82169050919050565b6000610e4382610e18565b9050919050565b610e5381610e38565b82525050565b6000608082019050610e6e6000830187610d70565b8181036020830152610e808186610ddf565b9050610e8f6040830185610e4a565b8181036060830152610ea18184610ddf565b905095945050505050565b610eb581610e38565b8114610ec057600080fd5b50565b600081359050610ed281610eac565b92915050565b600060208284031215610eee57610eed610d03565b5b6000610efc84828501610ec3565b91505092915050565b6000602082019050610f1a6000830184610d70565b92915050565b610f2981610d0d565b82525050565b600082825260208201905092915050565b6000610f4b82610d7f565b610f558185610f2f565b9350610f65818560208601610d9b565b610f6e81610dce565b840191505092915050565b610f8281610e38565b82525050565b600081519050919050565b600082825260208201905092915050565b6000819050602082019050919050565b6000610fc08383610f20565b60208301905092915050565b6000602082019050919050565b6000610fe482610f88565b610fee8185610f93565b9350610ff983610fa4565b8060005b8381101561102a5781516110118882610fb4565b975061101c83610fcc565b925050600181019050610ffd565b5085935050505092915050565b600060c08301600083015161104f6000860182610f20565b50602083015184820360208601526110678282610f40565b915050604083015161107c6040860182610f79565b50606083015184820360608601526110948282610f40565b915050608083015184820360808601526110ae8282610fd9565b91505060a083015184820360a08601526110c88282610fd9565b9150508091505092915050565b600060208201905081810360008301526110ef8184611037565b905092915050565b600080fd5b600080fd5b7f4e487b7100000000000000000000000000000000000000000000000000000000600052604160045260246000fd5b61113982610dce565b810181811067ffffffffffffffff8211171561115857611157611101565b5b80604052505050565b600061116b610cf9565b90506111778282611130565b919050565b600067ffffffffffffffff82111561119757611196611101565b5b6111a082610dce565b9050602081019050919050565b82818337600083830152505050565b60006111cf6111ca8461117c565b611161565b9050828152602081018484840111156111eb576111ea6110fc565b5b6111f68482856111ad565b509392505050565b600082601f830112611213576112126110f7565b5b81356112238482602086016111bc565b91505092915050565b6000806040838503121561124357611242610d03565b5b600083013567ffffffffffffffff81111561126157611260610d08565b5b61126d858286016111fe565b925050602083013567ffffffffffffffff81111561128e5761128d610d08565b5b61129a858286016111fe565b9150509250929050565b600067ffffffffffffffff8211156112bf576112be611101565b5b602082029050602081019050919050565b600080fd5b60006112e86112e3846112a4565b611161565b9050808382526020820190506020840283018581111561130b5761130a6112d0565b5b835b8181101561133457806113208882610ec3565b84526020840193505060208101905061130d565b5050509392505050565b600082601f830112611353576113526110f7565b5b81356113638482602086016112d5565b91505092915050565b6000806040838503121561138357611382610d03565b5b600083013567ffffffffffffffff8111156113a1576113a0610d08565b5b6113ad8582860161133e565b92505060206113be85828601610ec3565b9150509250929050565b600060c0820190506113dd6000830189610d70565b81810360208301526113ef8188610ddf565b905081810360408301526114038187610ddf565b905081810360608301526114178186610ddf565b90506114266080830185610d70565b61143360a0830184610e4a565b979650505050505050565b60006020820190506114536000830184610e4a565b92915050565b7f4e487b7100000000000000000000000000000000000000000000000000000000600052602260045260246000fd5b600060028204905060018216806114a057607f821691505b6020821081036114b3576114b2611459565b5b50919050565b7f4e487b7100000000000000000000000000000000000000000000000000000000600052601160045260246000fd5b60006114f382610d0d565b91507fffffffffffffffffffffffffffffffffffffffffffffffffffffffffffffffff8203611525576115246114b9565b5b600182019050919050565b60008190508160005260206000209050919050565b60006020601f8301049050919050565b600082821b905092915050565b6000600883026115927fffffffffffffffffffffffffffffffffffffffffffffffffffffffffffffffff82611555565b61159c8683611555565b95508019841693508086168417925050509392505050565b6000819050919050565b60006115d96115d46115cf84610d0d565b6115b4565b610d0d565b9050919050565b6000819050919050565b6115f3836115be565b6116076115ff826115e0565b848454611562565b825550505050565b600090565b61161c61160f565b6116278184846115ea565b505050565b5b8181101561164b57611640600082611614565b60018101905061162d565b5050565b601f8211156116905761166181611530565b61166a84611545565b81016020851015611679578190505b61168d61168585611545565b83018261162c565b50505b505050565b600082821c905092915050565b60006116b360001984600802611695565b1980831691505092915050565b60006116cc83836116a2565b9150826002028217905092915050565b6116e582610d7f565b67ffffffffffffffff8111156116fe576116fd611101565b5b6117088254611488565b61171382828561164f565b600060209050601f8311600181146117465760008415611734578287015190505b61173e85826116c0565b8655506117a6565b601f19841661175486611530565b60005b8281101561177c57848901518255600182019150602085019450602081019050611757565b868310156117995784890151611795601f8916826116a2565b8355505b6001600288020188555050505b505050505050565b7f4e487b7100000000000000000000000000000000000000000000000000000000600052603260045260246000fd5b60006117e882610d0d565b91506117f383610d0d565b9250827fffffffffffffffffffffffffffffffffffffffffffffffffffffffffffffffff03821115611828576118276114b9565b5b82820190509291505056fea2646970667358221220562d45248138d2795c06a54bec9b1e0d2534b655783d702b69188d9e19f1968b64736f6c634300080f0033",
  "immutableReferences": {},
  "source": "// SPDX-License-Identifier: MIT\npragma solidity >=0.4.22 <0.9.0;\n\ncontract YoutubeData {\n    address public admin;\n\n    constructor() {\n        admin = msg.sender;\n    }\n\n    struct user {\n        uint256 id;\n        string userName;\n        address userAddress;\n        string profileImag;\n        uint256[] userVideos;\n        uint256[] videoSaved;\n    }\n    struct reply {\n        uint256 id;\n        address owner;\n        string reply;\n        uint256 timestamp;\n        address[] likes;\n        address[] dislike;\n    }\n    struct comment {\n        uint256 id;\n        address owner;\n        string comment;\n        uint256 timestamp;\n        address[] likes;\n        address[] dislike;\n        uint256[] repliesIds;\n    }\n\n    struct video {\n        uint256 id;\n        string videoHash;\n        string videoTayp;\n        string videoTitle;\n        uint256 timestamp;\n        address owner;\n        address[] likes;\n        address[] dislike;\n        uint256[] commentsIds;\n    }\n\n    uint256 public usersCount;\n    uint256 public videosCount;\n\n    mapping(address => uint256) public userId;\n    mapping(uint256 => user) public users;\n    mapping(uint256 => video) public videos;\n    mapping(uint256 => mapping(uint256 => comment)) videoComments;\n    mapping(uint256 => mapping(uint256 => mapping(uint256 => reply))) commentReplies;\n\n    function signUp(string memory _userName, string memory _profileImag)\n        public\n    {\n        require(userId[msg.sender] == 0);\n\n        usersCount++;\n\n        user storage _user = users[usersCount];\n        _user.id = usersCount;\n        _user.userName = _userName;\n        _user.userAddress = msg.sender;\n        _user.profileImag = _profileImag;\n\n        userId[msg.sender] = usersCount;\n    }\n\n    function _alreadyReact(address[] memory _interactors, address _owner)\n        public\n        pure\n        returns (uint256 _indexOfOwner)\n    {\n        if (_interactors.length > 0) {\n            for (uint256 i = 0; i < _interactors.length; i++) {\n                if (_interactors[i] == _owner) {\n                    _indexOfOwner = i + 1;\n                }\n            }\n        }\n\n        return _indexOfOwner;\n    }\n\n    function getUserById(uint256 _userId) public view returns (user memory) {\n        return users[_userId];\n    }\n\n    function getUserByAddress(address _userAddress)\n        public\n        view\n        returns (user memory)\n    {\n        uint256 _userId = userId[_userAddress];\n        return users[_userId];\n    }\n}\n",
  "sourcePath": "C:\\Users\\hamza\\Desktop\\web3-tasks\\11_Youtube_web3\\contracts\\YoutubeData.sol",
  "compiler": {
    "name": "solc",
    "version": "0.8.15+commit.e14f2714.Emscripten.clang"
  },
  "schemaVersion": "3.4.8",
  "updatedAt": "2022-08-21T19:51:10.452Z",
  "networkType": "ethereum",
  "devdoc": {
    "kind": "dev",
    "methods": {},
    "version": 1
  },
  "userdoc": {
    "kind": "user",
    "methods": {},
    "version": 1
  }
}