{
  "contractName": "Youtube",
  "abi": [
    {
      "inputs": [
        {
          "internalType": "address[]",
          "name": "_interactors",
          "type": "address[]"
        },
        {
          "internalType": "address",
          "name": "_owner",
          "type": "address"
        }
      ],
      "name": "_alreadyReact",
      "outputs": [
        {
          "internalType": "uint256",
          "name": "_indexOfOwner",
          "type": "uint256"
        }
      ],
      "stateMutability": "pure",
      "type": "function",
      "constant": true
    },
    {
      "inputs": [
        {
          "internalType": "uint256",
          "name": "_videoId",
          "type": "uint256"
        },
        {
          "internalType": "string",
          "name": "_commentMessag",
          "type": "string"
        }
      ],
      "name": "addComment",
      "outputs": [],
      "stateMutability": "nonpayable",
      "type": "function"
    },
    {
      "inputs": [
        {
          "internalType": "uint256",
          "name": "_videoId",
          "type": "uint256"
        },
        {
          "internalType": "uint256",
          "name": "_commentId",
          "type": "uint256"
        },
        {
          "internalType": "string",
          "name": "_replyComent",
          "type": "string"
        }
      ],
      "name": "addReply",
      "outputs": [],
      "stateMutability": "nonpayable",
      "type": "function"
    },
    {
      "inputs": [],
      "name": "admin",
      "outputs": [
        {
          "internalType": "address",
          "name": "",
          "type": "address"
        }
      ],
      "stateMutability": "view",
      "type": "function",
      "constant": true
    },
    {
      "inputs": [
        {
          "internalType": "uint256",
          "name": "_videoId",
          "type": "uint256"
        },
        {
          "internalType": "uint256",
          "name": "_commentId",
          "type": "uint256"
        }
      ],
      "name": "deletComment",
      "outputs": [],
      "stateMutability": "nonpayable",
      "type": "function"
    },
    {
      "inputs": [
        {
          "internalType": "uint256",
          "name": "_videoId",
          "type": "uint256"
        },
        {
          "internalType": "uint256",
          "name": "_commentId",
          "type": "uint256"
        },
        {
          "internalType": "uint256",
          "name": "_replyId",
          "type": "uint256"
        }
      ],
      "name": "deletReply",
      "outputs": [],
      "stateMutability": "nonpayable",
      "type": "function"
    },
    {
      "inputs": [
        {
          "internalType": "uint256",
          "name": "_videoId",
          "type": "uint256"
        }
      ],
      "name": "deleteVideo",
      "outputs": [],
      "stateMutability": "nonpayable",
      "type": "function"
    },
    {
      "inputs": [
        {
          "internalType": "uint256",
          "name": "_videoId",
          "type": "uint256"
        },
        {
          "internalType": "uint256",
          "name": "_commentId",
          "type": "uint256"
        }
      ],
      "name": "dislikeComment",
      "outputs": [],
      "stateMutability": "nonpayable",
      "type": "function"
    },
    {
      "inputs": [
        {
          "internalType": "uint256",
          "name": "_videoId",
          "type": "uint256"
        },
        {
          "internalType": "uint256",
          "name": "_commentId",
          "type": "uint256"
        },
        {
          "internalType": "uint256",
          "name": "_replyId",
          "type": "uint256"
        }
      ],
      "name": "dislikeReply",
      "outputs": [],
      "stateMutability": "nonpayable",
      "type": "function"
    },
    {
      "inputs": [
        {
          "internalType": "uint256",
          "name": "_videoId",
          "type": "uint256"
        }
      ],
      "name": "dislikeVideo",
      "outputs": [],
      "stateMutability": "nonpayable",
      "type": "function"
    },
    {
      "inputs": [
        {
          "internalType": "string",
          "name": "_Hash",
          "type": "string"
        },
        {
          "internalType": "string",
          "name": "_Tayp",
          "type": "string"
        },
        {
          "internalType": "string",
          "name": "_title",
          "type": "string"
        }
      ],
      "name": "downloadVideo",
      "outputs": [],
      "stateMutability": "nonpayable",
      "type": "function"
    },
    {
      "inputs": [],
      "name": "functionPublic",
      "outputs": [
        {
          "internalType": "uint256[]",
          "name": "",
          "type": "uint256[]"
        }
      ],
      "stateMutability": "pure",
      "type": "function",
      "constant": true
    },
    {
      "inputs": [
        {
          "internalType": "string",
          "name": "_videoType",
          "type": "string"
        }
      ],
      "name": "getAllVideoByType",
      "outputs": [
        {
          "components": [
            {
              "internalType": "uint256",
              "name": "id",
              "type": "uint256"
            },
            {
              "internalType": "string",
              "name": "videoHash",
              "type": "string"
            },
            {
              "internalType": "string",
              "name": "videoTayp",
              "type": "string"
            },
            {
              "internalType": "string",
              "name": "videoTitle",
              "type": "string"
            },
            {
              "internalType": "uint256",
              "name": "timestamp",
              "type": "uint256"
            },
            {
              "internalType": "address",
              "name": "owner",
              "type": "address"
            },
            {
              "internalType": "address[]",
              "name": "likes",
              "type": "address[]"
            },
            {
              "internalType": "address[]",
              "name": "dislike",
              "type": "address[]"
            },
            {
              "internalType": "uint256[]",
              "name": "commentsIds",
              "type": "uint256[]"
            }
          ],
          "internalType": "struct YoutubeData.video[]",
          "name": "",
          "type": "tuple[]"
        }
      ],
      "stateMutability": "view",
      "type": "function",
      "constant": true
    },
    {
      "inputs": [],
      "name": "getAllVideos",
      "outputs": [
        {
          "components": [
            {
              "internalType": "uint256",
              "name": "id",
              "type": "uint256"
            },
            {
              "internalType": "string",
              "name": "videoHash",
              "type": "string"
            },
            {
              "internalType": "string",
              "name": "videoTayp",
              "type": "string"
            },
            {
              "internalType": "string",
              "name": "videoTitle",
              "type": "string"
            },
            {
              "internalType": "uint256",
              "name": "timestamp",
              "type": "uint256"
            },
            {
              "internalType": "address",
              "name": "owner",
              "type": "address"
            },
            {
              "internalType": "address[]",
              "name": "likes",
              "type": "address[]"
            },
            {
              "internalType": "address[]",
              "name": "dislike",
              "type": "address[]"
            },
            {
              "internalType": "uint256[]",
              "name": "commentsIds",
              "type": "uint256[]"
            }
          ],
          "internalType": "struct YoutubeData.video[]",
          "name": "",
          "type": "tuple[]"
        }
      ],
      "stateMutability": "view",
      "type": "function",
      "constant": true
    },
    {
      "inputs": [
        {
          "internalType": "uint256",
          "name": "_videoId",
          "type": "uint256"
        },
        {
          "internalType": "uint256",
          "name": "_commentId",
          "type": "uint256"
        },
        {
          "internalType": "uint256",
          "name": "_replyId",
          "type": "uint256"
        }
      ],
      "name": "getCommentReply",
      "outputs": [
        {
          "components": [
            {
              "internalType": "uint256",
              "name": "id",
              "type": "uint256"
            },
            {
              "internalType": "address",
              "name": "owner",
              "type": "address"
            },
            {
              "internalType": "string",
              "name": "reply",
              "type": "string"
            },
            {
              "internalType": "uint256",
              "name": "timestamp",
              "type": "uint256"
            },
            {
              "internalType": "address[]",
              "name": "likes",
              "type": "address[]"
            },
            {
              "internalType": "address[]",
              "name": "dislike",
              "type": "address[]"
            }
          ],
          "internalType": "struct YoutubeData.reply",
          "name": "",
          "type": "tuple"
        }
      ],
      "stateMutability": "view",
      "type": "function",
      "constant": true
    },
    {
      "inputs": [
        {
          "internalType": "address",
          "name": "_userAddress",
          "type": "address"
        }
      ],
      "name": "getUserByAddress",
      "outputs": [
        {
          "components": [
            {
              "internalType": "uint256",
              "name": "id",
              "type": "uint256"
            },
            {
              "internalType": "string",
              "name": "userName",
              "type": "string"
            },
            {
              "internalType": "address",
              "name": "userAddress",
              "type": "address"
            },
            {
              "internalType": "string",
              "name": "profileImag",
              "type": "string"
            },
            {
              "internalType": "uint256[]",
              "name": "userVideos",
              "type": "uint256[]"
            },
            {
              "internalType": "uint256[]",
              "name": "videoSaved",
              "type": "uint256[]"
            }
          ],
          "internalType": "struct YoutubeData.user",
          "name": "",
          "type": "tuple"
        }
      ],
      "stateMutability": "view",
      "type": "function",
      "constant": true
    },
    {
      "inputs": [
        {
          "internalType": "uint256",
          "name": "_userId",
          "type": "uint256"
        }
      ],
      "name": "getUserById",
      "outputs": [
        {
          "components": [
            {
              "internalType": "uint256",
              "name": "id",
              "type": "uint256"
            },
            {
              "internalType": "string",
              "name": "userName",
              "type": "string"
            },
            {
              "internalType": "address",
              "name": "userAddress",
              "type": "address"
            },
            {
              "internalType": "string",
              "name": "profileImag",
              "type": "string"
            },
            {
              "internalType": "uint256[]",
              "name": "userVideos",
              "type": "uint256[]"
            },
            {
              "internalType": "uint256[]",
              "name": "videoSaved",
              "type": "uint256[]"
            }
          ],
          "internalType": "struct YoutubeData.user",
          "name": "",
          "type": "tuple"
        }
      ],
      "stateMutability": "view",
      "type": "function",
      "constant": true
    },
    {
      "inputs": [
        {
          "internalType": "address",
          "name": "_userAddress",
          "type": "address"
        }
      ],
      "name": "getUserVideosByAddress",
      "outputs": [
        {
          "components": [
            {
              "internalType": "uint256",
              "name": "id",
              "type": "uint256"
            },
            {
              "internalType": "string",
              "name": "videoHash",
              "type": "string"
            },
            {
              "internalType": "string",
              "name": "videoTayp",
              "type": "string"
            },
            {
              "internalType": "string",
              "name": "videoTitle",
              "type": "string"
            },
            {
              "internalType": "uint256",
              "name": "timestamp",
              "type": "uint256"
            },
            {
              "internalType": "address",
              "name": "owner",
              "type": "address"
            },
            {
              "internalType": "address[]",
              "name": "likes",
              "type": "address[]"
            },
            {
              "internalType": "address[]",
              "name": "dislike",
              "type": "address[]"
            },
            {
              "internalType": "uint256[]",
              "name": "commentsIds",
              "type": "uint256[]"
            }
          ],
          "internalType": "struct YoutubeData.video[]",
          "name": "",
          "type": "tuple[]"
        }
      ],
      "stateMutability": "view",
      "type": "function",
      "constant": true
    },
    {
      "inputs": [
        {
          "internalType": "uint256",
          "name": "_userId",
          "type": "uint256"
        }
      ],
      "name": "getUserVideosById",
      "outputs": [
        {
          "components": [
            {
              "internalType": "uint256",
              "name": "id",
              "type": "uint256"
            },
            {
              "internalType": "string",
              "name": "videoHash",
              "type": "string"
            },
            {
              "internalType": "string",
              "name": "videoTayp",
              "type": "string"
            },
            {
              "internalType": "string",
              "name": "videoTitle",
              "type": "string"
            },
            {
              "internalType": "uint256",
              "name": "timestamp",
              "type": "uint256"
            },
            {
              "internalType": "address",
              "name": "owner",
              "type": "address"
            },
            {
              "internalType": "address[]",
              "name": "likes",
              "type": "address[]"
            },
            {
              "internalType": "address[]",
              "name": "dislike",
              "type": "address[]"
            },
            {
              "internalType": "uint256[]",
              "name": "commentsIds",
              "type": "uint256[]"
            }
          ],
          "internalType": "struct YoutubeData.video[]",
          "name": "",
          "type": "tuple[]"
        }
      ],
      "stateMutability": "view",
      "type": "function",
      "constant": true
    },
    {
      "inputs": [
        {
          "internalType": "uint256",
          "name": "_VideoId",
          "type": "uint256"
        }
      ],
      "name": "getVideo",
      "outputs": [
        {
          "components": [
            {
              "internalType": "uint256",
              "name": "id",
              "type": "uint256"
            },
            {
              "internalType": "string",
              "name": "videoHash",
              "type": "string"
            },
            {
              "internalType": "string",
              "name": "videoTayp",
              "type": "string"
            },
            {
              "internalType": "string",
              "name": "videoTitle",
              "type": "string"
            },
            {
              "internalType": "uint256",
              "name": "timestamp",
              "type": "uint256"
            },
            {
              "internalType": "address",
              "name": "owner",
              "type": "address"
            },
            {
              "internalType": "address[]",
              "name": "likes",
              "type": "address[]"
            },
            {
              "internalType": "address[]",
              "name": "dislike",
              "type": "address[]"
            },
            {
              "internalType": "uint256[]",
              "name": "commentsIds",
              "type": "uint256[]"
            }
          ],
          "internalType": "struct YoutubeData.video",
          "name": "",
          "type": "tuple"
        }
      ],
      "stateMutability": "view",
      "type": "function",
      "constant": true
    },
    {
      "inputs": [
        {
          "internalType": "uint256",
          "name": "_videoId",
          "type": "uint256"
        },
        {
          "internalType": "uint256",
          "name": "_commentId",
          "type": "uint256"
        }
      ],
      "name": "getVideoComment",
      "outputs": [
        {
          "components": [
            {
              "internalType": "uint256",
              "name": "id",
              "type": "uint256"
            },
            {
              "internalType": "address",
              "name": "owner",
              "type": "address"
            },
            {
              "internalType": "string",
              "name": "comment",
              "type": "string"
            },
            {
              "internalType": "uint256",
              "name": "timestamp",
              "type": "uint256"
            },
            {
              "internalType": "address[]",
              "name": "likes",
              "type": "address[]"
            },
            {
              "internalType": "address[]",
              "name": "dislike",
              "type": "address[]"
            },
            {
              "internalType": "uint256[]",
              "name": "repliesIds",
              "type": "uint256[]"
            }
          ],
          "internalType": "struct YoutubeData.comment",
          "name": "",
          "type": "tuple"
        }
      ],
      "stateMutability": "view",
      "type": "function",
      "constant": true
    },
    {
      "inputs": [
        {
          "internalType": "uint256",
          "name": "_videoId",
          "type": "uint256"
        },
        {
          "internalType": "uint256",
          "name": "_commentId",
          "type": "uint256"
        }
      ],
      "name": "likeComment",
      "outputs": [],
      "stateMutability": "nonpayable",
      "type": "function"
    },
    {
      "inputs": [
        {
          "internalType": "uint256",
          "name": "_videoId",
          "type": "uint256"
        },
        {
          "internalType": "uint256",
          "name": "_commentId",
          "type": "uint256"
        },
        {
          "internalType": "uint256",
          "name": "_replyId",
          "type": "uint256"
        }
      ],
      "name": "likeReply",
      "outputs": [],
      "stateMutability": "nonpayable",
      "type": "function"
    },
    {
      "inputs": [
        {
          "internalType": "uint256",
          "name": "_videoId",
          "type": "uint256"
        }
      ],
      "name": "likeVideo",
      "outputs": [],
      "stateMutability": "nonpayable",
      "type": "function"
    },
    {
      "inputs": [
        {
          "internalType": "string",
          "name": "_userName",
          "type": "string"
        },
        {
          "internalType": "string",
          "name": "_profileImag",
          "type": "string"
        }
      ],
      "name": "signUp",
      "outputs": [],
      "stateMutability": "nonpayable",
      "type": "function"
    },
    {
      "inputs": [
        {
          "internalType": "address",
          "name": "",
          "type": "address"
        }
      ],
      "name": "userId",
      "outputs": [
        {
          "internalType": "uint256",
          "name": "",
          "type": "uint256"
        }
      ],
      "stateMutability": "view",
      "type": "function",
      "constant": true
    },
    {
      "inputs": [
        {
          "internalType": "uint256",
          "name": "",
          "type": "uint256"
        }
      ],
      "name": "users",
      "outputs": [
        {
          "internalType": "uint256",
          "name": "id",
          "type": "uint256"
        },
        {
          "internalType": "string",
          "name": "userName",
          "type": "string"
        },
        {
          "internalType": "address",
          "name": "userAddress",
          "type": "address"
        },
        {
          "internalType": "string",
          "name": "profileImag",
          "type": "string"
        }
      ],
      "stateMutability": "view",
      "type": "function",
      "constant": true
    },
    {
      "inputs": [],
      "name": "usersCount",
      "outputs": [
        {
          "internalType": "uint256",
          "name": "",
          "type": "uint256"
        }
      ],
      "stateMutability": "view",
      "type": "function",
      "constant": true
    },
    {
      "inputs": [
        {
          "internalType": "uint256",
          "name": "",
          "type": "uint256"
        }
      ],
      "name": "videos",
      "outputs": [
        {
          "internalType": "uint256",
          "name": "id",
          "type": "uint256"
        },
        {
          "internalType": "string",
          "name": "videoHash",
          "type": "string"
        },
        {
          "internalType": "string",
          "name": "videoTayp",
          "type": "string"
        },
        {
          "internalType": "string",
          "name": "videoTitle",
          "type": "string"
        },
        {
          "internalType": "uint256",
          "name": "timestamp",
          "type": "uint256"
        },
        {
          "internalType": "address",
          "name": "owner",
          "type": "address"
        }
      ],
      "stateMutability": "view",
      "type": "function",
      "constant": true
    },
    {
      "inputs": [],
      "name": "videosCount",
      "outputs": [
        {
          "internalType": "uint256",
          "name": "",
          "type": "uint256"
        }
      ],
      "stateMutability": "view",
      "type": "function",
      "constant": true
    },
    {
      "inputs": [
        {
          "internalType": "string",
          "name": "_newUserName",
          "type": "string"
        }
      ],
      "name": "changeName",
      "outputs": [],
      "stateMutability": "nonpayable",
      "type": "function"
    },
    {
      "inputs": [
        {
          "internalType": "string",
          "name": "_profileImag",
          "type": "string"
        }
      ],
      "name": "changeProfileImag",
      "outputs": [],
      "stateMutability": "nonpayable",
      "type": "function"
    },
    {
      "inputs": [
        {
          "internalType": "uint256",
          "name": "_videoId",
          "type": "uint256"
        }
      ],
      "name": "saveVideo",
      "outputs": [],
      "stateMutability": "nonpayable",
      "type": "function"
    },
    {
      "inputs": [
        {
          "internalType": "uint256",
          "name": "_videoId",
          "type": "uint256"
        }
      ],
      "name": "deleteSavedVideo",
      "outputs": [],
      "stateMutability": "nonpayable",
      "type": "function"
    },
    {
      "inputs": [
        {
          "internalType": "address",
          "name": "_userAddres",
          "type": "address"
        }
      ],
      "name": "deletUser",
      "outputs": [],
      "stateMutability": "nonpayable",
      "type": "function"
    },
    {
      "inputs": [
        {
          "internalType": "address",
          "name": "_newAdmin",
          "type": "address"
        }
      ],
      "name": "changeAdmin",
      "outputs": [],
      "stateMutability": "nonpayable",
      "type": "function"
    }
  ],
  "bytecode": "0x608060405234801561001057600080fd5b50336000806101000a81548173ffffffffffffffffffffffffffffffffffffffff021916908373ffffffffffffffffffffffffffffffffffffffff160217905550615cca80620000616000396000f3fe608060405234801561001057600080fd5b506004361061021c5760003560e01c80638f28397011610125578063d4ab873e116100ad578063e9c4cc941161007c578063e9c4cc941461066d578063ef08523b1461068b578063f851a440146106a9578063fbaca102146106c7578063ffa36aca146106e35761021c565b8063d4ab873e146105e4578063d7b551fb14610600578063e6821bf51461061c578063e90cb635146106515761021c565b8063a533ee79116100f4578063a533ee7914610542578063aa7e56831461055e578063b2f464391461057a578063c38e3434146105aa578063d2170f5a146105c85761021c565b80638f283970146104d2578063a0e91821146104ee578063a10aac411461050a578063a469a332146105265761021c565b8063376fe102116101a85780636625ce41116101775780636625ce411461040857806369c212f6146104245780636ba13a82146104545780636ed6da9e146104725780638e8cde21146104a25761021c565b8063376fe1021461038457806337f4405b146103b457806339229b93146103d05780635353a2d8146103ec5761021c565b8063232cfae1116101ef578063232cfae1146102a557806327260d5c146102d55780632893eca2146102f15780632e7ee11e14610321578063365b98b2146103515761021c565b80630746bfe5146102215780630aeec1a11461023d578063172c751f1461026d578063178166b014610289575b600080fd5b61023b6004803603810190610236919061492d565b610713565b005b6102576004803603810190610252919061492d565b6109b9565b6040516102649190614d4b565b60405180910390f35b61028760048036038101906102829190614d99565b610ab0565b005b6102a3600480360381019061029e9190614dc6565b610d52565b005b6102bf60048036038101906102ba9190614e06565b610fd3565b6040516102cc9190614ef0565b60405180910390f35b6102ef60048036038101906102ea919061492d565b61123c565b005b61030b6004803603810190610306919061492d565b61152e565b6040516103189190614ffa565b60405180910390f35b61033b60048036038101906103369190615151565b6118f0565b6040516103489190614d4b565b60405180910390f35b61036b6004803603810190610366919061492d565b6119c9565b60405161037b9493929190615202565b60405180910390f35b61039e60048036038101906103999190614d99565b611b29565b6040516103ab9190615255565b60405180910390f35b6103ce60048036038101906103c99190615270565b611b41565b005b6103ea60048036038101906103e591906152df565b611cbd565b005b61040660048036038101906104019190615151565b611e4b565b005b610422600480360381019061041d919061492d565b611f03565b005b61043e60048036038101906104399190614d99565b6120c7565b60405161044b9190615424565b60405180910390f35b61045c61236d565b6040516104699190615255565b60405180910390f35b61048c6004803603810190610487919061492d565b612373565b6040516104999190615424565b60405180910390f35b6104bc60048036038101906104b79190614dc6565b6125d4565b6040516104c991906154f7565b60405180910390f35b6104ec60048036038101906104e79190614d99565b612883565b005b61050860048036038101906105039190614dc6565b61291e565b005b610524600480360381019061051f9190614dc6565b612c66565b005b610540600480360381019061053b9190615519565b612fae565b005b61055c6004803603810190610557919061492d565b6130e8565b005b61057860048036038101906105739190615591565b613224565b005b610594600480360381019061058f91906156b5565b61336c565b6040516105a19190615255565b60405180910390f35b6105b26133fb565b6040516105bf9190614d4b565b60405180910390f35b6105e260048036038101906105dd9190614e06565b6134bb565b005b6105fe60048036038101906105f9919061492d565b6137a7565b005b61061a60048036038101906106159190614e06565b613a2a565b005b6106366004803603810190610631919061492d565b613dc8565b60405161064896959493929190615711565b60405180910390f35b61066b60048036038101906106669190614e06565b613fbc565b005b61067561435a565b60405161068291906157f6565b60405180910390f35b610693614364565b6040516106a09190615255565b60405180910390f35b6106b161436a565b6040516106be9190615818565b60405180910390f35b6106e160048036038101906106dc9190615151565b61438e565b005b6106fd60048036038101906106f89190614d99565b614446565b60405161070a9190614d4b565b60405180910390f35b60006107b9600560008481526020019081526020016000206006018054806020026020016040519081016040528092919081815260200182805480156107ae57602002820191906000526020600020905b8160009054906101000a900473ffffffffffffffffffffffffffffffffffffffff1673ffffffffffffffffffffffffffffffffffffffff1681526020019060010190808311610764575b50505050503361336c565b905060006108616005600085815260200190815260200160002060070180548060200260200160405190810160405280929190818152602001828054801561085657602002820191906000526020600020905b8160009054906101000a900473ffffffffffffffffffffffffffffffffffffffff1673ffffffffffffffffffffffffffffffffffffffff168152602001906001019080831161080c575b50505050503361336c565b9050600081036109525760056000848152602001908152602001600020600701339080600181540180825580915050600190039060005260206000200160009091909190916101000a81548173ffffffffffffffffffffffffffffffffffffffff021916908373ffffffffffffffffffffffffffffffffffffffff160217905550600082111561094d576005600084815260200190815260200160002060060160018361090e9190615862565b8154811061091f5761091e615896565b5b9060005260206000200160006101000a81549073ffffffffffffffffffffffffffffffffffffffff02191690555b6109b4565b600560008481526020019081526020016000206007016001826109759190615862565b8154811061098657610985615896565b5b9060005260206000200160006101000a81549073ffffffffffffffffffffffffffffffffffffffff02191690555b505050565b606060006109c683612373565b90506000816080015151116109da57600080fd5b600081608001515167ffffffffffffffff8111156109fb576109fa615026565b5b604051908082528060200260200182016040528015610a3457816020015b610a216146f7565b815260200190600190039081610a195790505b50905060005b826080015151811015610aa5576000610a7084608001518381518110610a6357610a62615896565b5b602002602001015161152e565b905080838381518110610a8657610a85615896565b5b6020026020010181905250508080610a9d906158c5565b915050610a3a565b508092505050919050565b60008054906101000a900473ffffffffffffffffffffffffffffffffffffffff1673ffffffffffffffffffffffffffffffffffffffff163373ffffffffffffffffffffffffffffffffffffffff1614610b0857600080fd5b6000600360008373ffffffffffffffffffffffffffffffffffffffff1673ffffffffffffffffffffffffffffffffffffffff168152602001908152602001600020549050600060046000838152602001908152602001600020600401805490501115610c865760005b6004600083815260200190815260200160002060040180549050811015610c845760056000600460008581526020019081526020016000206004018381548110610bbe57610bbd615896565b5b90600052602060002001548152602001908152602001600020600080820160009055600182016000610bf09190614759565b600282016000610c009190614759565b600382016000610c109190614759565b60048201600090556005820160006101000a81549073ffffffffffffffffffffffffffffffffffffffff0219169055600682016000610c4f9190614799565b600782016000610c5f9190614799565b600882016000610c6f91906147ba565b50508080610c7c906158c5565b915050610b71565b505b60046000828152602001908152602001600020600080820160009055600182016000610cb29190614759565b6002820160006101000a81549073ffffffffffffffffffffffffffffffffffffffff0219169055600382016000610ce99190614759565b600482016000610cf991906147ba565b600582016000610d0991906147ba565b5050600360008373ffffffffffffffffffffffffffffffffffffffff1673ffffffffffffffffffffffffffffffffffffffff168152602001908152602001600020600090555050565b6000600360003373ffffffffffffffffffffffffffffffffffffffff1673ffffffffffffffffffffffffffffffffffffffff1681526020019081526020016000205403610d9e57600080fd5b3373ffffffffffffffffffffffffffffffffffffffff1660066000848152602001908152602001600020600083815260200190815260200160002060010160009054906101000a900473ffffffffffffffffffffffffffffffffffffffff1673ffffffffffffffffffffffffffffffffffffffff161480610e8057503373ffffffffffffffffffffffffffffffffffffffff166005600084815260200190815260200160002060050160009054906101000a900473ffffffffffffffffffffffffffffffffffffffff1673ffffffffffffffffffffffffffffffffffffffff16145b610e8957600080fd5b6006600083815260200190815260200160002060008281526020019081526020016000206000808201600090556001820160006101000a81549073ffffffffffffffffffffffffffffffffffffffff0219169055600282016000610eed9190614759565b6003820160009055600482016000610f059190614799565b600582016000610f159190614799565b600682016000610f2591906147ba565b505060005b6005600084815260200190815260200160002060080180549050811015610fce5781600560008581526020019081526020016000206008018281548110610f7457610f73615896565b5b906000526020600020015403610fbb57600560008481526020019081526020016000206008018181548110610fac57610fab615896565b5b90600052602060002001600090555b8080610fc6906158c5565b915050610f2a565b505050565b610fdb6147db565b60076000858152602001908152602001600020600084815260200190815260200160002060008381526020019081526020016000206040518060c0016040529081600082015481526020016001820160009054906101000a900473ffffffffffffffffffffffffffffffffffffffff1673ffffffffffffffffffffffffffffffffffffffff1673ffffffffffffffffffffffffffffffffffffffff16815260200160028201805461108b9061593c565b80601f01602080910402602001604051908101604052809291908181526020018280546110b79061593c565b80156111045780601f106110d957610100808354040283529160200191611104565b820191906000526020600020905b8154815290600101906020018083116110e757829003601f168201915b50505050508152602001600382015481526020016004820180548060200260200160405190810160405280929190818152602001828054801561119c57602002820191906000526020600020905b8160009054906101000a900473ffffffffffffffffffffffffffffffffffffffff1673ffffffffffffffffffffffffffffffffffffffff1681526020019060010190808311611152575b505050505081526020016005820180548060200260200160405190810160405280929190818152602001828054801561122a57602002820191906000526020600020905b8160009054906101000a900473ffffffffffffffffffffffffffffffffffffffff1673ffffffffffffffffffffffffffffffffffffffff16815260200190600101908083116111e0575b50505050508152505090509392505050565b6000600360003373ffffffffffffffffffffffffffffffffffffffff1673ffffffffffffffffffffffffffffffffffffffff168152602001908152602001600020540361128857600080fd5b600061132e6005600084815260200190815260200160002060060180548060200260200160405190810160405280929190818152602001828054801561132357602002820191906000526020600020905b8160009054906101000a900473ffffffffffffffffffffffffffffffffffffffff1673ffffffffffffffffffffffffffffffffffffffff16815260200190600101908083116112d9575b50505050503361336c565b905060006113d6600560008581526020019081526020016000206007018054806020026020016040519081016040528092919081815260200182805480156113cb57602002820191906000526020600020905b8160009054906101000a900473ffffffffffffffffffffffffffffffffffffffff1673ffffffffffffffffffffffffffffffffffffffff1681526020019060010190808311611381575b50505050503361336c565b9050600082036114c75760056000848152602001908152602001600020600601339080600181540180825580915050600190039060005260206000200160009091909190916101000a81548173ffffffffffffffffffffffffffffffffffffffff021916908373ffffffffffffffffffffffffffffffffffffffff16021790555060008111156114c257600560008481526020019081526020016000206007016001826114839190615862565b8154811061149457611493615896565b5b9060005260206000200160006101000a81549073ffffffffffffffffffffffffffffffffffffffff02191690555b611529565b600560008481526020019081526020016000206006016001836114ea9190615862565b815481106114fb576114fa615896565b5b9060005260206000200160006101000a81549073ffffffffffffffffffffffffffffffffffffffff02191690555b505050565b6115366146f7565b60056000838152602001908152602001600020604051806101200160405290816000820154815260200160018201805461156f9061593c565b80601f016020809104026020016040519081016040528092919081815260200182805461159b9061593c565b80156115e85780601f106115bd576101008083540402835291602001916115e8565b820191906000526020600020905b8154815290600101906020018083116115cb57829003601f168201915b505050505081526020016002820180546116019061593c565b80601f016020809104026020016040519081016040528092919081815260200182805461162d9061593c565b801561167a5780601f1061164f5761010080835404028352916020019161167a565b820191906000526020600020905b81548152906001019060200180831161165d57829003601f168201915b505050505081526020016003820180546116939061593c565b80601f01602080910402602001604051908101604052809291908181526020018280546116bf9061593c565b801561170c5780601f106116e15761010080835404028352916020019161170c565b820191906000526020600020905b8154815290600101906020018083116116ef57829003601f168201915b50505050508152602001600482015481526020016005820160009054906101000a900473ffffffffffffffffffffffffffffffffffffffff1673ffffffffffffffffffffffffffffffffffffffff1673ffffffffffffffffffffffffffffffffffffffff168152602001600682018054806020026020016040519081016040528092919081815260200182805480156117fa57602002820191906000526020600020905b8160009054906101000a900473ffffffffffffffffffffffffffffffffffffffff1673ffffffffffffffffffffffffffffffffffffffff16815260200190600101908083116117b0575b505050505081526020016007820180548060200260200160405190810160405280929190818152602001828054801561188857602002820191906000526020600020905b8160009054906101000a900473ffffffffffffffffffffffffffffffffffffffff1673ffffffffffffffffffffffffffffffffffffffff168152602001906001019080831161183e575b50505050508152602001600882018054806020026020016040519081016040528092919081815260200182805480156118e057602002820191906000526020600020905b8154815260200190600101908083116118cc575b5050505050815250509050919050565b606060006118fd8361453d565b90506000815167ffffffffffffffff81111561191c5761191b615026565b5b60405190808252806020026020018201604052801561195557816020015b6119426146f7565b81526020019060019003908161193a5790505b50905060005b82518110156119be57600061198984838151811061197c5761197b615896565b5b602002602001015161152e565b90508083838151811061199f5761199e615896565b5b60200260200101819052505080806119b6906158c5565b91505061195b565b508092505050919050565b60046020528060005260406000206000915090508060000154908060010180546119f29061593c565b80601f0160208091040260200160405190810160405280929190818152602001828054611a1e9061593c565b8015611a6b5780601f10611a4057610100808354040283529160200191611a6b565b820191906000526020600020905b815481529060010190602001808311611a4e57829003601f168201915b5050505050908060020160009054906101000a900473ffffffffffffffffffffffffffffffffffffffff1690806003018054611aa69061593c565b80601f0160208091040260200160405190810160405280929190818152602001828054611ad29061593c565b8015611b1f5780601f10611af457610100808354040283529160200191611b1f565b820191906000526020600020905b815481529060010190602001808311611b0257829003601f168201915b5050505050905084565b60036020528060005260406000206000915090505481565b6000600360003373ffffffffffffffffffffffffffffffffffffffff1673ffffffffffffffffffffffffffffffffffffffff1681526020019081526020016000205403611b8d57600080fd5b6000600160066000868152602001908152602001600020600085815260200190815260200160002060060180549050611bc6919061596d565b9050600060076000868152602001908152602001600020600085815260200190815260200160002060008381526020019081526020016000209050818160000181905550338160010160006101000a81548173ffffffffffffffffffffffffffffffffffffffff021916908373ffffffffffffffffffffffffffffffffffffffff16021790555082816002019081611c5e9190615b6f565b504281600301819055506006600086815260200190815260200160002060008581526020019081526020016000206006018290806001815401808255809150506001900390600052602060002001600090919091909150555050505050565b6000600360003373ffffffffffffffffffffffffffffffffffffffff1673ffffffffffffffffffffffffffffffffffffffff1681526020019081526020016000205403611d0957600080fd5b60026000815480929190611d1c906158c5565b919050555060006005600060025481526020019081526020016000209050600254816000018190555083816001019081611d569190615b6f565b5082816002019081611d689190615b6f565b5081816003019081611d7a9190615b6f565b50428160040181905550338160050160006101000a81548173ffffffffffffffffffffffffffffffffffffffff021916908373ffffffffffffffffffffffffffffffffffffffff16021790555060046000600360003373ffffffffffffffffffffffffffffffffffffffff1673ffffffffffffffffffffffffffffffffffffffff168152602001908152602001600020548152602001908152602001600020600401600254908060018154018082558091505060019003906000526020600020016000909190919091505550505050565b6000600360003373ffffffffffffffffffffffffffffffffffffffff1673ffffffffffffffffffffffffffffffffffffffff1681526020019081526020016000205403611e9757600080fd5b6000600360003373ffffffffffffffffffffffffffffffffffffffff1673ffffffffffffffffffffffffffffffffffffffff16815260200190815260200160002054905081600460008381526020019081526020016000206001019081611efe9190615b6f565b505050565b6000600360003373ffffffffffffffffffffffffffffffffffffffff1673ffffffffffffffffffffffffffffffffffffffff1681526020019081526020016000205403611f4f57600080fd5b6000600360003373ffffffffffffffffffffffffffffffffffffffff1673ffffffffffffffffffffffffffffffffffffffff1681526020019081526020016000205490506000600460008381526020019081526020016000206005018054905003611ff657600460008281526020019081526020016000206005018290806001815401808255809150506001900390600052602060002001600090919091909150556120c3565b600080600090505b600460008481526020019081526020016000206005018054905081101561207a578360046000858152602001908152602001600020600501828154811061204857612047615896565b5b906000526020600020015403612067578180612063906158c5565b9250505b8080612072906158c5565b915050611ffe565b50600081036120c157600460008381526020019081526020016000206005018390806001815401808255809150506001900390600052602060002001600090919091909150555b505b5050565b6120cf614827565b6000600360008473ffffffffffffffffffffffffffffffffffffffff1673ffffffffffffffffffffffffffffffffffffffff168152602001908152602001600020549050600460008281526020019081526020016000206040518060c00160405290816000820154815260200160018201805461214b9061593c565b80601f01602080910402602001604051908101604052809291908181526020018280546121779061593c565b80156121c45780601f10612199576101008083540402835291602001916121c4565b820191906000526020600020905b8154815290600101906020018083116121a757829003601f168201915b505050505081526020016002820160009054906101000a900473ffffffffffffffffffffffffffffffffffffffff1673ffffffffffffffffffffffffffffffffffffffff1673ffffffffffffffffffffffffffffffffffffffff1681526020016003820180546122339061593c565b80601f016020809104026020016040519081016040528092919081815260200182805461225f9061593c565b80156122ac5780601f10612281576101008083540402835291602001916122ac565b820191906000526020600020905b81548152906001019060200180831161228f57829003601f168201915b505050505081526020016004820180548060200260200160405190810160405280929190818152602001828054801561230457602002820191906000526020600020905b8154815260200190600101908083116122f0575b505050505081526020016005820180548060200260200160405190810160405280929190818152602001828054801561235c57602002820191906000526020600020905b815481526020019060010190808311612348575b505050505081525050915050919050565b60015481565b61237b614827565b600460008381526020019081526020016000206040518060c0016040529081600082015481526020016001820180546123b39061593c565b80601f01602080910402602001604051908101604052809291908181526020018280546123df9061593c565b801561242c5780601f106124015761010080835404028352916020019161242c565b820191906000526020600020905b81548152906001019060200180831161240f57829003601f168201915b505050505081526020016002820160009054906101000a900473ffffffffffffffffffffffffffffffffffffffff1673ffffffffffffffffffffffffffffffffffffffff1673ffffffffffffffffffffffffffffffffffffffff16815260200160038201805461249b9061593c565b80601f01602080910402602001604051908101604052809291908181526020018280546124c79061593c565b80156125145780601f106124e957610100808354040283529160200191612514565b820191906000526020600020905b8154815290600101906020018083116124f757829003601f168201915b505050505081526020016004820180548060200260200160405190810160405280929190818152602001828054801561256c57602002820191906000526020600020905b815481526020019060010190808311612558575b50505050508152602001600582018054806020026020016040519081016040528092919081815260200182805480156125c457602002820191906000526020600020905b8154815260200190600101908083116125b0575b5050505050815250509050919050565b6125dc614873565b6006600084815260200190815260200160002060008381526020019081526020016000206040518060e0016040529081600082015481526020016001820160009054906101000a900473ffffffffffffffffffffffffffffffffffffffff1673ffffffffffffffffffffffffffffffffffffffff1673ffffffffffffffffffffffffffffffffffffffff16815260200160028201805461267b9061593c565b80601f01602080910402602001604051908101604052809291908181526020018280546126a79061593c565b80156126f45780601f106126c9576101008083540402835291602001916126f4565b820191906000526020600020905b8154815290600101906020018083116126d757829003601f168201915b50505050508152602001600382015481526020016004820180548060200260200160405190810160405280929190818152602001828054801561278c57602002820191906000526020600020905b8160009054906101000a900473ffffffffffffffffffffffffffffffffffffffff1673ffffffffffffffffffffffffffffffffffffffff1681526020019060010190808311612742575b505050505081526020016005820180548060200260200160405190810160405280929190818152602001828054801561281a57602002820191906000526020600020905b8160009054906101000a900473ffffffffffffffffffffffffffffffffffffffff1673ffffffffffffffffffffffffffffffffffffffff16815260200190600101908083116127d0575b505050505081526020016006820180548060200260200160405190810160405280929190818152602001828054801561287257602002820191906000526020600020905b81548152602001906001019080831161285e575b505050505081525050905092915050565b60008054906101000a900473ffffffffffffffffffffffffffffffffffffffff1673ffffffffffffffffffffffffffffffffffffffff163373ffffffffffffffffffffffffffffffffffffffff16146128db57600080fd5b806000806101000a81548173ffffffffffffffffffffffffffffffffffffffff021916908373ffffffffffffffffffffffffffffffffffffffff16021790555050565b6000600360003373ffffffffffffffffffffffffffffffffffffffff1673ffffffffffffffffffffffffffffffffffffffff168152602001908152602001600020540361296a57600080fd5b6000612a21600660008581526020019081526020016000206000848152602001908152602001600020600401805480602002602001604051908101604052809291908181526020018280548015612a1657602002820191906000526020600020905b8160009054906101000a900473ffffffffffffffffffffffffffffffffffffffff1673ffffffffffffffffffffffffffffffffffffffff16815260200190600101908083116129cc575b50505050503361336c565b90506000612ada600660008681526020019081526020016000206000858152602001908152602001600020600501805480602002602001604051908101604052809291908181526020018280548015612acf57602002820191906000526020600020905b8160009054906101000a900473ffffffffffffffffffffffffffffffffffffffff1673ffffffffffffffffffffffffffffffffffffffff1681526020019060010190808311612a85575b50505050503361336c565b905060008203612bed57600660008581526020019081526020016000206000848152602001908152602001600020600401339080600181540180825580915050600190039060005260206000200160009091909190916101000a81548173ffffffffffffffffffffffffffffffffffffffff021916908373ffffffffffffffffffffffffffffffffffffffff1602179055506000811115612be857600660008581526020019081526020016000206000848152602001908152602001600020600501600182612ba99190615862565b81548110612bba57612bb9615896565b5b9060005260206000200160006101000a81549073ffffffffffffffffffffffffffffffffffffffff02191690555b612c60565b600660008581526020019081526020016000206000848152602001908152602001600020600401600183612c219190615862565b81548110612c3257612c31615896565b5b9060005260206000200160006101000a81549073ffffffffffffffffffffffffffffffffffffffff02191690555b50505050565b6000600360003373ffffffffffffffffffffffffffffffffffffffff1673ffffffffffffffffffffffffffffffffffffffff1681526020019081526020016000205403612cb257600080fd5b6000612d69600660008581526020019081526020016000206000848152602001908152602001600020600401805480602002602001604051908101604052809291908181526020018280548015612d5e57602002820191906000526020600020905b8160009054906101000a900473ffffffffffffffffffffffffffffffffffffffff1673ffffffffffffffffffffffffffffffffffffffff1681526020019060010190808311612d14575b50505050503361336c565b90506000612e22600660008681526020019081526020016000206000858152602001908152602001600020600501805480602002602001604051908101604052809291908181526020018280548015612e1757602002820191906000526020600020905b8160009054906101000a900473ffffffffffffffffffffffffffffffffffffffff1673ffffffffffffffffffffffffffffffffffffffff1681526020019060010190808311612dcd575b50505050503361336c565b905060008103612f3557600660008581526020019081526020016000206000848152602001908152602001600020600501339080600181540180825580915050600190039060005260206000200160009091909190916101000a81548173ffffffffffffffffffffffffffffffffffffffff021916908373ffffffffffffffffffffffffffffffffffffffff1602179055506000821115612f3057600660008581526020019081526020016000206000848152602001908152602001600020600401600183612ef19190615862565b81548110612f0257612f01615896565b5b9060005260206000200160006101000a81549073ffffffffffffffffffffffffffffffffffffffff02191690555b612fa8565b600660008581526020019081526020016000206000848152602001908152602001600020600501600182612f699190615862565b81548110612f7a57612f79615896565b5b9060005260206000200160006101000a81549073ffffffffffffffffffffffffffffffffffffffff02191690555b50505050565b6000600360003373ffffffffffffffffffffffffffffffffffffffff1673ffffffffffffffffffffffffffffffffffffffff1681526020019081526020016000205414612ffa57600080fd5b6001600081548092919061300d906158c5565b9190505550600060046000600154815260200190815260200160002090506001548160000181905550828160010190816130479190615b6f565b50338160020160006101000a81548173ffffffffffffffffffffffffffffffffffffffff021916908373ffffffffffffffffffffffffffffffffffffffff1602179055508181600301908161309c9190615b6f565b50600154600360003373ffffffffffffffffffffffffffffffffffffffff1673ffffffffffffffffffffffffffffffffffffffff16815260200190815260200160002081905550505050565b6000600360003373ffffffffffffffffffffffffffffffffffffffff1673ffffffffffffffffffffffffffffffffffffffff168152602001908152602001600020540361313457600080fd5b6000600360003373ffffffffffffffffffffffffffffffffffffffff1673ffffffffffffffffffffffffffffffffffffffff16815260200190815260200160002054905060005b600460008381526020019081526020016000206005018054905081101561321f57826004600084815260200190815260200160002060050182815481106131c5576131c4615896565b5b90600052602060002001540361320c576004600083815260200190815260200160002060050181815481106131fd576131fc615896565b5b90600052602060002001600090555b8080613217906158c5565b91505061317b565b505050565b6000600360003373ffffffffffffffffffffffffffffffffffffffff1673ffffffffffffffffffffffffffffffffffffffff168152602001908152602001600020540361327057600080fd5b600060016005600085815260200190815260200160002060080180549050613298919061596d565b905060006006600085815260200190815260200160002060008381526020019081526020016000209050818160000181905550338160010160006101000a81548173ffffffffffffffffffffffffffffffffffffffff021916908373ffffffffffffffffffffffffffffffffffffffff1602179055508281600201908161331f9190615b6f565b504281600301819055506005600085815260200190815260200160002060080182908060018154018082558091505060019003906000526020600020016000909190919091505550505050565b600080835111156133f55760005b83518110156133f3578273ffffffffffffffffffffffffffffffffffffffff168482815181106133ad576133ac615896565b5b602002602001015173ffffffffffffffffffffffffffffffffffffffff16036133e0576001816133dd919061596d565b91505b80806133eb906158c5565b91505061337a565b505b92915050565b6060600060025467ffffffffffffffff81111561341b5761341a615026565b5b60405190808252806020026020018201604052801561345457816020015b6134416146f7565b8152602001906001900390816134395790505b5090506000600190505b60025481116134b35760006134728261152e565b905080836001846134839190615862565b8151811061349457613493615896565b5b60200260200101819052505080806134ab906158c5565b91505061345e565b508091505090565b6000600360003373ffffffffffffffffffffffffffffffffffffffff1673ffffffffffffffffffffffffffffffffffffffff168152602001908152602001600020540361350757600080fd5b3373ffffffffffffffffffffffffffffffffffffffff16600760008581526020019081526020016000206000848152602001908152602001600020600083815260200190815260200160002060010160009054906101000a900473ffffffffffffffffffffffffffffffffffffffff1673ffffffffffffffffffffffffffffffffffffffff1614806135fa57503373ffffffffffffffffffffffffffffffffffffffff166005600085815260200190815260200160002060050160009054906101000a900473ffffffffffffffffffffffffffffffffffffffff1673ffffffffffffffffffffffffffffffffffffffff16145b61360357600080fd5b6000821180156136135750600083115b801561361f5750600081115b61362857600080fd5b60076000848152602001908152602001600020600083815260200190815260200160002060008281526020019081526020016000206000808201600090556001820160006101000a81549073ffffffffffffffffffffffffffffffffffffffff021916905560028201600061369d9190614759565b60038201600090556004820160006136b59190614799565b6005820160006136c59190614799565b505060005b600660008581526020019081526020016000206000848152602001908152602001600020600601805490508110156137a15781600660008681526020019081526020016000206000858152602001908152602001600020600601828154811061373657613735615896565b5b90600052602060002001540361378e57600660008581526020019081526020016000206000848152602001908152602001600020600601818154811061377f5761377e615896565b5b90600052602060002001600090555b8080613799906158c5565b9150506136ca565b50505050565b3373ffffffffffffffffffffffffffffffffffffffff166005600083815260200190815260200160002060050160009054906101000a900473ffffffffffffffffffffffffffffffffffffffff1673ffffffffffffffffffffffffffffffffffffffff161461381557600080fd5b600560008281526020019081526020016000206000808201600090556001820160006138419190614759565b6002820160006138519190614759565b6003820160006138619190614759565b60048201600090556005820160006101000a81549073ffffffffffffffffffffffffffffffffffffffff02191690556006820160006138a09190614799565b6007820160006138b09190614799565b6008820160006138c091906147ba565b505060005b60046000600360003373ffffffffffffffffffffffffffffffffffffffff1673ffffffffffffffffffffffffffffffffffffffff16815260200190815260200160002054815260200190815260200160002060040180549050811015613a26578160046000600360003373ffffffffffffffffffffffffffffffffffffffff1673ffffffffffffffffffffffffffffffffffffffff168152602001908152602001600020548152602001908152602001600020600401828154811061398d5761398c615896565b5b906000526020600020015403613a135760046000600360003373ffffffffffffffffffffffffffffffffffffffff1673ffffffffffffffffffffffffffffffffffffffff1681526020019081526020016000205481526020019081526020016000206004018181548110613a0457613a03615896565b5b90600052602060002001600090555b8080613a1e906158c5565b9150506138c5565b5050565b6000600360003373ffffffffffffffffffffffffffffffffffffffff1673ffffffffffffffffffffffffffffffffffffffff1681526020019081526020016000205403613a7657600080fd5b6000613b3e6007600086815260200190815260200160002060008581526020019081526020016000206000848152602001908152602001600020600401805480602002602001604051908101604052809291908181526020018280548015613b3357602002820191906000526020600020905b8160009054906101000a900473ffffffffffffffffffffffffffffffffffffffff1673ffffffffffffffffffffffffffffffffffffffff1681526020019060010190808311613ae9575b50505050503361336c565b90506000613c086007600087815260200190815260200160002060008681526020019081526020016000206000858152602001908152602001600020600501805480602002602001604051908101604052809291908181526020018280548015613bfd57602002820191906000526020600020905b8160009054906101000a900473ffffffffffffffffffffffffffffffffffffffff1673ffffffffffffffffffffffffffffffffffffffff1681526020019060010190808311613bb3575b50505050503361336c565b905060008203613d3d576007600086815260200190815260200160002060008581526020019081526020016000206000848152602001908152602001600020600401339080600181540180825580915050600190039060005260206000200160009091909190916101000a81548173ffffffffffffffffffffffffffffffffffffffff021916908373ffffffffffffffffffffffffffffffffffffffff1602179055506000811115613d38576007600086815260200190815260200160002060008581526020019081526020016000206000848152602001908152602001600020600501600182613cf99190615862565b81548110613d0a57613d09615896565b5b9060005260206000200160006101000a81549073ffffffffffffffffffffffffffffffffffffffff02191690555b613dc1565b6007600086815260200190815260200160002060008581526020019081526020016000206000848152602001908152602001600020600401600183613d829190615862565b81548110613d9357613d92615896565b5b9060005260206000200160006101000a81549073ffffffffffffffffffffffffffffffffffffffff02191690555b5050505050565b6005602052806000526040600020600091509050806000015490806001018054613df19061593c565b80601f0160208091040260200160405190810160405280929190818152602001828054613e1d9061593c565b8015613e6a5780601f10613e3f57610100808354040283529160200191613e6a565b820191906000526020600020905b815481529060010190602001808311613e4d57829003601f168201915b505050505090806002018054613e7f9061593c565b80601f0160208091040260200160405190810160405280929190818152602001828054613eab9061593c565b8015613ef85780601f10613ecd57610100808354040283529160200191613ef8565b820191906000526020600020905b815481529060010190602001808311613edb57829003601f168201915b505050505090806003018054613f0d9061593c565b80601f0160208091040260200160405190810160405280929190818152602001828054613f399061593c565b8015613f865780601f10613f5b57610100808354040283529160200191613f86565b820191906000526020600020905b815481529060010190602001808311613f6957829003601f168201915b5050505050908060040154908060050160009054906101000a900473ffffffffffffffffffffffffffffffffffffffff16905086565b6000600360003373ffffffffffffffffffffffffffffffffffffffff1673ffffffffffffffffffffffffffffffffffffffff168152602001908152602001600020540361400857600080fd5b60006140d060076000868152602001908152602001600020600085815260200190815260200160002060008481526020019081526020016000206004018054806020026020016040519081016040528092919081815260200182805480156140c557602002820191906000526020600020905b8160009054906101000a900473ffffffffffffffffffffffffffffffffffffffff1673ffffffffffffffffffffffffffffffffffffffff168152602001906001019080831161407b575b50505050503361336c565b9050600061419a600760008781526020019081526020016000206000868152602001908152602001600020600085815260200190815260200160002060050180548060200260200160405190810160405280929190818152602001828054801561418f57602002820191906000526020600020905b8160009054906101000a900473ffffffffffffffffffffffffffffffffffffffff1673ffffffffffffffffffffffffffffffffffffffff1681526020019060010190808311614145575b50505050503361336c565b9050600081036142cf576007600086815260200190815260200160002060008581526020019081526020016000206000848152602001908152602001600020600501339080600181540180825580915050600190039060005260206000200160009091909190916101000a81548173ffffffffffffffffffffffffffffffffffffffff021916908373ffffffffffffffffffffffffffffffffffffffff16021790555060008211156142ca57600760008681526020019081526020016000206000858152602001908152602001600020600084815260200190815260200160002060040160018361428b9190615862565b8154811061429c5761429b615896565b5b9060005260206000200160006101000a81549073ffffffffffffffffffffffffffffffffffffffff02191690555b614353565b60076000868152602001908152602001600020600085815260200190815260200160002060008481526020019081526020016000206005016001826143149190615862565b8154811061432557614324615896565b5b9060005260206000200160006101000a81549073ffffffffffffffffffffffffffffffffffffffff02191690555b5050505050565b6060808091505090565b60025481565b60008054906101000a900473ffffffffffffffffffffffffffffffffffffffff1681565b6000600360003373ffffffffffffffffffffffffffffffffffffffff1673ffffffffffffffffffffffffffffffffffffffff16815260200190815260200160002054036143da57600080fd5b6000600360003373ffffffffffffffffffffffffffffffffffffffff1673ffffffffffffffffffffffffffffffffffffffff168152602001908152602001600020549050816004600083815260200190815260200160002060030190816144419190615b6f565b505050565b60606000614453836120c7565b905060008160800151511161446757600080fd5b600081608001515167ffffffffffffffff81111561448857614487615026565b5b6040519080825280602002602001820160405280156144c157816020015b6144ae6146f7565b8152602001906001900390816144a65790505b50905060005b8260800151518110156145325760006144fd846080015183815181106144f0576144ef615896565b5b602002602001015161152e565b90508083838151811061451357614512615896565b5b602002602001018190525050808061452a906158c5565b9150506144c7565b508092505050919050565b6060600080600190505b60025481116145d757600061455b8261152e565b90508460405160200161456e9190615c7d565b6040516020818303038152906040528051906020012081604001516040516020016145999190615c7d565b60405160208183030381529060405280519060200120036145c35782806145bf906158c5565b9350505b5080806145cf906158c5565b915050614547565b5060008167ffffffffffffffff8111156145f4576145f3615026565b5b6040519080825280602002602001820160405280156146225781602001602082028036833780820191505090505b5090506000808311156146ec576000600190505b60025481116146ea57600061464a8261152e565b90508660405160200161465d9190615c7d565b6040516020818303038152906040528051906020012081604001516040516020016146889190615c7d565b60405160208183030381529060405280519060200120036146d65780600001518484815181106146bb576146ba615896565b5b60200260200101818152505082806146d2906158c5565b9350505b5080806146e2906158c5565b915050614636565b505b819350505050919050565b6040518061012001604052806000815260200160608152602001606081526020016060815260200160008152602001600073ffffffffffffffffffffffffffffffffffffffff1681526020016060815260200160608152602001606081525090565b5080546147659061593c565b6000825580601f106147775750614796565b601f01602090049060005260206000209081019061479591906148c6565b5b50565b50805460008255906000526020600020908101906147b791906148c6565b50565b50805460008255906000526020600020908101906147d891906148c6565b50565b6040518060c0016040528060008152602001600073ffffffffffffffffffffffffffffffffffffffff168152602001606081526020016000815260200160608152602001606081525090565b6040518060c001604052806000815260200160608152602001600073ffffffffffffffffffffffffffffffffffffffff1681526020016060815260200160608152602001606081525090565b6040518060e0016040528060008152602001600073ffffffffffffffffffffffffffffffffffffffff16815260200160608152602001600081526020016060815260200160608152602001606081525090565b5b808211156148df5760008160009055506001016148c7565b5090565b6000604051905090565b600080fd5b600080fd5b6000819050919050565b61490a816148f7565b811461491557600080fd5b50565b60008135905061492781614901565b92915050565b600060208284031215614943576149426148ed565b5b600061495184828501614918565b91505092915050565b600081519050919050565b600082825260208201905092915050565b6000819050602082019050919050565b61498f816148f7565b82525050565b600081519050919050565b600082825260208201905092915050565b60005b838110156149cf5780820151818401526020810190506149b4565b838111156149de576000848401525b50505050565b6000601f19601f8301169050919050565b6000614a0082614995565b614a0a81856149a0565b9350614a1a8185602086016149b1565b614a23816149e4565b840191505092915050565b600073ffffffffffffffffffffffffffffffffffffffff82169050919050565b6000614a5982614a2e565b9050919050565b614a6981614a4e565b82525050565b600081519050919050565b600082825260208201905092915050565b6000819050602082019050919050565b6000614aa78383614a60565b60208301905092915050565b6000602082019050919050565b6000614acb82614a6f565b614ad58185614a7a565b9350614ae083614a8b565b8060005b83811015614b11578151614af88882614a9b565b9750614b0383614ab3565b925050600181019050614ae4565b5085935050505092915050565b600081519050919050565b600082825260208201905092915050565b6000819050602082019050919050565b6000614b568383614986565b60208301905092915050565b6000602082019050919050565b6000614b7a82614b1e565b614b848185614b29565b9350614b8f83614b3a565b8060005b83811015614bc0578151614ba78882614b4a565b9750614bb283614b62565b925050600181019050614b93565b5085935050505092915050565b600061012083016000830151614be66000860182614986565b5060208301518482036020860152614bfe82826149f5565b91505060408301518482036040860152614c1882826149f5565b91505060608301518482036060860152614c3282826149f5565b9150506080830151614c476080860182614986565b5060a0830151614c5a60a0860182614a60565b5060c083015184820360c0860152614c728282614ac0565b91505060e083015184820360e0860152614c8c8282614ac0565b915050610100830151848203610100860152614ca88282614b6f565b9150508091505092915050565b6000614cc18383614bcd565b905092915050565b6000602082019050919050565b6000614ce18261495a565b614ceb8185614965565b935083602082028501614cfd85614976565b8060005b85811015614d395784840389528151614d1a8582614cb5565b9450614d2583614cc9565b925060208a01995050600181019050614d01565b50829750879550505050505092915050565b60006020820190508181036000830152614d658184614cd6565b905092915050565b614d7681614a4e565b8114614d8157600080fd5b50565b600081359050614d9381614d6d565b92915050565b600060208284031215614daf57614dae6148ed565b5b6000614dbd84828501614d84565b91505092915050565b60008060408385031215614ddd57614ddc6148ed565b5b6000614deb85828601614918565b9250506020614dfc85828601614918565b9150509250929050565b600080600060608486031215614e1f57614e1e6148ed565b5b6000614e2d86828701614918565b9350506020614e3e86828701614918565b9250506040614e4f86828701614918565b9150509250925092565b600060c083016000830151614e716000860182614986565b506020830151614e846020860182614a60565b5060408301518482036040860152614e9c82826149f5565b9150506060830151614eb16060860182614986565b5060808301518482036080860152614ec98282614ac0565b91505060a083015184820360a0860152614ee38282614ac0565b9150508091505092915050565b60006020820190508181036000830152614f0a8184614e59565b905092915050565b600061012083016000830151614f2b6000860182614986565b5060208301518482036020860152614f4382826149f5565b91505060408301518482036040860152614f5d82826149f5565b91505060608301518482036060860152614f7782826149f5565b9150506080830151614f8c6080860182614986565b5060a0830151614f9f60a0860182614a60565b5060c083015184820360c0860152614fb78282614ac0565b91505060e083015184820360e0860152614fd18282614ac0565b915050610100830151848203610100860152614fed8282614b6f565b9150508091505092915050565b600060208201905081810360008301526150148184614f12565b905092915050565b600080fd5b600080fd5b7f4e487b7100000000000000000000000000000000000000000000000000000000600052604160045260246000fd5b61505e826149e4565b810181811067ffffffffffffffff8211171561507d5761507c615026565b5b80604052505050565b60006150906148e3565b905061509c8282615055565b919050565b600067ffffffffffffffff8211156150bc576150bb615026565b5b6150c5826149e4565b9050602081019050919050565b82818337600083830152505050565b60006150f46150ef846150a1565b615086565b9050828152602081018484840111156151105761510f615021565b5b61511b8482856150d2565b509392505050565b600082601f8301126151385761513761501c565b5b81356151488482602086016150e1565b91505092915050565b600060208284031215615167576151666148ed565b5b600082013567ffffffffffffffff811115615185576151846148f2565b5b61519184828501615123565b91505092915050565b6151a3816148f7565b82525050565b600082825260208201905092915050565b60006151c582614995565b6151cf81856151a9565b93506151df8185602086016149b1565b6151e8816149e4565b840191505092915050565b6151fc81614a4e565b82525050565b6000608082019050615217600083018761519a565b818103602083015261522981866151ba565b905061523860408301856151f3565b818103606083015261524a81846151ba565b905095945050505050565b600060208201905061526a600083018461519a565b92915050565b600080600060608486031215615289576152886148ed565b5b600061529786828701614918565b93505060206152a886828701614918565b925050604084013567ffffffffffffffff8111156152c9576152c86148f2565b5b6152d586828701615123565b9150509250925092565b6000806000606084860312156152f8576152f76148ed565b5b600084013567ffffffffffffffff811115615316576153156148f2565b5b61532286828701615123565b935050602084013567ffffffffffffffff811115615343576153426148f2565b5b61534f86828701615123565b925050604084013567ffffffffffffffff8111156153705761536f6148f2565b5b61537c86828701615123565b9150509250925092565b600060c08301600083015161539e6000860182614986565b50602083015184820360208601526153b682826149f5565b91505060408301516153cb6040860182614a60565b50606083015184820360608601526153e382826149f5565b915050608083015184820360808601526153fd8282614b6f565b91505060a083015184820360a08601526154178282614b6f565b9150508091505092915050565b6000602082019050818103600083015261543e8184615386565b905092915050565b600060e08301600083015161545e6000860182614986565b5060208301516154716020860182614a60565b506040830151848203604086015261548982826149f5565b915050606083015161549e6060860182614986565b50608083015184820360808601526154b68282614ac0565b91505060a083015184820360a08601526154d08282614ac0565b91505060c083015184820360c08601526154ea8282614b6f565b9150508091505092915050565b600060208201905081810360008301526155118184615446565b905092915050565b600080604083850312156155305761552f6148ed565b5b600083013567ffffffffffffffff81111561554e5761554d6148f2565b5b61555a85828601615123565b925050602083013567ffffffffffffffff81111561557b5761557a6148f2565b5b61558785828601615123565b9150509250929050565b600080604083850312156155a8576155a76148ed565b5b60006155b685828601614918565b925050602083013567ffffffffffffffff8111156155d7576155d66148f2565b5b6155e385828601615123565b9150509250929050565b600067ffffffffffffffff82111561560857615607615026565b5b602082029050602081019050919050565b600080fd5b600061563161562c846155ed565b615086565b9050808382526020820190506020840283018581111561565457615653615619565b5b835b8181101561567d57806156698882614d84565b845260208401935050602081019050615656565b5050509392505050565b600082601f83011261569c5761569b61501c565b5b81356156ac84826020860161561e565b91505092915050565b600080604083850312156156cc576156cb6148ed565b5b600083013567ffffffffffffffff8111156156ea576156e96148f2565b5b6156f685828601615687565b925050602061570785828601614d84565b9150509250929050565b600060c082019050615726600083018961519a565b818103602083015261573881886151ba565b9050818103604083015261574c81876151ba565b9050818103606083015261576081866151ba565b905061576f608083018561519a565b61577c60a08301846151f3565b979650505050505050565b600082825260208201905092915050565b60006157a382614b1e565b6157ad8185615787565b93506157b883614b3a565b8060005b838110156157e95781516157d08882614b4a565b97506157db83614b62565b9250506001810190506157bc565b5085935050505092915050565b600060208201905081810360008301526158108184615798565b905092915050565b600060208201905061582d60008301846151f3565b92915050565b7f4e487b7100000000000000000000000000000000000000000000000000000000600052601160045260246000fd5b600061586d826148f7565b9150615878836148f7565b92508282101561588b5761588a615833565b5b828203905092915050565b7f4e487b7100000000000000000000000000000000000000000000000000000000600052603260045260246000fd5b60006158d0826148f7565b91507fffffffffffffffffffffffffffffffffffffffffffffffffffffffffffffffff820361590257615901615833565b5b600182019050919050565b7f4e487b7100000000000000000000000000000000000000000000000000000000600052602260045260246000fd5b6000600282049050600182168061595457607f821691505b6020821081036159675761596661590d565b5b50919050565b6000615978826148f7565b9150615983836148f7565b9250827fffffffffffffffffffffffffffffffffffffffffffffffffffffffffffffffff038211156159b8576159b7615833565b5b828201905092915050565b60008190508160005260206000209050919050565b60006020601f8301049050919050565b600082821b905092915050565b600060088302615a257fffffffffffffffffffffffffffffffffffffffffffffffffffffffffffffffff826159e8565b615a2f86836159e8565b95508019841693508086168417925050509392505050565b6000819050919050565b6000615a6c615a67615a62846148f7565b615a47565b6148f7565b9050919050565b6000819050919050565b615a8683615a51565b615a9a615a9282615a73565b8484546159f5565b825550505050565b600090565b615aaf615aa2565b615aba818484615a7d565b505050565b5b81811015615ade57615ad3600082615aa7565b600181019050615ac0565b5050565b601f821115615b2357615af4816159c3565b615afd846159d8565b81016020851015615b0c578190505b615b20615b18856159d8565b830182615abf565b50505b505050565b600082821c905092915050565b6000615b4660001984600802615b28565b1980831691505092915050565b6000615b5f8383615b35565b9150826002028217905092915050565b615b7882614995565b67ffffffffffffffff811115615b9157615b90615026565b5b615b9b825461593c565b615ba6828285615ae2565b600060209050601f831160018114615bd95760008415615bc7578287015190505b615bd18582615b53565b865550615c39565b601f198416615be7866159c3565b60005b82811015615c0f57848901518255600182019150602085019450602081019050615bea565b86831015615c2c5784890151615c28601f891682615b35565b8355505b6001600288020188555050505b505050505050565b600081905092915050565b6000615c5782614995565b615c618185615c41565b9350615c718185602086016149b1565b80840191505092915050565b6000615c898284615c4c565b91508190509291505056fea2646970667358221220e0482626b1dc412fd81f7c68a01fb5f487dba3b5cd87d2932d00a49be880122364736f6c634300080f0033",
  "immutableReferences": {},
  "source": "// SPDX-License-Identifier: MIT\npragma solidity >=0.4.22 <0.9.0;\n\nimport \"./Replys.sol\";\n\ncontract Youtube is Replys {\n    // Change personal information\n\n    function changeName(string memory _newUserName) public {\n        require(userId[msg.sender] != 0);\n        uint256 _userId = userId[msg.sender];\n        users[_userId].userName = _newUserName;\n    }\n\n    function changeProfileImag(string memory _profileImag) public {\n        require(userId[msg.sender] != 0);\n\n        uint256 _userId = userId[msg.sender];\n        users[_userId].profileImag = _profileImag;\n    }\n\n    function saveVideo(uint256 _videoId) public {\n        require(userId[msg.sender] != 0);\n\n        uint256 _userId = userId[msg.sender];\n\n        if (users[_userId].videoSaved.length == 0) {\n            users[_userId].videoSaved.push(_videoId);\n        } else {\n            // --------- check if video already saved ---------------- :\n            uint256 isVideoSaved;\n            for (uint256 i = 0; i < users[_userId].videoSaved.length; i++) {\n                if (users[_userId].videoSaved[i] == _videoId) {\n                    isVideoSaved++;\n                }\n            }\n\n            if (isVideoSaved == 0) {\n                users[_userId].videoSaved.push(_videoId);\n            }\n        }\n    }\n\n    function deleteSavedVideo(uint256 _videoId) public {\n        require(userId[msg.sender] != 0);\n\n        uint256 _userId = userId[msg.sender];\n\n        for (uint256 i = 0; i < users[_userId].videoSaved.length; i++) {\n            if (users[_userId].videoSaved[i] == _videoId) {\n                delete (users[_userId].videoSaved[i]);\n            }\n        }\n    }\n\n    function deletUser(address _userAddres) public {\n        require(msg.sender == admin);\n        uint256 _userId = userId[_userAddres];\n\n        if (users[_userId].userVideos.length > 0) {\n            for (uint256 i = 0; i < users[_userId].userVideos.length; i++) {\n                delete (videos[users[_userId].userVideos[i]]);\n            }\n        }\n\n        delete (users[_userId]);\n        delete (userId[_userAddres]);\n    }\n\n    function changeAdmin(address _newAdmin) public {\n        require(msg.sender == admin);\n        admin = _newAdmin;\n    }\n}\n",
  "sourcePath": "C:\\Users\\hamza\\Desktop\\web3-tasks\\11_Youtube_web3\\contracts\\Youtube.sol",
  "compiler": {
    "name": "solc",
    "version": "0.8.15+commit.e14f2714.Emscripten.clang"
  },
  "schemaVersion": "3.4.8",
  "updatedAt": "2022-08-21T19:52:47.186Z",
  "networkType": "ethereum",
  "devdoc": {
    "kind": "dev",
    "methods": {},
    "version": 1
  },
  "userdoc": {
    "kind": "user",
    "methods": {},
    "version": 1
  }
}